{
  "contractName": "BuySell",
  "abi": [
    {
      "anonymous": false,
      "inputs": [
        {
          "indexed": false,
          "internalType": "address",
          "name": "buyer",
          "type": "address"
        },
        {
          "indexed": false,
          "internalType": "uint256",
          "name": "amountOfETH",
          "type": "uint256"
        },
        {
          "indexed": false,
          "internalType": "uint256",
          "name": "amountOfTokens",
          "type": "uint256"
        }
      ],
      "name": "BuyTokens",
      "type": "event"
    },
    {
      "anonymous": false,
      "inputs": [
        {
          "indexed": true,
          "internalType": "address",
          "name": "previousOwner",
          "type": "address"
        },
        {
          "indexed": true,
          "internalType": "address",
          "name": "newOwner",
          "type": "address"
        }
      ],
      "name": "OwnershipTransferred",
      "type": "event"
    },
    {
      "inputs": [],
      "name": "owner",
      "outputs": [
        {
          "internalType": "address",
          "name": "",
          "type": "address"
        }
      ],
      "stateMutability": "view",
      "type": "function"
    },
    {
      "inputs": [],
      "name": "renounceOwnership",
      "outputs": [],
      "stateMutability": "nonpayable",
      "type": "function"
    },
    {
      "inputs": [
        {
          "internalType": "address",
          "name": "newOwner",
          "type": "address"
        }
      ],
      "name": "transferOwnership",
      "outputs": [],
      "stateMutability": "nonpayable",
      "type": "function"
    },
    {
      "inputs": [
        {
          "internalType": "uint256",
          "name": "amountOfETH",
          "type": "uint256"
        },
        {
          "internalType": "uint256",
          "name": "tokenAmount",
          "type": "uint256"
        },
        {
          "internalType": "address",
          "name": "tokenAddress",
          "type": "address"
        }
      ],
      "name": "setPrice",
      "outputs": [
        {
          "components": [
            {
              "internalType": "address payable",
              "name": "seller",
              "type": "address"
            },
            {
              "internalType": "address",
              "name": "tokenAddress",
              "type": "address"
            },
            {
              "internalType": "uint256",
              "name": "amountOfETH",
              "type": "uint256"
            },
            {
              "internalType": "uint256",
              "name": "id",
              "type": "uint256"
            },
            {
              "internalType": "uint256",
              "name": "amountToSell",
              "type": "uint256"
            }
          ],
          "internalType": "struct BuySell.sellingInstance",
          "name": "instance",
          "type": "tuple"
        }
      ],
      "stateMutability": "nonpayable",
      "type": "function"
    },
    {
      "inputs": [
        {
          "internalType": "address",
          "name": "tokenAddress",
          "type": "address"
        },
        {
          "internalType": "uint256",
          "name": "amount",
          "type": "uint256"
        }
      ],
      "name": "getPriceForTokens",
      "outputs": [
        {
          "internalType": "uint256",
          "name": "pri",
          "type": "uint256"
        }
      ],
      "stateMutability": "view",
      "type": "function"
    },
    {
      "inputs": [
        {
          "internalType": "address",
          "name": "tokenAddress",
          "type": "address"
        },
        {
          "internalType": "uint256",
          "name": "promisedPrice",
          "type": "uint256"
        },
        {
          "internalType": "uint256",
          "name": "amount",
          "type": "uint256"
        }
      ],
      "name": "buyTokens",
      "outputs": [],
      "stateMutability": "payable",
      "type": "function"
    },
    {
      "inputs": [
        {
          "internalType": "address",
          "name": "tokenAddress",
          "type": "address"
        },
        {
          "internalType": "uint256",
          "name": "amount",
          "type": "uint256"
        }
      ],
      "name": "cancelSale",
      "outputs": [],
      "stateMutability": "nonpayable",
      "type": "function"
    },
    {
      "inputs": [],
      "name": "withdraw",
      "outputs": [],
      "stateMutability": "nonpayable",
      "type": "function"
    }
  ],
  "bytecode": "0x608060405260006002553480156200001657600080fd5b50620000376200002b6200003d60201b60201c565b6200004560201b60201c565b62000109565b600033905090565b60008060009054906101000a900473ffffffffffffffffffffffffffffffffffffffff169050816000806101000a81548173ffffffffffffffffffffffffffffffffffffffff021916908373ffffffffffffffffffffffffffffffffffffffff1602179055508173ffffffffffffffffffffffffffffffffffffffff168173ffffffffffffffffffffffffffffffffffffffff167f8be0079c531659141344cd1fd0a4f28419497f9722a3daafe3b4186f6b6457e060405160405180910390a35050565b6131ad80620001196000396000f3fe60806040526004361061007b5760003560e01c8063d2395dcd1161004e578063d2395dcd14610102578063e11a0bd81461011e578063f2fde38b1461015b578063f83fcdea146101845761007b565b806316f3a95b146100805780633ccfd60b146100a9578063715018a6146100c05780638da5cb5b146100d7575b600080fd5b34801561008c57600080fd5b506100a760048036038101906100a29190612585565b6101c1565b005b3480156100b557600080fd5b506100be610956565b005b3480156100cc57600080fd5b506100d5610aca565b005b3480156100e357600080fd5b506100ec610b52565b6040516100f991906125d4565b60405180910390f35b61011c600480360381019061011791906125ef565b610b7b565b005b34801561012a57600080fd5b5061014560048036038101906101409190612585565b611635565b6040516101529190612651565b60405180910390f35b34801561016757600080fd5b50610182600480360381019061017d919061266c565b611b1d565b005b34801561019057600080fd5b506101ab60048036038101906101a69190612699565b611c14565b6040516101b89190612793565b60405180910390f35b600082905060008173ffffffffffffffffffffffffffffffffffffffff166370a08231306040518263ffffffff1660e01b815260040161020191906125d4565b602060405180830381865afa15801561021e573d6000803e3d6000fd5b505050506040513d601f19601f8201168201806040525081019061024291906127c3565b905082811015610287576040517f08c379a000000000000000000000000000000000000000000000000000000000815260040161027e90612873565b60405180910390fd5b60006103b36001805480602002602001604051908101604052809291908181526020016000905b828210156103aa57838290600052602060002090600502016040518060a00160405290816000820160009054906101000a900473ffffffffffffffffffffffffffffffffffffffff1673ffffffffffffffffffffffffffffffffffffffff1673ffffffffffffffffffffffffffffffffffffffff1681526020016001820160009054906101000a900473ffffffffffffffffffffffffffffffffffffffff1673ffffffffffffffffffffffffffffffffffffffff1673ffffffffffffffffffffffffffffffffffffffff1681526020016002820154815260200160038201548152602001600482015481525050815260200190600101906102ae565b50505050611df6565b90506103bd612491565b60006040518060a001604052806103d5898633611f17565b81526020017fffffffffffffffffffffffffffffffffffffffffffffffffffffffffffffffff8152602001600015158152602001600081526020018781525090507fffffffffffffffffffffffffffffffffffffffffffffffffffffffffffffffff81600001510361047c576040517f08c379a0000000000000000000000000000000000000000000000000000000008152600401610473906128df565b60405180910390fd5b60008084836000015181518110610496576104956128ff565b5b6020026020010151905060006104af8260600151612035565b9050888260800151106105345788600182815481106104d1576104d06128ff565b5b9060005260206000209060050201600401546104ed919061295d565b60018281548110610501576105006128ff565b5b90600052602060002090600502016004018190555088836105229190612991565b925060008460800181815250506105e6565b60018181548110610548576105476128ff565b5b906000526020600020906005020160040154846080015161056991906129f1565b84608001818152505060018181548110610586576105856128ff565b5b906000526020600020906005020160040154836105a39190612991565b92506000600182815481106105bb576105ba6128ff565b5b9060005260206000209060050201600401819055506105dc8a8388336120bc565b8460200181815250505b5b6000846080015113801561061f57507fffffffffffffffffffffffffffffffffffffffffffffffffffffffffffffffff846020015114155b1561087957600184602001518154811061063c5761063b6128ff565b5b90600052602060002090600502016040518060a00160405290816000820160009054906101000a900473ffffffffffffffffffffffffffffffffffffffff1673ffffffffffffffffffffffffffffffffffffffff1673ffffffffffffffffffffffffffffffffffffffff1681526020016001820160009054906101000a900473ffffffffffffffffffffffffffffffffffffffff1673ffffffffffffffffffffffffffffffffffffffff1673ffffffffffffffffffffffffffffffffffffffff1681526020016002820154815260200160038201548152602001600482015481525050945060006107308660600151612035565b905084608001518660800151106107c15784608001516001828154811061075a576107596128ff565b5b906000526020600020906005020160040154610776919061295d565b6001828154811061078a576107896128ff565b5b9060005260206000209060050201600401819055508460800151846107af9190612991565b93506000856080018181525050610873565b600181815481106107d5576107d46128ff565b5b906000526020600020906005020160040154846107f29190612991565b935060018181548110610808576108076128ff565b5b906000526020600020906005020160040154856080015161082991906129f1565b856080018181525050600060018281548110610848576108476128ff565b5b9060005260206000209060050201600401819055506108698b8489336120bc565b8560200181815250505b506105e7565b8773ffffffffffffffffffffffffffffffffffffffff1663a9059cbb33856040518363ffffffff1660e01b81526004016108b4929190612a85565b6020604051808303816000875af11580156108d3573d6000803e3d6000fd5b505050506040513d601f19601f820116820180604052508101906108f79190612ae6565b846040019015159081151581525050836040015161094a576040517f08c379a000000000000000000000000000000000000000000000000000000000815260040161094190612b5f565b60405180910390fd5b50505050505050505050565b61095e612208565b73ffffffffffffffffffffffffffffffffffffffff1661097c610b52565b73ffffffffffffffffffffffffffffffffffffffff16146109d2576040517f08c379a00000000000000000000000000000000000000000000000000000000081526004016109c990612bcb565b60405180910390fd5b600047905060008111610a1a576040517f08c379a0000000000000000000000000000000000000000000000000000000008152600401610a1190612c5d565b60405180910390fd5b60003373ffffffffffffffffffffffffffffffffffffffff1647604051610a4090612cae565b60006040518083038185875af1925050503d8060008114610a7d576040519150601f19603f3d011682016040523d82523d6000602084013e610a82565b606091505b5050905080610ac6576040517f08c379a0000000000000000000000000000000000000000000000000000000008152600401610abd90612d35565b60405180910390fd5b5050565b610ad2612208565b73ffffffffffffffffffffffffffffffffffffffff16610af0610b52565b73ffffffffffffffffffffffffffffffffffffffff1614610b46576040517f08c379a0000000000000000000000000000000000000000000000000000000008152600401610b3d90612bcb565b60405180910390fd5b610b506000612210565b565b60008060009054906101000a900473ffffffffffffffffffffffffffffffffffffffff16905090565b6000610b878483611635565b905080341015610bcc576040517f08c379a0000000000000000000000000000000000000000000000000000000008152600401610bc390612da1565b60405180910390fd5b600084905060008173ffffffffffffffffffffffffffffffffffffffff166370a08231306040518263ffffffff1660e01b8152600401610c0c91906125d4565b602060405180830381865afa158015610c29573d6000803e3d6000fd5b505050506040513d601f19601f82011682018060405250810190610c4d91906127c3565b905083811015610c92576040517f08c379a0000000000000000000000000000000000000000000000000000000008152600401610c8990612873565b60405180910390fd5b848314610cd4576040517f08c379a0000000000000000000000000000000000000000000000000000000008152600401610ccb90612e0d565b60405180910390fd5b6000610e006001805480602002602001604051908101604052809291908181526020016000905b82821015610df757838290600052602060002090600502016040518060a00160405290816000820160009054906101000a900473ffffffffffffffffffffffffffffffffffffffff1673ffffffffffffffffffffffffffffffffffffffff1673ffffffffffffffffffffffffffffffffffffffff1681526020016001820160009054906101000a900473ffffffffffffffffffffffffffffffffffffffff1673ffffffffffffffffffffffffffffffffffffffff1673ffffffffffffffffffffffffffffffffffffffff168152602001600282015481526020016003820154815260200160048201548152505081526020019060010190610cfb565b50505050611df6565b9050610e0a612491565b60006040518060a00160405280610e218b866122d4565b81526020017fffffffffffffffffffffffffffffffffffffffffffffffffffffffffffffffff8152602001600015158152602001600081526020018881525090508473ffffffffffffffffffffffffffffffffffffffff1663a9059cbb33896040518363ffffffff1660e01b8152600401610e9d929190612a85565b6020604051808303816000875af1158015610ebc573d6000803e3d6000fd5b505050506040513d601f19601f82011682018060405250810190610ee09190612ae6565b8160400190151590811515815250507fffffffffffffffffffffffffffffffffffffffffffffffffffffffffffffffff816000015103610f55576040517f08c379a0000000000000000000000000000000000000000000000000000000008152600401610f4c906128df565b60405180910390fd5b600083826000015181518110610f6e57610f6d6128ff565b5b602002602001015190506000610f878260600151612035565b9050888260800151106110ac578860018281548110610fa957610fa86128ff565b5b906000526020600020906005020160040154610fc5919061295d565b60018281548110610fd957610fd86128ff565b5b90600052602060002090600502016004018190555060018181548110611002576110016128ff565b5b906000526020600020906005020160000160009054906101000a900473ffffffffffffffffffffffffffffffffffffffff1673ffffffffffffffffffffffffffffffffffffffff166108fc670de0b6b3a764000084604001518c6110669190612e2d565b6110709190612eb6565b9081150290604051600060405180830381858888f1935050505015801561109b573d6000803e3d6000fd5b5060008360800181815250506111ea565b670de0b6b3a7640000826040015183608001516110c99190612e2d565b6110d39190612eb6565b836060018181525050600181815481106110f0576110ef6128ff565b5b906000526020600020906005020160000160009054906101000a900473ffffffffffffffffffffffffffffffffffffffff1673ffffffffffffffffffffffffffffffffffffffff166108fc84606001519081150290604051600060405180830381858888f1935050505015801561116b573d6000803e3d6000fd5b50600181815481106111805761117f6128ff565b5b90600052602060002090600502016004015483608001516111a191906129f1565b8360800181815250506000600182815481106111c0576111bf6128ff565b5b9060005260206000209060050201600401819055506111e08b838761239b565b8360200181815250505b5b6000836080015113801561122357507fffffffffffffffffffffffffffffffffffffffffffffffffffffffffffffffff836020015114155b156115a95760018360200151815481106112405761123f6128ff565b5b90600052602060002090600502016040518060a00160405290816000820160009054906101000a900473ffffffffffffffffffffffffffffffffffffffff1673ffffffffffffffffffffffffffffffffffffffff1673ffffffffffffffffffffffffffffffffffffffff1681526020016001820160009054906101000a900473ffffffffffffffffffffffffffffffffffffffff1673ffffffffffffffffffffffffffffffffffffffff1673ffffffffffffffffffffffffffffffffffffffff1681526020016002820154815260200160038201548152602001600482015481525050935060006113348560600151612035565b905083608001518560800151126114655783608001516001828154811061135e5761135d6128ff565b5b90600052602060002090600502016004015461137a919061295d565b6001828154811061138e5761138d6128ff565b5b906000526020600020906005020160040181905550600181815481106113b7576113b66128ff565b5b906000526020600020906005020160000160009054906101000a900473ffffffffffffffffffffffffffffffffffffffff1673ffffffffffffffffffffffffffffffffffffffff166108fc670de0b6b3a76400008760400151876080015161141f9190612e2d565b6114299190612eb6565b9081150290604051600060405180830381858888f19350505050158015611454573d6000803e3d6000fd5b5060008460800181815250506115a3565b670de0b6b3a7640000856040015186608001516114829190612e2d565b61148c9190612eb6565b846060018181525050600181815481106114a9576114a86128ff565b5b906000526020600020906005020160000160009054906101000a900473ffffffffffffffffffffffffffffffffffffffff1673ffffffffffffffffffffffffffffffffffffffff166108fc85606001519081150290604051600060405180830381858888f19350505050158015611524573d6000803e3d6000fd5b5060018181548110611539576115386128ff565b5b906000526020600020906005020160040154846080015161155a91906129f1565b846080018181525050600060018281548110611579576115786128ff565b5b9060005260206000209060050201600401819055506115998c868861239b565b8460200181815250505b506111eb565b82604001516115ed576040517f08c379a00000000000000000000000000000000000000000000000000000000081526004016115e490612f33565b60405180910390fd5b7f0a37b72bb67eee30e09084cf386f8a17817c57f620c3ab95fb25d6a20356ec7733348b60405161162093929190612f53565b60405180910390a15050505050505050505050565b6000806117626001805480602002602001604051908101604052809291908181526020016000905b8282101561175957838290600052602060002090600502016040518060a00160405290816000820160009054906101000a900473ffffffffffffffffffffffffffffffffffffffff1673ffffffffffffffffffffffffffffffffffffffff1673ffffffffffffffffffffffffffffffffffffffff1681526020016001820160009054906101000a900473ffffffffffffffffffffffffffffffffffffffff1673ffffffffffffffffffffffffffffffffffffffff1673ffffffffffffffffffffffffffffffffffffffff16815260200160028201548152602001600382015481526020016004820154815250508152602001906001019061165d565b50505050611df6565b9050600061177085836122d4565b9050600061177c612491565b600086905060007fffffffffffffffffffffffffffffffffffffffffffffffffffffffffffffffff85036117b95760009650505050505050611b17565b6000600186815481106117cf576117ce6128ff565b5b90600052602060002090600502016040518060a00160405290816000820160009054906101000a900473ffffffffffffffffffffffffffffffffffffffff1673ffffffffffffffffffffffffffffffffffffffff1673ffffffffffffffffffffffffffffffffffffffff1681526020016001820160009054906101000a900473ffffffffffffffffffffffffffffffffffffffff1673ffffffffffffffffffffffffffffffffffffffff1673ffffffffffffffffffffffffffffffffffffffff16815260200160028201548152602001600382015481526020016004820154815250509050888160800151106118f357670de0b6b3a764000081604001518a6118d89190612e2d565b6118e29190612eb6565b915081975050505050505050611b17565b670de0b6b3a7640000816040015182608001516119109190612e2d565b61191a9190612eb6565b915080608001518361192c919061295d565b92506119398a828961239b565b94505b60008311801561196c57507fffffffffffffffffffffffffffffffffffffffffffffffffffffffffffffffff8514155b15611b0c5760018581548110611985576119846128ff565b5b90600052602060002090600502016040518060a00160405290816000820160009054906101000a900473ffffffffffffffffffffffffffffffffffffffff1673ffffffffffffffffffffffffffffffffffffffff1673ffffffffffffffffffffffffffffffffffffffff1681526020016001820160009054906101000a900473ffffffffffffffffffffffffffffffffffffffff1673ffffffffffffffffffffffffffffffffffffffff1673ffffffffffffffffffffffffffffffffffffffff1681526020016002820154815260200160038201548152602001600482015481525050935082846080015110611ab457670de0b6b3a7640000846040015184611a8e9190612e2d565b611a989190612eb6565b82611aa39190612991565b915081975050505050505050611b17565b670de0b6b3a764000084604001518560800151611ad19190612e2d565b611adb9190612eb6565b82611ae69190612991565b9150806080015183611af8919061295d565b9250611b058a858961239b565b945061193c565b819750505050505050505b92915050565b611b25612208565b73ffffffffffffffffffffffffffffffffffffffff16611b43610b52565b73ffffffffffffffffffffffffffffffffffffffff1614611b99576040517f08c379a0000000000000000000000000000000000000000000000000000000008152600401611b9090612bcb565b60405180910390fd5b600073ffffffffffffffffffffffffffffffffffffffff168173ffffffffffffffffffffffffffffffffffffffff1603611c08576040517f08c379a0000000000000000000000000000000000000000000000000000000008152600401611bff90612ffc565b60405180910390fd5b611c1181612210565b50565b611c1c612491565b60008290508073ffffffffffffffffffffffffffffffffffffffff166323b872dd3330876040518463ffffffff1660e01b8152600401611c5e9392919061301c565b6020604051808303816000875af1158015611c7d573d6000803e3d6000fd5b505050506040513d601f19601f82011682018060405250810190611ca19190612ae6565b5060006040518060a001604052803373ffffffffffffffffffffffffffffffffffffffff1681526020018573ffffffffffffffffffffffffffffffffffffffff1681526020018781526020016002548152602001868152509050600181908060018154018082558091505060019003906000526020600020906005020160009091909190915060008201518160000160006101000a81548173ffffffffffffffffffffffffffffffffffffffff021916908373ffffffffffffffffffffffffffffffffffffffff16021790555060208201518160010160006101000a81548173ffffffffffffffffffffffffffffffffffffffff021916908373ffffffffffffffffffffffffffffffffffffffff16021790555060408201518160020155606082015181600301556080820151816004015550506001600254611de49190612991565b60028190555080925050509392505050565b6060611e00612491565b600080600090505b8451811215611f0c57848181518110611e2457611e236128ff565b5b60200260200101519250600181611e3b91906129f1565b91505b60008212158015611e7057508260400151858381518110611e6257611e616128ff565b5b602002602001015160400151115b15611ece57848281518110611e8857611e876128ff565b5b602002602001015185600184611e9e9190613053565b81518110611eaf57611eae6128ff565b5b6020026020010181905250600182611ec791906129f1565b9150611e3e565b8285600184611edd9190613053565b81518110611eee57611eed6128ff565b5b60200260200101819052508080611f04906130e7565b915050611e08565b508392505050919050565b600080600090505b8351811015612009578473ffffffffffffffffffffffffffffffffffffffff16848281518110611f5257611f516128ff565b5b60200260200101516020015173ffffffffffffffffffffffffffffffffffffffff16148015611fca57508273ffffffffffffffffffffffffffffffffffffffff16848281518110611fa657611fa56128ff565b5b60200260200101516000015173ffffffffffffffffffffffffffffffffffffffff16145b15611ff657838181518110611fe257611fe16128ff565b5b60200260200101516060015191505061202e565b80806120019061312f565b915050611f1f565b507fffffffffffffffffffffffffffffffffffffffffffffffffffffffffffffffff90505b9392505050565b600080600090505b60018054905081121561209257826001828154811061205f5761205e6128ff565b5b9060005260206000209060050201600301540361207f57809150506120b7565b808061208a906130e7565b91505061203d565b507fffffffffffffffffffffffffffffffffffffffffffffffffffffffffffffffff90505b919050565b600080600090505b83518110156121db578573ffffffffffffffffffffffffffffffffffffffff168482815181106120f7576120f66128ff565b5b60200260200101516020015173ffffffffffffffffffffffffffffffffffffffff1614801561214757508460400151848281518110612139576121386128ff565b5b602002602001015160400151115b801561219c57508273ffffffffffffffffffffffffffffffffffffffff16848281518110612178576121776128ff565b5b60200260200101516000015173ffffffffffffffffffffffffffffffffffffffff16145b156121c8578381815181106121b4576121b36128ff565b5b602002602001015160600151915050612200565b80806121d39061312f565b9150506120c4565b507fffffffffffffffffffffffffffffffffffffffffffffffffffffffffffffffff90505b949350505050565b600033905090565b60008060009054906101000a900473ffffffffffffffffffffffffffffffffffffffff169050816000806101000a81548173ffffffffffffffffffffffffffffffffffffffff021916908373ffffffffffffffffffffffffffffffffffffffff1602179055508173ffffffffffffffffffffffffffffffffffffffff168173ffffffffffffffffffffffffffffffffffffffff167f8be0079c531659141344cd1fd0a4f28419497f9722a3daafe3b4186f6b6457e060405160405180910390a35050565b600080600090505b8251811015612370578373ffffffffffffffffffffffffffffffffffffffff1683828151811061230f5761230e6128ff565b5b60200260200101516020015173ffffffffffffffffffffffffffffffffffffffff160361235d57828181518110612349576123486128ff565b5b602002602001015160600151915050612395565b80806123689061312f565b9150506122dc565b507fffffffffffffffffffffffffffffffffffffffffffffffffffffffffffffffff90505b92915050565b600080600090505b8251811015612465578473ffffffffffffffffffffffffffffffffffffffff168382815181106123d6576123d56128ff565b5b60200260200101516020015173ffffffffffffffffffffffffffffffffffffffff1614801561242657508360400151838281518110612418576124176128ff565b5b602002602001015160400151115b156124525782818151811061243e5761243d6128ff565b5b60200260200101516060015191505061248a565b808061245d9061312f565b9150506123a3565b507fffffffffffffffffffffffffffffffffffffffffffffffffffffffffffffffff90505b9392505050565b6040518060a00160405280600073ffffffffffffffffffffffffffffffffffffffff168152602001600073ffffffffffffffffffffffffffffffffffffffff1681526020016000815260200160008152602001600081525090565b600080fd5b600073ffffffffffffffffffffffffffffffffffffffff82169050919050565b600061251c826124f1565b9050919050565b61252c81612511565b811461253757600080fd5b50565b60008135905061254981612523565b92915050565b6000819050919050565b6125628161254f565b811461256d57600080fd5b50565b60008135905061257f81612559565b92915050565b6000806040838503121561259c5761259b6124ec565b5b60006125aa8582860161253a565b92505060206125bb85828601612570565b9150509250929050565b6125ce81612511565b82525050565b60006020820190506125e960008301846125c5565b92915050565b600080600060608486031215612608576126076124ec565b5b60006126168682870161253a565b935050602061262786828701612570565b925050604061263886828701612570565b9150509250925092565b61264b8161254f565b82525050565b60006020820190506126666000830184612642565b92915050565b600060208284031215612682576126816124ec565b5b60006126908482850161253a565b91505092915050565b6000806000606084860312156126b2576126b16124ec565b5b60006126c086828701612570565b93505060206126d186828701612570565b92505060406126e28682870161253a565b9150509250925092565b60006126f7826124f1565b9050919050565b612707816126ec565b82525050565b61271681612511565b82525050565b6127258161254f565b82525050565b60a08201600082015161274160008501826126fe565b506020820151612754602085018261270d565b506040820151612767604085018261271c565b50606082015161277a606085018261271c565b50608082015161278d608085018261271c565b50505050565b600060a0820190506127a8600083018461272b565b92915050565b6000815190506127bd81612559565b92915050565b6000602082840312156127d9576127d86124ec565b5b60006127e7848285016127ae565b91505092915050565b600082825260208201905092915050565b7f56656e646f7220636f6e747261637420686173206e6f7420656e6f756768207460008201527f6f6b656e7320696e206974732062616c616e6365000000000000000000000000602082015250565b600061285d6034836127f0565b915061286882612801565b604082019050919050565b6000602082019050818103600083015261288c81612850565b9050919050565b7f4e6f20746f6b656e7320617661696c61626c6500000000000000000000000000600082015250565b60006128c96013836127f0565b91506128d482612893565b602082019050919050565b600060208201905081810360008301526128f8816128bc565b9050919050565b7f4e487b7100000000000000000000000000000000000000000000000000000000600052603260045260246000fd5b7f4e487b7100000000000000000000000000000000000000000000000000000000600052601160045260246000fd5b60006129688261254f565b91506129738361254f565b9250828210156129865761298561292e565b5b828203905092915050565b600061299c8261254f565b91506129a78361254f565b9250827fffffffffffffffffffffffffffffffffffffffffffffffffffffffffffffffff038211156129dc576129db61292e565b5b828201905092915050565b6000819050919050565b60006129fc826129e7565b9150612a07836129e7565b9250827f800000000000000000000000000000000000000000000000000000000000000001821260008412151615612a4257612a4161292e565b5b827f7fffffffffffffffffffffffffffffffffffffffffffffffffffffffffffffff018213600084121615612a7a57612a7961292e565b5b828203905092915050565b6000604082019050612a9a60008301856125c5565b612aa76020830184612642565b9392505050565b60008115159050919050565b612ac381612aae565b8114612ace57600080fd5b50565b600081519050612ae081612aba565b92915050565b600060208284031215612afc57612afb6124ec565b5b6000612b0a84828501612ad1565b91505092915050565b7f4661696c656420746f2072657475726e20746f6b656e20746f2073656c6c6572600082015250565b6000612b496020836127f0565b9150612b5482612b13565b602082019050919050565b60006020820190508181036000830152612b7881612b3c565b9050919050565b7f4f776e61626c653a2063616c6c6572206973206e6f7420746865206f776e6572600082015250565b6000612bb56020836127f0565b9150612bc082612b7f565b602082019050919050565b60006020820190508181036000830152612be481612ba8565b9050919050565b7f4f776e657220686173206e6f742062616c616e636520746f207769746864726160008201527f7700000000000000000000000000000000000000000000000000000000000000602082015250565b6000612c476021836127f0565b9150612c5282612beb565b604082019050919050565b60006020820190508181036000830152612c7681612c3a565b9050919050565b600081905092915050565b50565b6000612c98600083612c7d565b9150612ca382612c88565b600082019050919050565b6000612cb982612c8b565b9150819050919050565b7f4661696c656420746f2073656e6420757365722062616c616e6365206261636b60008201527f20746f20746865206f776e657200000000000000000000000000000000000000602082015250565b6000612d1f602d836127f0565b9150612d2a82612cc3565b604082019050919050565b60006020820190508181036000830152612d4e81612d12565b9050919050565b7f53656e642045544820746f2062757920736f6d6520746f6b656e730000000000600082015250565b6000612d8b601b836127f0565b9150612d9682612d55565b602082019050919050565b60006020820190508181036000830152612dba81612d7e565b9050919050565b7f5072696365206d69736d61746368000000000000000000000000000000000000600082015250565b6000612df7600e836127f0565b9150612e0282612dc1565b602082019050919050565b60006020820190508181036000830152612e2681612dea565b9050919050565b6000612e388261254f565b9150612e438361254f565b9250817fffffffffffffffffffffffffffffffffffffffffffffffffffffffffffffffff0483118215151615612e7c57612e7b61292e565b5b828202905092915050565b7f4e487b7100000000000000000000000000000000000000000000000000000000600052601260045260246000fd5b6000612ec18261254f565b9150612ecc8361254f565b925082612edc57612edb612e87565b5b828204905092915050565b7f4661696c656420746f207472616e7366657220746f6b656e20746f2075736572600082015250565b6000612f1d6020836127f0565b9150612f2882612ee7565b602082019050919050565b60006020820190508181036000830152612f4c81612f10565b9050919050565b6000606082019050612f6860008301866125c5565b612f756020830185612642565b612f826040830184612642565b949350505050565b7f4f776e61626c653a206e6577206f776e657220697320746865207a65726f206160008201527f6464726573730000000000000000000000000000000000000000000000000000602082015250565b6000612fe66026836127f0565b9150612ff182612f8a565b604082019050919050565b6000602082019050818103600083015261301581612fd9565b9050919050565b600060608201905061303160008301866125c5565b61303e60208301856125c5565b61304b6040830184612642565b949350505050565b600061305e826129e7565b9150613069836129e7565b9250817f7fffffffffffffffffffffffffffffffffffffffffffffffffffffffffffffff038313600083121516156130a4576130a361292e565b5b817f80000000000000000000000000000000000000000000000000000000000000000383126000831216156130dc576130db61292e565b5b828201905092915050565b60006130f2826129e7565b91507f7fffffffffffffffffffffffffffffffffffffffffffffffffffffffffffffff82036131245761312361292e565b5b600182019050919050565b600061313a8261254f565b91507fffffffffffffffffffffffffffffffffffffffffffffffffffffffffffffffff820361316c5761316b61292e565b5b60018201905091905056fea2646970667358221220ee79d81d3bd0562e1b4f0ff2689bd513932785d3435686a864d20c0c2790c17a64736f6c634300080d0033",
  "immutableReferences": {},
  "source": "//SPDX-License-Identifier: Unlicensed for now\npragma solidity ^0.8.4;\n\nimport \"./NewToken.sol\";\n\n// Learn more about the ERC20 implementation\n// on OpenZeppelin docs: https://docs.openzeppelin.com/contracts/4.x/api/access#Ownable\nimport \"@openzeppelin/contracts/access/Ownable.sol\";\ncontract BuySell is Ownable {\n\n    struct sellingInstance {\n        address payable seller;\n        address tokenAddress;\n        uint256 amountOfETH;\n        uint256 id;\n        uint amountToSell;\n\n    }\n\n    struct variables{\n        int firstCheapestIndex;\n        int nextCheapestIndex;\n        bool sent;\n        uint price;\n        int remainingToBuy;\n\n    }\n\n    sellingInstance [] sellingInstances;\n    uint256 idCount=0;\n\n\n\n    // Event that log buy operation\n    event BuyTokens(address buyer, uint256 amountOfETH, uint256 amountOfTokens);\n\n\n    function setPrice(uint256 amountOfETH, uint256 tokenAmount, address tokenAddress) public returns (sellingInstance memory instance){\n        ERC20 newToken = ERC20(tokenAddress);\n        newToken.transferFrom(msg.sender,address (this),tokenAmount);\n        sellingInstance memory s = sellingInstance(payable(msg.sender), tokenAddress, amountOfETH, idCount,tokenAmount);\n        sellingInstances.push(s);\n        idCount= idCount+1;\n        return s;\n\n    }\n    function injectionSort(sellingInstance[] memory arr) private pure returns(sellingInstance[] memory array) {\n        //sellingInstance[] memory array= arr;\n        sellingInstance memory key;\n        int j;\n        for (int i =0; i<int(arr.length); i++){\n            key = arr[uint(i)];\n            j = i - 1;\n\n            // Move elements of arr[0..i-1],\n            // that are greater than key, to one\n            // position ahead of their\n            // current position\n            while (j >= 0 && arr[uint(j)].amountOfETH > key.amountOfETH)\n            {\n                arr[uint(j + 1)] = arr[uint(j)];\n                j = j - 1;\n            }\n            arr[uint(j + 1)] = key;\n        }\n        return arr;\n    }\n\n    function getNextCheapest(address tokenAddress, sellingInstance memory previousCheapest, sellingInstance[] memory sortedArray) private pure returns (int instanceIndex){\n\n\n        for (uint j = 0; j < sortedArray.length; j++) {\n            if (sortedArray[j].tokenAddress == tokenAddress && sortedArray[j].amountOfETH> previousCheapest.amountOfETH) {\n                return int(sortedArray[j].id); //changed from returning j\n            }\n        }\n        return -1;\n\n    }\n    function getFirstCheapest(address tokenAddress, sellingInstance[] memory sortedArray) private pure returns(int instanceIndex){\n        for (uint j = 0; j < sortedArray.length; j++) {\n            if (sortedArray[j].tokenAddress == tokenAddress) {\n                return int(sortedArray[j].id); //changed from returning j\n            }\n        }\n        return -1;\n    }\n\n    function getNextCheapestForSeller(address tokenAddress, sellingInstance memory previousCheapest, sellingInstance[] memory sortedArray, address sellerAddress) private pure returns (int instanceIndex){\n\n\n        for (uint j = 0; j < sortedArray.length; j++) {\n            if (sortedArray[j].tokenAddress == tokenAddress && sortedArray[j].amountOfETH> previousCheapest.amountOfETH && sortedArray[j].seller == sellerAddress) {\n                return int(sortedArray[j].id); //changed from returning j\n            }\n        }\n        return -1;\n\n    }\n    function getFirstCheapestForSeller(address tokenAddress, sellingInstance[] memory sortedArray, address sellerAddress) private pure returns(int instanceIndex){\n        for (uint j = 0; j < sortedArray.length; j++) {\n            if (sortedArray[j].tokenAddress == tokenAddress && sortedArray[j].seller == sellerAddress) {\n                return int(sortedArray[j].id); //changed from returning j\n            }\n        }\n        return -1;\n    }\n\n    function getPriceForTokens(address tokenAddress, uint amount) public view returns(uint pri){\n        sellingInstance[] memory sortedArray = injectionSort(sellingInstances);\n        int firstCheapestIndex = getFirstCheapest(tokenAddress, sortedArray);\n\n        int nextCheapestIndex;\n        sellingInstance memory nextCheapest;\n\n\n        uint remainingToBuy =amount;\n        uint price;\n\n        if(firstCheapestIndex == -1){\n            return 0;\n        }\n        sellingInstance memory firstCheapest= sellingInstances[uint256(firstCheapestIndex)];\n\n        if(firstCheapest.amountToSell>=amount){\n            price= (amount * firstCheapest.amountOfETH) / (10 ** 18);\n            return price;\n        }else{\n            price= (firstCheapest.amountToSell * firstCheapest.amountOfETH) / (10 ** 18);\n            remainingToBuy= remainingToBuy - firstCheapest.amountToSell;\n            nextCheapestIndex = getNextCheapest(tokenAddress,firstCheapest, sortedArray);\n            //emit event not enough tokens or return struct instead\n        }\n\n        while(remainingToBuy >0 && nextCheapestIndex!=-1){\n            nextCheapest=sellingInstances[uint256(nextCheapestIndex)];\n            if(nextCheapest.amountToSell>=remainingToBuy){\n                price= price + ((remainingToBuy * nextCheapest.amountOfETH) / (10 ** 18));\n                return price;\n            }else{\n                price= price + ((nextCheapest.amountToSell * nextCheapest.amountOfETH) / (10 ** 18));\n                remainingToBuy= remainingToBuy - firstCheapest.amountToSell;\n                nextCheapestIndex = getNextCheapest(tokenAddress,nextCheapest, sortedArray);\n            }\n        }\n        return price;\n    }\n\n    function find(uint id) private view returns(int realIndex){\n        for (int i =0; i<int(sellingInstances.length); i++){\n            if(sellingInstances[uint(i)].id==id){\n                return i;\n            }\n        }\n        return -1;\n    }\n\n    /**\n    * @notice Allow users to buy token for ETH\n  */\n\n    function buyTokens(address tokenAddress, uint promisedPrice, uint amount) public payable {\n        uint actualPrice = getPriceForTokens(tokenAddress,amount);\n\n\n        //return actualPrice;\n        require(msg.value >= actualPrice, \"Send ETH to buy some tokens\");\n\n        ERC20 newToken = ERC20(tokenAddress);\n\n\n        // check if the Vendor Contract has enough amount of tokens for the transaction\n        uint256 vendorBalance = newToken.balanceOf(address(this));\n        require(vendorBalance >= amount, \"Vendor contract has not enough tokens in its balance\");\n        require(actualPrice == promisedPrice, \"Price mismatch\");\n\n        // Transfer token to the msg.sender\n\n\n        sellingInstance [] memory sortedArray = injectionSort(sellingInstances);\n\n        //int firstCheapestIndex = int(getFirstCheapest(tokenAddress, sortedArray));\n\n        //int nextCheapestIndex;\n        sellingInstance memory nextCheapest;\n\n        //uint remainingToBuy =amount;\n        //uint price=0;\n\n        variables memory vars = variables(int(getFirstCheapest(tokenAddress, sortedArray)), -1, false, 0, int(amount));\n        (vars.sent) = newToken.transfer(msg.sender, amount);\n        require(vars.firstCheapestIndex != -1, \"No tokens available\");\n\n        sellingInstance memory firstCheapest= sortedArray[uint(vars.firstCheapestIndex)];\n        int firstCheapestRealIndex = find(firstCheapest.id);\n\n        if(firstCheapest.amountToSell>=amount){\n            sellingInstances[uint(firstCheapestRealIndex)].amountToSell = sellingInstances[uint(firstCheapestRealIndex)].amountToSell -amount;\n            sellingInstances[uint(firstCheapestRealIndex)].seller.transfer((amount * firstCheapest.amountOfETH) / (10 ** 18));\n            vars.remainingToBuy = 0;\n        }else{\n            vars.price= (firstCheapest.amountToSell * firstCheapest.amountOfETH) / (10 ** 18);\n            sellingInstances[uint(firstCheapestRealIndex)].seller.transfer(vars.price);\n\n            vars.remainingToBuy = vars.remainingToBuy- int(sellingInstances[uint(firstCheapestRealIndex)].amountToSell);\n            sellingInstances[uint(firstCheapestRealIndex)].amountToSell=0;\n            vars.nextCheapestIndex = getNextCheapest(tokenAddress,firstCheapest, sortedArray);\n\n        }\n        while(vars.remainingToBuy >0 && vars.nextCheapestIndex!=-1){\n            nextCheapest=sellingInstances[uint(vars.nextCheapestIndex)];\n            int nextCheapestRealIndex = find(nextCheapest.id);\n            if(int(nextCheapest.amountToSell)>=vars.remainingToBuy){\n\n                sellingInstances[uint(nextCheapestRealIndex)].amountToSell = sellingInstances[uint(nextCheapestRealIndex)].amountToSell -uint(vars.remainingToBuy);\n                sellingInstances[uint(nextCheapestRealIndex)].seller.transfer((uint(vars.remainingToBuy) * nextCheapest.amountOfETH) / (10 ** 18));\n                vars.remainingToBuy = 0;\n\n\n            }else{\n                vars.price= (nextCheapest.amountToSell * nextCheapest.amountOfETH) / (10 ** 18);\n                sellingInstances[uint(nextCheapestRealIndex)].seller.transfer(vars.price);\n                vars.remainingToBuy = vars.remainingToBuy- int(sellingInstances[uint(nextCheapestRealIndex)].amountToSell);\n\n                sellingInstances[uint(nextCheapestRealIndex)].amountToSell=0;\n                vars.nextCheapestIndex = getNextCheapest(tokenAddress, nextCheapest, sortedArray);\n            }\n        }\n\n        require(vars.sent, \"Failed to transfer token to user\");\n\n        // emit the event\n        emit BuyTokens(msg.sender, msg.value, amount);\n\n\n    }\n\n\n    /**\n    * @notice Allow seller to cancel sale of tokens\n  */\n    function cancelSale(address tokenAddress, uint amount) public {\n        ERC20 newToken = ERC20(tokenAddress);\n\n\n        // check if the Vendor Contract has enough amount of tokens for the transaction\n        uint256 vendorBalance = newToken.balanceOf(address(this));\n        require(vendorBalance >= amount, \"Vendor contract has not enough tokens in its balance\");\n\n\n        // Transfer token to the msg.sender\n\n\n        sellingInstance [] memory sortedArray = injectionSort(sellingInstances);\n\n\n        sellingInstance memory nextCheapest;\n\n\n\n        variables memory vars = variables(int(getFirstCheapestForSeller(tokenAddress, sortedArray, msg.sender)), -1, false, 0, int(amount));\n        //(vars.sent) = newToken.transfer(msg.sender, amount);\n        require(vars.firstCheapestIndex != -1, \"No tokens available\");\n        uint amountToCancel = 0;\n\n        sellingInstance memory firstCheapest= sortedArray[uint(vars.firstCheapestIndex)];\n        int firstCheapestRealIndex = find(firstCheapest.id);\n\n        if(firstCheapest.amountToSell>=amount){\n            sellingInstances[uint(firstCheapestRealIndex)].amountToSell = sellingInstances[uint(firstCheapestRealIndex)].amountToSell -amount;\n            amountToCancel = amountToCancel + amount;\n            vars.remainingToBuy = 0;\n        }else{\n            //vars.price= (amount * firstCheapest.amountOfETH) / (10 ** 18);\n            //sellingInstances[uint(firstCheapestRealIndex)].seller.transfer(vars.price);\n            vars.remainingToBuy = vars.remainingToBuy- int(sellingInstances[uint(firstCheapestRealIndex)].amountToSell);\n            amountToCancel = amountToCancel + sellingInstances[uint(firstCheapestRealIndex)].amountToSell;\n            sellingInstances[uint(firstCheapestRealIndex)].amountToSell=0;\n            vars.nextCheapestIndex = getNextCheapestForSeller(tokenAddress,firstCheapest, sortedArray, msg.sender);\n        }\n        while(vars.remainingToBuy > 0 && vars.nextCheapestIndex!=-1){\n            nextCheapest=sellingInstances[uint(vars.nextCheapestIndex)];\n            int nextCheapestRealIndex = find(nextCheapest.id);\n            if(nextCheapest.amountToSell>=uint(vars.remainingToBuy)){\n                sellingInstances[uint(nextCheapestRealIndex)].amountToSell = sellingInstances[uint(nextCheapestRealIndex)].amountToSell -uint(vars.remainingToBuy);\n                //sellingInstances[uint(nextCheapestRealIndex)].seller.transfer((amount * nextCheapest.amountOfETH) / (10 ** 18));\n                amountToCancel = amountToCancel + uint(vars.remainingToBuy);\n                vars.remainingToBuy = 0;\n            }else{\n                //vars.price= (amount * firstCheapest.amountOfETH) / (10 ** 18);\n                //sellingInstances[uint(nextCheapestRealIndex)].seller.transfer(vars.price);\n                amountToCancel = amountToCancel + sellingInstances[uint(nextCheapestRealIndex)].amountToSell;\n                vars.remainingToBuy = vars.remainingToBuy - int(sellingInstances[uint(nextCheapestRealIndex)].amountToSell);\n                sellingInstances[uint(nextCheapestRealIndex)].amountToSell=0;\n                vars.nextCheapestIndex = getNextCheapestForSeller(tokenAddress,firstCheapest, sortedArray, msg.sender);\n            }\n        }\n        (vars.sent) = newToken.transfer(msg.sender, amountToCancel);\n        require(vars.sent, \"Failed to return token to seller\");\n        //maybe emit an event\n    }\n\n\n    /**\n    * @notice Allow the owner of the contract to withdraw ETH\n  */\n    function withdraw() public onlyOwner {\n        uint256 ownerBalance = address(this).balance;\n        require(ownerBalance > 0, \"Owner has not balance to withdraw\");\n\n        (bool sent,) = msg.sender.call{value : address(this).balance}(\"\");\n        require(sent, \"Failed to send user balance back to the owner\");\n    }\n}\n",
  "sourcePath": "/Users/Gloria/IdeaProjects/dstate-be/solidity/contracts/BuySell.sol",
  "compiler": {
    "name": "solc",
    "version": "0.8.13+commit.abaa5c0e.Emscripten.clang"
  },
  "schemaVersion": "3.4.7",
  "updatedAt": "2022-05-21T16:44:34.820Z",
  "devdoc": {
    "kind": "dev",
    "methods": {
      "owner()": {
        "details": "Returns the address of the current owner."
      },
      "renounceOwnership()": {
        "details": "Leaves the contract without owner. It will not be possible to call `onlyOwner` functions anymore. Can only be called by the current owner. NOTE: Renouncing ownership will leave the contract without an owner, thereby removing any functionality that is only available to the owner."
      },
      "transferOwnership(address)": {
        "details": "Transfers ownership of the contract to a new account (`newOwner`). Can only be called by the current owner."
      }
    },
    "version": 1
  },
  "userdoc": {
    "kind": "user",
    "methods": {
      "buyTokens(address,uint256,uint256)": {
        "notice": "Allow users to buy token for ETH"
      },
      "cancelSale(address,uint256)": {
        "notice": "Allow seller to cancel sale of tokens"
      },
      "withdraw()": {
        "notice": "Allow the owner of the contract to withdraw ETH"
      }
    },
    "version": 1
  }
}