{
  "contractName": "BuySell",
  "abi": [
    {
      "anonymous": false,
      "inputs": [
        {
          "indexed": false,
          "internalType": "address",
          "name": "buyer",
          "type": "address"
        },
        {
          "indexed": false,
          "internalType": "uint256",
          "name": "amountOfETH",
          "type": "uint256"
        },
        {
          "indexed": false,
          "internalType": "uint256",
          "name": "amountOfTokens",
          "type": "uint256"
        }
      ],
      "name": "BuyTokens",
      "type": "event"
    },
    {
      "anonymous": false,
      "inputs": [
        {
          "indexed": true,
          "internalType": "address",
          "name": "previousOwner",
          "type": "address"
        },
        {
          "indexed": true,
          "internalType": "address",
          "name": "newOwner",
          "type": "address"
        }
      ],
      "name": "OwnershipTransferred",
      "type": "event"
    },
    {
      "inputs": [],
      "name": "owner",
      "outputs": [
        {
          "internalType": "address",
          "name": "",
          "type": "address"
        }
      ],
      "stateMutability": "view",
      "type": "function"
    },
    {
      "inputs": [],
      "name": "renounceOwnership",
      "outputs": [],
      "stateMutability": "nonpayable",
      "type": "function"
    },
    {
      "inputs": [
        {
          "internalType": "address",
          "name": "newOwner",
          "type": "address"
        }
      ],
      "name": "transferOwnership",
      "outputs": [],
      "stateMutability": "nonpayable",
      "type": "function"
    },
    {
      "inputs": [
        {
          "internalType": "uint256",
          "name": "amountOfETH",
          "type": "uint256"
        },
        {
          "internalType": "uint256",
          "name": "tokenAmount",
          "type": "uint256"
        },
        {
          "internalType": "address",
          "name": "tokenAddress",
          "type": "address"
        }
      ],
      "name": "setPrice",
      "outputs": [
        {
          "components": [
            {
              "internalType": "address payable",
              "name": "seller",
              "type": "address"
            },
            {
              "internalType": "address",
              "name": "tokenAddress",
              "type": "address"
            },
            {
              "internalType": "uint256",
              "name": "amountOfETH",
              "type": "uint256"
            },
            {
              "internalType": "uint256",
              "name": "id",
              "type": "uint256"
            },
            {
              "internalType": "uint256",
              "name": "amountToSell",
              "type": "uint256"
            }
          ],
          "internalType": "struct BuySell.sellingInstance",
          "name": "instance",
          "type": "tuple"
        }
      ],
      "stateMutability": "nonpayable",
      "type": "function"
    },
    {
      "inputs": [
        {
          "internalType": "address",
          "name": "tokenAddress",
          "type": "address"
        },
        {
          "internalType": "uint256",
          "name": "amount",
          "type": "uint256"
        }
      ],
      "name": "getPriceForTokens",
      "outputs": [
        {
          "internalType": "uint256",
          "name": "pri",
          "type": "uint256"
        }
      ],
      "stateMutability": "view",
      "type": "function"
    },
    {
      "inputs": [
        {
          "internalType": "address",
          "name": "tokenAddress",
          "type": "address"
        },
        {
          "internalType": "uint256",
          "name": "promisedPrice",
          "type": "uint256"
        },
        {
          "internalType": "uint256",
          "name": "amount",
          "type": "uint256"
        }
      ],
      "name": "buyTokens",
      "outputs": [],
      "stateMutability": "payable",
      "type": "function"
    },
    {
      "inputs": [
        {
          "internalType": "address",
          "name": "tokenAddress",
          "type": "address"
        },
        {
          "internalType": "uint256",
          "name": "amount",
          "type": "uint256"
        }
      ],
      "name": "cancelSale",
      "outputs": [],
      "stateMutability": "nonpayable",
      "type": "function"
    },
    {
      "inputs": [],
      "name": "withdraw",
      "outputs": [],
      "stateMutability": "nonpayable",
      "type": "function"
    }
  ],
  "bytecode": "0x608060405260006002553480156200001657600080fd5b50620000376200002b6200003d60201b60201c565b6200004560201b60201c565b62000109565b600033905090565b60008060009054906101000a900473ffffffffffffffffffffffffffffffffffffffff169050816000806101000a81548173ffffffffffffffffffffffffffffffffffffffff021916908373ffffffffffffffffffffffffffffffffffffffff1602179055508173ffffffffffffffffffffffffffffffffffffffff168173ffffffffffffffffffffffffffffffffffffffff167f8be0079c531659141344cd1fd0a4f28419497f9722a3daafe3b4186f6b6457e060405160405180910390a35050565b612f8580620001196000396000f3fe60806040526004361061007b5760003560e01c8063d2395dcd1161004e578063d2395dcd14610102578063e11a0bd81461011e578063f2fde38b1461015b578063f83fcdea146101845761007b565b806316f3a95b146100805780633ccfd60b146100a9578063715018a6146100c05780638da5cb5b146100d7575b600080fd5b34801561008c57600080fd5b506100a760048036038101906100a2919061235d565b6101c1565b005b3480156100b557600080fd5b506100be610946565b005b3480156100cc57600080fd5b506100d5610aba565b005b3480156100e357600080fd5b506100ec610b42565b6040516100f991906123ac565b60405180910390f35b61011c600480360381019061011791906123c7565b610b6b565b005b34801561012a57600080fd5b506101456004803603810190610140919061235d565b611615565b6040516101529190612429565b60405180910390f35b34801561016757600080fd5b50610182600480360381019061017d9190612444565b611945565b005b34801561019057600080fd5b506101ab60048036038101906101a69190612471565b611a3c565b6040516101b8919061256b565b60405180910390f35b600082905060008173ffffffffffffffffffffffffffffffffffffffff166370a08231306040518263ffffffff1660e01b815260040161020191906123ac565b602060405180830381865afa15801561021e573d6000803e3d6000fd5b505050506040513d601f19601f82011682018060405250810190610242919061259b565b905082811015610287576040517f08c379a000000000000000000000000000000000000000000000000000000000815260040161027e9061264b565b60405180910390fd5b60006103b36001805480602002602001604051908101604052809291908181526020016000905b828210156103aa57838290600052602060002090600502016040518060a00160405290816000820160009054906101000a900473ffffffffffffffffffffffffffffffffffffffff1673ffffffffffffffffffffffffffffffffffffffff1673ffffffffffffffffffffffffffffffffffffffff1681526020016001820160009054906101000a900473ffffffffffffffffffffffffffffffffffffffff1673ffffffffffffffffffffffffffffffffffffffff1673ffffffffffffffffffffffffffffffffffffffff1681526020016002820154815260200160038201548152602001600482015481525050815260200190600101906102ae565b50505050611c1e565b90506103bd612269565b60006040518060a001604052806103d5898633611d3f565b81526020017fffffffffffffffffffffffffffffffffffffffffffffffffffffffffffffffff8152602001600015158152602001600081526020018781525090507fffffffffffffffffffffffffffffffffffffffffffffffffffffffffffffffff81600001510361047c576040517f08c379a0000000000000000000000000000000000000000000000000000000008152600401610473906126b7565b60405180910390fd5b60008084836000015181518110610496576104956126d7565b5b602002602001015190506000816060015190508882608001511061052c5788600182815481106104c9576104c86126d7565b5b9060005260206000209060050201600401546104e59190612735565b600182815481106104f9576104f86126d7565b5b906000526020600020906005020160040181905550888361051a9190612769565b925060008460800181815250506105de565b600181815481106105405761053f6126d7565b5b906000526020600020906005020160040154846080015161056191906127c9565b8460800181815250506001818154811061057e5761057d6126d7565b5b9060005260206000209060050201600401548361059b9190612769565b92506000600182815481106105b3576105b26126d7565b5b9060005260206000209060050201600401819055506105d48a838833611e3f565b8460200181815250505b5b6000846080015113801561061757507fffffffffffffffffffffffffffffffffffffffffffffffffffffffffffffffff846020015114155b15610869576001846020015181548110610634576106336126d7565b5b90600052602060002090600502016040518060a00160405290816000820160009054906101000a900473ffffffffffffffffffffffffffffffffffffffff1673ffffffffffffffffffffffffffffffffffffffff1673ffffffffffffffffffffffffffffffffffffffff1681526020016001820160009054906101000a900473ffffffffffffffffffffffffffffffffffffffff1673ffffffffffffffffffffffffffffffffffffffff1673ffffffffffffffffffffffffffffffffffffffff1681526020016002820154815260200160038201548152602001600482015481525050945060008560600151905084608001518660800151106107b15784608001516001828154811061074a576107496126d7565b5b9060005260206000209060050201600401546107669190612735565b6001828154811061077a576107796126d7565b5b90600052602060002090600502016004018190555084608001518461079f9190612769565b93506000856080018181525050610863565b600181815481106107c5576107c46126d7565b5b906000526020600020906005020160040154846107e29190612769565b9350600181815481106107f8576107f76126d7565b5b906000526020600020906005020160040154856080015161081991906127c9565b856080018181525050600060018281548110610838576108376126d7565b5b9060005260206000209060050201600401819055506108598b848933611e3f565b8560200181815250505b506105df565b8773ffffffffffffffffffffffffffffffffffffffff1663a9059cbb33856040518363ffffffff1660e01b81526004016108a492919061285d565b6020604051808303816000875af11580156108c3573d6000803e3d6000fd5b505050506040513d601f19601f820116820180604052508101906108e791906128be565b846040019015159081151581525050836040015161093a576040517f08c379a000000000000000000000000000000000000000000000000000000000815260040161093190612937565b60405180910390fd5b50505050505050505050565b61094e611f86565b73ffffffffffffffffffffffffffffffffffffffff1661096c610b42565b73ffffffffffffffffffffffffffffffffffffffff16146109c2576040517f08c379a00000000000000000000000000000000000000000000000000000000081526004016109b9906129a3565b60405180910390fd5b600047905060008111610a0a576040517f08c379a0000000000000000000000000000000000000000000000000000000008152600401610a0190612a35565b60405180910390fd5b60003373ffffffffffffffffffffffffffffffffffffffff1647604051610a3090612a86565b60006040518083038185875af1925050503d8060008114610a6d576040519150601f19603f3d011682016040523d82523d6000602084013e610a72565b606091505b5050905080610ab6576040517f08c379a0000000000000000000000000000000000000000000000000000000008152600401610aad90612b0d565b60405180910390fd5b5050565b610ac2611f86565b73ffffffffffffffffffffffffffffffffffffffff16610ae0610b42565b73ffffffffffffffffffffffffffffffffffffffff1614610b36576040517f08c379a0000000000000000000000000000000000000000000000000000000008152600401610b2d906129a3565b60405180910390fd5b610b406000611f8e565b565b60008060009054906101000a900473ffffffffffffffffffffffffffffffffffffffff16905090565b6000610b778483611615565b905080341015610bbc576040517f08c379a0000000000000000000000000000000000000000000000000000000008152600401610bb390612b79565b60405180910390fd5b600084905060008173ffffffffffffffffffffffffffffffffffffffff166370a08231306040518263ffffffff1660e01b8152600401610bfc91906123ac565b602060405180830381865afa158015610c19573d6000803e3d6000fd5b505050506040513d601f19601f82011682018060405250810190610c3d919061259b565b905083811015610c82576040517f08c379a0000000000000000000000000000000000000000000000000000000008152600401610c799061264b565b60405180910390fd5b848314610cc4576040517f08c379a0000000000000000000000000000000000000000000000000000000008152600401610cbb90612be5565b60405180910390fd5b6000610df06001805480602002602001604051908101604052809291908181526020016000905b82821015610de757838290600052602060002090600502016040518060a00160405290816000820160009054906101000a900473ffffffffffffffffffffffffffffffffffffffff1673ffffffffffffffffffffffffffffffffffffffff1673ffffffffffffffffffffffffffffffffffffffff1681526020016001820160009054906101000a900473ffffffffffffffffffffffffffffffffffffffff1673ffffffffffffffffffffffffffffffffffffffff1673ffffffffffffffffffffffffffffffffffffffff168152602001600282015481526020016003820154815260200160048201548152505081526020019060010190610ceb565b50505050611c1e565b9050610dfa612269565b60006040518060a00160405280610e118b86612052565b81526020017fffffffffffffffffffffffffffffffffffffffffffffffffffffffffffffffff8152602001600015158152602001600081526020018881525090508473ffffffffffffffffffffffffffffffffffffffff1663a9059cbb33896040518363ffffffff1660e01b8152600401610e8d92919061285d565b6020604051808303816000875af1158015610eac573d6000803e3d6000fd5b505050506040513d601f19601f82011682018060405250810190610ed091906128be565b8160400190151590811515815250507fffffffffffffffffffffffffffffffffffffffffffffffffffffffffffffffff816000015103610f45576040517f08c379a0000000000000000000000000000000000000000000000000000000008152600401610f3c906126b7565b60405180910390fd5b600083826000015181518110610f5e57610f5d6126d7565b5b6020026020010151905060008160600151905088826080015110611094578860018281548110610f9157610f906126d7565b5b906000526020600020906005020160040154610fad9190612735565b60018281548110610fc157610fc06126d7565b5b90600052602060002090600502016004018190555060018181548110610fea57610fe96126d7565b5b906000526020600020906005020160000160009054906101000a900473ffffffffffffffffffffffffffffffffffffffff1673ffffffffffffffffffffffffffffffffffffffff166108fc670de0b6b3a764000084604001518c61104e9190612c05565b6110589190612c8e565b9081150290604051600060405180830381858888f19350505050158015611083573d6000803e3d6000fd5b5060008360800181815250506111d2565b670de0b6b3a7640000826040015183608001516110b19190612c05565b6110bb9190612c8e565b836060018181525050600181815481106110d8576110d76126d7565b5b906000526020600020906005020160000160009054906101000a900473ffffffffffffffffffffffffffffffffffffffff1673ffffffffffffffffffffffffffffffffffffffff166108fc84606001519081150290604051600060405180830381858888f19350505050158015611153573d6000803e3d6000fd5b5060018181548110611168576111676126d7565b5b906000526020600020906005020160040154836080015161118991906127c9565b8360800181815250506000600182815481106111a8576111a76126d7565b5b9060005260206000209060050201600401819055506111c88b83876120fb565b8360200181815250505b5b6000836080015113801561120b57507fffffffffffffffffffffffffffffffffffffffffffffffffffffffffffffffff836020015114155b15611589576001836020015181548110611228576112276126d7565b5b90600052602060002090600502016040518060a00160405290816000820160009054906101000a900473ffffffffffffffffffffffffffffffffffffffff1673ffffffffffffffffffffffffffffffffffffffff1673ffffffffffffffffffffffffffffffffffffffff1681526020016001820160009054906101000a900473ffffffffffffffffffffffffffffffffffffffff1673ffffffffffffffffffffffffffffffffffffffff1673ffffffffffffffffffffffffffffffffffffffff1681526020016002820154815260200160038201548152602001600482015481525050935060008460600151905083608001518560800151126114455783608001516001828154811061133e5761133d6126d7565b5b90600052602060002090600502016004015461135a9190612735565b6001828154811061136e5761136d6126d7565b5b90600052602060002090600502016004018190555060018181548110611397576113966126d7565b5b906000526020600020906005020160000160009054906101000a900473ffffffffffffffffffffffffffffffffffffffff1673ffffffffffffffffffffffffffffffffffffffff166108fc670de0b6b3a7640000876040015187608001516113ff9190612c05565b6114099190612c8e565b9081150290604051600060405180830381858888f19350505050158015611434573d6000803e3d6000fd5b506000846080018181525050611583565b670de0b6b3a7640000856040015186608001516114629190612c05565b61146c9190612c8e565b84606001818152505060018181548110611489576114886126d7565b5b906000526020600020906005020160000160009054906101000a900473ffffffffffffffffffffffffffffffffffffffff1673ffffffffffffffffffffffffffffffffffffffff166108fc85606001519081150290604051600060405180830381858888f19350505050158015611504573d6000803e3d6000fd5b5060018181548110611519576115186126d7565b5b906000526020600020906005020160040154846080015161153a91906127c9565b846080018181525050600060018281548110611559576115586126d7565b5b9060005260206000209060050201600401819055506115798c86886120fb565b8460200181815250505b506111d3565b82604001516115cd576040517f08c379a00000000000000000000000000000000000000000000000000000000081526004016115c490612d0b565b60405180910390fd5b7f0a37b72bb67eee30e09084cf386f8a17817c57f620c3ab95fb25d6a20356ec7733348b60405161160093929190612d2b565b60405180910390a15050505050505050505050565b6000806117426001805480602002602001604051908101604052809291908181526020016000905b8282101561173957838290600052602060002090600502016040518060a00160405290816000820160009054906101000a900473ffffffffffffffffffffffffffffffffffffffff1673ffffffffffffffffffffffffffffffffffffffff1673ffffffffffffffffffffffffffffffffffffffff1681526020016001820160009054906101000a900473ffffffffffffffffffffffffffffffffffffffff1673ffffffffffffffffffffffffffffffffffffffff1673ffffffffffffffffffffffffffffffffffffffff16815260200160028201548152602001600382015481526020016004820154815250508152602001906001019061163d565b50505050611c1e565b905060006117508583612052565b9050600061175c612269565b600086905060007fffffffffffffffffffffffffffffffffffffffffffffffffffffffffffffffff8503611799576000965050505050505061193f565b60008686815181106117ae576117ad6126d7565b5b60200260200101519050888160800151106117f757670de0b6b3a764000081604001518a6117dc9190612c05565b6117e69190612c8e565b91508197505050505050505061193f565b670de0b6b3a7640000816040015182608001516118149190612c05565b61181e9190612c8e565b91508060800151836118309190612735565b925061183d8a82896120fb565b94505b60008311801561187057507fffffffffffffffffffffffffffffffffffffffffffffffffffffffffffffffff8514155b1561193457868581518110611888576118876126d7565b5b60200260200101519350828460800151106118dc57670de0b6b3a76400008460400151846118b69190612c05565b6118c09190612c8e565b826118cb9190612769565b91508197505050505050505061193f565b670de0b6b3a7640000846040015185608001516118f99190612c05565b6119039190612c8e565b8261190e9190612769565b91508060800151836119209190612735565b925061192d8a85896120fb565b9450611840565b819750505050505050505b92915050565b61194d611f86565b73ffffffffffffffffffffffffffffffffffffffff1661196b610b42565b73ffffffffffffffffffffffffffffffffffffffff16146119c1576040517f08c379a00000000000000000000000000000000000000000000000000000000081526004016119b8906129a3565b60405180910390fd5b600073ffffffffffffffffffffffffffffffffffffffff168173ffffffffffffffffffffffffffffffffffffffff1603611a30576040517f08c379a0000000000000000000000000000000000000000000000000000000008152600401611a2790612dd4565b60405180910390fd5b611a3981611f8e565b50565b611a44612269565b60008290508073ffffffffffffffffffffffffffffffffffffffff166323b872dd3330876040518463ffffffff1660e01b8152600401611a8693929190612df4565b6020604051808303816000875af1158015611aa5573d6000803e3d6000fd5b505050506040513d601f19601f82011682018060405250810190611ac991906128be565b5060006040518060a001604052803373ffffffffffffffffffffffffffffffffffffffff1681526020018573ffffffffffffffffffffffffffffffffffffffff1681526020018781526020016002548152602001868152509050600181908060018154018082558091505060019003906000526020600020906005020160009091909190915060008201518160000160006101000a81548173ffffffffffffffffffffffffffffffffffffffff021916908373ffffffffffffffffffffffffffffffffffffffff16021790555060208201518160010160006101000a81548173ffffffffffffffffffffffffffffffffffffffff021916908373ffffffffffffffffffffffffffffffffffffffff16021790555060408201518160020155606082015181600301556080820151816004015550506001600254611c0c9190612769565b60028190555080925050509392505050565b6060611c28612269565b600080600090505b8451811215611d3457848181518110611c4c57611c4b6126d7565b5b60200260200101519250600181611c6391906127c9565b91505b60008212158015611c9857508260400151858381518110611c8a57611c896126d7565b5b602002602001015160400151115b15611cf657848281518110611cb057611caf6126d7565b5b602002602001015185600184611cc69190612e2b565b81518110611cd757611cd66126d7565b5b6020026020010181905250600182611cef91906127c9565b9150611c66565b8285600184611d059190612e2b565b81518110611d1657611d156126d7565b5b60200260200101819052508080611d2c90612ebf565b915050611c30565b508392505050919050565b600080600090505b8351811015611e13578473ffffffffffffffffffffffffffffffffffffffff16848281518110611d7a57611d796126d7565b5b60200260200101516020015173ffffffffffffffffffffffffffffffffffffffff16148015611df257508273ffffffffffffffffffffffffffffffffffffffff16848281518110611dce57611dcd6126d7565b5b60200260200101516000015173ffffffffffffffffffffffffffffffffffffffff16145b15611e005780915050611e38565b8080611e0b90612f07565b915050611d47565b507fffffffffffffffffffffffffffffffffffffffffffffffffffffffffffffffff90505b9392505050565b600080600090505b8351811015611f59578573ffffffffffffffffffffffffffffffffffffffff16848281518110611e7a57611e796126d7565b5b60200260200101516020015173ffffffffffffffffffffffffffffffffffffffff16148015611ecb57508460400151848281518110611ebc57611ebb6126d7565b5b60200260200101516040015110155b8015611f2057508273ffffffffffffffffffffffffffffffffffffffff16848281518110611efc57611efb6126d7565b5b60200260200101516000015173ffffffffffffffffffffffffffffffffffffffff16145b8015611f385750611f358486606001516121ec565b81135b15611f465780915050611f7e565b8080611f5190612f07565b915050611e47565b507fffffffffffffffffffffffffffffffffffffffffffffffffffffffffffffffff90505b949350505050565b600033905090565b60008060009054906101000a900473ffffffffffffffffffffffffffffffffffffffff169050816000806101000a81548173ffffffffffffffffffffffffffffffffffffffff021916908373ffffffffffffffffffffffffffffffffffffffff1602179055508173ffffffffffffffffffffffffffffffffffffffff168173ffffffffffffffffffffffffffffffffffffffff167f8be0079c531659141344cd1fd0a4f28419497f9722a3daafe3b4186f6b6457e060405160405180910390a35050565b600080600090505b82518110156120d0578373ffffffffffffffffffffffffffffffffffffffff1683828151811061208d5761208c6126d7565b5b60200260200101516020015173ffffffffffffffffffffffffffffffffffffffff16036120bd57809150506120f5565b80806120c890612f07565b91505061205a565b507fffffffffffffffffffffffffffffffffffffffffffffffffffffffffffffffff90505b92915050565b600080600090505b82518110156121c0578473ffffffffffffffffffffffffffffffffffffffff16838281518110612136576121356126d7565b5b60200260200101516020015173ffffffffffffffffffffffffffffffffffffffff1614801561218757508360400151838281518110612178576121776126d7565b5b60200260200101516040015110155b801561219f575061219c8385606001516121ec565b81135b156121ad57809150506121e5565b80806121b890612f07565b915050612103565b507fffffffffffffffffffffffffffffffffffffffffffffffffffffffffffffffff90505b9392505050565b600080600090505b835181121561223e5782848281518110612211576122106126d7565b5b6020026020010151606001510361222b5780915050612263565b808061223690612ebf565b9150506121f4565b507fffffffffffffffffffffffffffffffffffffffffffffffffffffffffffffffff90505b92915050565b6040518060a00160405280600073ffffffffffffffffffffffffffffffffffffffff168152602001600073ffffffffffffffffffffffffffffffffffffffff1681526020016000815260200160008152602001600081525090565b600080fd5b600073ffffffffffffffffffffffffffffffffffffffff82169050919050565b60006122f4826122c9565b9050919050565b612304816122e9565b811461230f57600080fd5b50565b600081359050612321816122fb565b92915050565b6000819050919050565b61233a81612327565b811461234557600080fd5b50565b60008135905061235781612331565b92915050565b60008060408385031215612374576123736122c4565b5b600061238285828601612312565b925050602061239385828601612348565b9150509250929050565b6123a6816122e9565b82525050565b60006020820190506123c1600083018461239d565b92915050565b6000806000606084860312156123e0576123df6122c4565b5b60006123ee86828701612312565b93505060206123ff86828701612348565b925050604061241086828701612348565b9150509250925092565b61242381612327565b82525050565b600060208201905061243e600083018461241a565b92915050565b60006020828403121561245a576124596122c4565b5b600061246884828501612312565b91505092915050565b60008060006060848603121561248a576124896122c4565b5b600061249886828701612348565b93505060206124a986828701612348565b92505060406124ba86828701612312565b9150509250925092565b60006124cf826122c9565b9050919050565b6124df816124c4565b82525050565b6124ee816122e9565b82525050565b6124fd81612327565b82525050565b60a08201600082015161251960008501826124d6565b50602082015161252c60208501826124e5565b50604082015161253f60408501826124f4565b50606082015161255260608501826124f4565b50608082015161256560808501826124f4565b50505050565b600060a0820190506125806000830184612503565b92915050565b60008151905061259581612331565b92915050565b6000602082840312156125b1576125b06122c4565b5b60006125bf84828501612586565b91505092915050565b600082825260208201905092915050565b7f56656e646f7220636f6e747261637420686173206e6f7420656e6f756768207460008201527f6f6b656e7320696e206974732062616c616e6365000000000000000000000000602082015250565b60006126356034836125c8565b9150612640826125d9565b604082019050919050565b6000602082019050818103600083015261266481612628565b9050919050565b7f4e6f20746f6b656e7320617661696c61626c6500000000000000000000000000600082015250565b60006126a16013836125c8565b91506126ac8261266b565b602082019050919050565b600060208201905081810360008301526126d081612694565b9050919050565b7f4e487b7100000000000000000000000000000000000000000000000000000000600052603260045260246000fd5b7f4e487b7100000000000000000000000000000000000000000000000000000000600052601160045260246000fd5b600061274082612327565b915061274b83612327565b92508282101561275e5761275d612706565b5b828203905092915050565b600061277482612327565b915061277f83612327565b9250827fffffffffffffffffffffffffffffffffffffffffffffffffffffffffffffffff038211156127b4576127b3612706565b5b828201905092915050565b6000819050919050565b60006127d4826127bf565b91506127df836127bf565b9250827f80000000000000000000000000000000000000000000000000000000000000000182126000841215161561281a57612819612706565b5b827f7fffffffffffffffffffffffffffffffffffffffffffffffffffffffffffffff01821360008412161561285257612851612706565b5b828203905092915050565b6000604082019050612872600083018561239d565b61287f602083018461241a565b9392505050565b60008115159050919050565b61289b81612886565b81146128a657600080fd5b50565b6000815190506128b881612892565b92915050565b6000602082840312156128d4576128d36122c4565b5b60006128e2848285016128a9565b91505092915050565b7f4661696c656420746f2072657475726e20746f6b656e20746f2073656c6c6572600082015250565b60006129216020836125c8565b915061292c826128eb565b602082019050919050565b6000602082019050818103600083015261295081612914565b9050919050565b7f4f776e61626c653a2063616c6c6572206973206e6f7420746865206f776e6572600082015250565b600061298d6020836125c8565b915061299882612957565b602082019050919050565b600060208201905081810360008301526129bc81612980565b9050919050565b7f4f776e657220686173206e6f742062616c616e636520746f207769746864726160008201527f7700000000000000000000000000000000000000000000000000000000000000602082015250565b6000612a1f6021836125c8565b9150612a2a826129c3565b604082019050919050565b60006020820190508181036000830152612a4e81612a12565b9050919050565b600081905092915050565b50565b6000612a70600083612a55565b9150612a7b82612a60565b600082019050919050565b6000612a9182612a63565b9150819050919050565b7f4661696c656420746f2073656e6420757365722062616c616e6365206261636b60008201527f20746f20746865206f776e657200000000000000000000000000000000000000602082015250565b6000612af7602d836125c8565b9150612b0282612a9b565b604082019050919050565b60006020820190508181036000830152612b2681612aea565b9050919050565b7f53656e642045544820746f2062757920736f6d6520746f6b656e730000000000600082015250565b6000612b63601b836125c8565b9150612b6e82612b2d565b602082019050919050565b60006020820190508181036000830152612b9281612b56565b9050919050565b7f5072696365206d69736d61746368000000000000000000000000000000000000600082015250565b6000612bcf600e836125c8565b9150612bda82612b99565b602082019050919050565b60006020820190508181036000830152612bfe81612bc2565b9050919050565b6000612c1082612327565b9150612c1b83612327565b9250817fffffffffffffffffffffffffffffffffffffffffffffffffffffffffffffffff0483118215151615612c5457612c53612706565b5b828202905092915050565b7f4e487b7100000000000000000000000000000000000000000000000000000000600052601260045260246000fd5b6000612c9982612327565b9150612ca483612327565b925082612cb457612cb3612c5f565b5b828204905092915050565b7f4661696c656420746f207472616e7366657220746f6b656e20746f2075736572600082015250565b6000612cf56020836125c8565b9150612d0082612cbf565b602082019050919050565b60006020820190508181036000830152612d2481612ce8565b9050919050565b6000606082019050612d40600083018661239d565b612d4d602083018561241a565b612d5a604083018461241a565b949350505050565b7f4f776e61626c653a206e6577206f776e657220697320746865207a65726f206160008201527f6464726573730000000000000000000000000000000000000000000000000000602082015250565b6000612dbe6026836125c8565b9150612dc982612d62565b604082019050919050565b60006020820190508181036000830152612ded81612db1565b9050919050565b6000606082019050612e09600083018661239d565b612e16602083018561239d565b612e23604083018461241a565b949350505050565b6000612e36826127bf565b9150612e41836127bf565b9250817f7fffffffffffffffffffffffffffffffffffffffffffffffffffffffffffffff03831360008312151615612e7c57612e7b612706565b5b817f8000000000000000000000000000000000000000000000000000000000000000038312600083121615612eb457612eb3612706565b5b828201905092915050565b6000612eca826127bf565b91507f7fffffffffffffffffffffffffffffffffffffffffffffffffffffffffffffff8203612efc57612efb612706565b5b600182019050919050565b6000612f1282612327565b91507fffffffffffffffffffffffffffffffffffffffffffffffffffffffffffffffff8203612f4457612f43612706565b5b60018201905091905056fea2646970667358221220da0d12bd9c1f44549427029875b8ba5d8c16eb5982678e351df31b1fa559987864736f6c634300080d0033",
  "immutableReferences": {},
  "source": "//SPDX-License-Identifier: Unlicensed for now\npragma solidity ^0.8.4;\n\nimport \"./NewToken.sol\";\n\n// Learn more about the ERC20 implementation\n// on OpenZeppelin docs: https://docs.openzeppelin.com/contracts/4.x/api/access#Ownable\nimport \"@openzeppelin/contracts/access/Ownable.sol\";\ncontract BuySell is Ownable {\n\n    struct sellingInstance {\n        address payable seller;\n        address tokenAddress;\n        uint256 amountOfETH;\n        uint256 id;\n        uint amountToSell;\n\n    }\n\n    struct variables{\n        int firstCheapestIndex;\n        int nextCheapestIndex;\n        bool sent;\n        uint price;\n        int remainingToBuy;\n\n    }\n\n    sellingInstance [] sellingInstances;\n    uint256 idCount=0;\n\n\n\n    // Event that log buy operation\n    event BuyTokens(address buyer, uint256 amountOfETH, uint256 amountOfTokens);\n\n\n    function setPrice(uint256 amountOfETH, uint256 tokenAmount, address tokenAddress) public returns (sellingInstance memory instance){\n        ERC20 newToken = ERC20(tokenAddress);\n        newToken.transferFrom(msg.sender,address (this),tokenAmount);\n        sellingInstance memory s = sellingInstance(payable(msg.sender), tokenAddress, amountOfETH, idCount,tokenAmount);\n        sellingInstances.push(s);\n        idCount= idCount+1;\n        return s;\n\n    }\n    function injectionSort(sellingInstance[] memory arr) private pure returns(sellingInstance[] memory array) {\n        //sellingInstance[] memory array= arr;\n        sellingInstance memory key;\n        int j;\n        for (int i =0; i<int(arr.length); i++){\n            key = arr[uint(i)];\n            j = i - 1;\n\n            // Move elements of arr[0..i-1],\n            // that are greater than key, to one\n            // position ahead of their\n            // current position\n            while (j >= 0 && arr[uint(j)].amountOfETH > key.amountOfETH)\n            {\n                arr[uint(j + 1)] = arr[uint(j)];\n                j = j - 1;\n            }\n            arr[uint(j + 1)] = key;\n        }\n        return arr;\n    }\n\n    function getNextCheapest(address tokenAddress, sellingInstance memory previousCheapest, sellingInstance[] memory sortedArray) private pure returns (int instanceIndex){\n        //fix for when there is cheapest array with 0 for sale\n\n        for (uint j = 0; j < sortedArray.length; j++) {\n            if (sortedArray[j].tokenAddress == tokenAddress && sortedArray[j].amountOfETH >= previousCheapest.amountOfETH && int(j) > indexOf(sortedArray, previousCheapest.id)) {\n                return int(j); //changed from returning j\n            }\n        }\n        return -1;\n\n    }\n    function getFirstCheapest(address tokenAddress, sellingInstance[] memory sortedArray) private pure returns(int instanceIndex){\n        //fix for when there is cheapest array with 0 for sale\n        for (uint j = 0; j < sortedArray.length; j++) {\n            if (sortedArray[j].tokenAddress == tokenAddress) {\n                return int(j); //changed from returning j\n            }\n        }\n        return -1;\n    }\n\n    function getNextCheapestForSeller(address tokenAddress, sellingInstance memory previousCheapest, sellingInstance[] memory sortedArray, address sellerAddress) private pure returns (int instanceIndex){\n        //fix for when there is cheapest array with 0 for sale\n\n        for (uint j = 0; j < sortedArray.length; j++) {\n            if (sortedArray[j].tokenAddress == tokenAddress && sortedArray[j].amountOfETH>= previousCheapest.amountOfETH && sortedArray[j].seller == sellerAddress && int(j) > indexOf(sortedArray, previousCheapest.id)) {\n                return int(j); //changed from returning j\n            }\n        }\n        return -1;\n\n    }\n    function getFirstCheapestForSeller(address tokenAddress, sellingInstance[] memory sortedArray, address sellerAddress) private pure returns(int instanceIndex){\n        //fix for when there is cheapest array with 0 for sale\n        for (uint j = 0; j < sortedArray.length; j++) {\n            if (sortedArray[j].tokenAddress == tokenAddress && sortedArray[j].seller == sellerAddress) {\n                return int(j); //changed from returning j\n            }\n        }\n        return -1;\n    }\n\n    function getPriceForTokens(address tokenAddress, uint amount) public view returns(uint pri){\n        sellingInstance[] memory sortedArray = injectionSort(sellingInstances);\n        int firstCheapestIndex = getFirstCheapest(tokenAddress, sortedArray);\n\n        int nextCheapestIndex;\n        sellingInstance memory nextCheapest;\n\n\n        uint remainingToBuy =amount;\n        uint price;\n\n        if(firstCheapestIndex == -1){\n            return 0;\n        }\n        sellingInstance memory firstCheapest= sortedArray[uint256(firstCheapestIndex)];\n\n        if(firstCheapest.amountToSell>=amount){\n            price= (amount * firstCheapest.amountOfETH) / (10 ** 18);\n            return price;\n        }else{\n            price= (firstCheapest.amountToSell * firstCheapest.amountOfETH) / (10 ** 18);\n            remainingToBuy= remainingToBuy - firstCheapest.amountToSell;\n            nextCheapestIndex = getNextCheapest(tokenAddress,firstCheapest, sortedArray);\n            //emit event not enough tokens or return struct instead\n        }\n\n        while(remainingToBuy >0 && nextCheapestIndex!=-1){\n            nextCheapest=sortedArray[uint256(nextCheapestIndex)];\n            if(nextCheapest.amountToSell>=remainingToBuy){\n                price= price + ((remainingToBuy * nextCheapest.amountOfETH) / (10 ** 18));\n                return price;\n            }else{\n                price= price + ((nextCheapest.amountToSell * nextCheapest.amountOfETH) / (10 ** 18));\n                remainingToBuy= remainingToBuy - firstCheapest.amountToSell;\n                nextCheapestIndex = getNextCheapest(tokenAddress,nextCheapest, sortedArray);\n            }\n        }\n        return price;\n    }\n\n    function find(uint id) private view returns(int realIndex){\n        for (int i =0; i<int(sellingInstances.length); i++){\n            if(sellingInstances[uint(i)].id==id){\n                return i;\n            }\n        }\n        return -1;\n    }\n\n    function indexOf(sellingInstance[] memory array, uint id) private pure returns(int index){\n        for (int i =0; i<int(array.length); i++){\n            if(array[uint(i)].id==id){\n                return i;\n            }\n        }\n        return -1;\n    }\n\n    /**\n    * @notice Allow users to buy token for ETH\n  */\n\n    function buyTokens(address tokenAddress, uint promisedPrice, uint amount) public payable {\n        uint actualPrice = getPriceForTokens(tokenAddress,amount);\n\n\n        //return actualPrice;\n        require(msg.value >= actualPrice, \"Send ETH to buy some tokens\");\n\n        ERC20 newToken = ERC20(tokenAddress);\n\n\n        // check if the Vendor Contract has enough amount of tokens for the transaction\n        uint256 vendorBalance = newToken.balanceOf(address(this));\n        require(vendorBalance >= amount, \"Vendor contract has not enough tokens in its balance\");\n        require(actualPrice == promisedPrice, \"Price mismatch\");\n\n        // Transfer token to the msg.sender\n\n\n        sellingInstance [] memory sortedArray = injectionSort(sellingInstances);\n\n        //int firstCheapestIndex = int(getFirstCheapest(tokenAddress, sortedArray));\n\n        //int nextCheapestIndex;\n        sellingInstance memory nextCheapest;\n\n        //uint remainingToBuy =amount;\n        //uint price=0;\n\n        variables memory vars = variables(int(getFirstCheapest(tokenAddress, sortedArray)), -1, false, 0, int(amount));\n        (vars.sent) = newToken.transfer(msg.sender, amount);\n        require(vars.firstCheapestIndex != -1, \"No tokens available\");\n\n        sellingInstance memory firstCheapest= sortedArray[uint(vars.firstCheapestIndex)];\n        int firstCheapestRealIndex = int(firstCheapest.id);\n\n        if(firstCheapest.amountToSell>=amount){\n            sellingInstances[uint(firstCheapestRealIndex)].amountToSell = sellingInstances[uint(firstCheapestRealIndex)].amountToSell -amount;\n            sellingInstances[uint(firstCheapestRealIndex)].seller.transfer((amount * firstCheapest.amountOfETH) / (10 ** 18));\n            vars.remainingToBuy = 0;\n        }else{\n            vars.price= (firstCheapest.amountToSell * firstCheapest.amountOfETH) / (10 ** 18);\n            sellingInstances[uint(firstCheapestRealIndex)].seller.transfer(vars.price);\n\n            vars.remainingToBuy = vars.remainingToBuy- int(sellingInstances[uint(firstCheapestRealIndex)].amountToSell);\n            sellingInstances[uint(firstCheapestRealIndex)].amountToSell=0;\n            vars.nextCheapestIndex = getNextCheapest(tokenAddress,firstCheapest, sortedArray);\n\n        }\n        while(vars.remainingToBuy >0 && vars.nextCheapestIndex!=-1){\n            nextCheapest=sellingInstances[uint(vars.nextCheapestIndex)];\n            int nextCheapestRealIndex = int(nextCheapest.id);\n            if(int(nextCheapest.amountToSell)>=vars.remainingToBuy){\n\n                sellingInstances[uint(nextCheapestRealIndex)].amountToSell = sellingInstances[uint(nextCheapestRealIndex)].amountToSell -uint(vars.remainingToBuy);\n                sellingInstances[uint(nextCheapestRealIndex)].seller.transfer((uint(vars.remainingToBuy) * nextCheapest.amountOfETH) / (10 ** 18));\n                vars.remainingToBuy = 0;\n\n\n            }else{\n                vars.price= (nextCheapest.amountToSell * nextCheapest.amountOfETH) / (10 ** 18);\n                sellingInstances[uint(nextCheapestRealIndex)].seller.transfer(vars.price);\n                vars.remainingToBuy = vars.remainingToBuy- int(sellingInstances[uint(nextCheapestRealIndex)].amountToSell);\n\n                sellingInstances[uint(nextCheapestRealIndex)].amountToSell=0;\n                vars.nextCheapestIndex = getNextCheapest(tokenAddress, nextCheapest, sortedArray);\n            }\n        }\n\n        require(vars.sent, \"Failed to transfer token to user\");\n\n        // emit the event\n        emit BuyTokens(msg.sender, msg.value, amount);\n\n\n    }\n\n\n    /**\n    * @notice Allow seller to cancel sale of tokens\n  */\n    function cancelSale(address tokenAddress, uint amount) public {\n        ERC20 newToken = ERC20(tokenAddress);\n\n\n        // check if the Vendor Contract has enough amount of tokens for the transaction\n        uint256 vendorBalance = newToken.balanceOf(address(this));\n        require(vendorBalance >= amount, \"Vendor contract has not enough tokens in its balance\");\n\n\n        // Transfer token to the msg.sender\n\n\n        sellingInstance [] memory sortedArray = injectionSort(sellingInstances);\n\n\n        sellingInstance memory nextCheapest;\n\n\n\n        variables memory vars = variables(int(getFirstCheapestForSeller(tokenAddress, sortedArray, msg.sender)), -1, false, 0, int(amount));\n        //(vars.sent) = newToken.transfer(msg.sender, amount);\n        require(vars.firstCheapestIndex != -1, \"No tokens available\");\n        uint amountToCancel = 0;\n\n        sellingInstance memory firstCheapest= sortedArray[uint(vars.firstCheapestIndex)];\n        int firstCheapestRealIndex = int(firstCheapest.id);\n\n        if(firstCheapest.amountToSell>=amount){\n            sellingInstances[uint(firstCheapestRealIndex)].amountToSell = sellingInstances[uint(firstCheapestRealIndex)].amountToSell -amount;\n            amountToCancel = amountToCancel + amount;\n            vars.remainingToBuy = 0;\n        }else{\n            //vars.price= (amount * firstCheapest.amountOfETH) / (10 ** 18);\n            //sellingInstances[uint(firstCheapestRealIndex)].seller.transfer(vars.price);\n            vars.remainingToBuy = vars.remainingToBuy- int(sellingInstances[uint(firstCheapestRealIndex)].amountToSell);\n            amountToCancel = amountToCancel + sellingInstances[uint(firstCheapestRealIndex)].amountToSell;\n            sellingInstances[uint(firstCheapestRealIndex)].amountToSell=0;\n            vars.nextCheapestIndex = getNextCheapestForSeller(tokenAddress,firstCheapest, sortedArray, msg.sender);\n        }\n        while(vars.remainingToBuy > 0 && vars.nextCheapestIndex!=-1){\n            nextCheapest=sellingInstances[uint(vars.nextCheapestIndex)];\n            int nextCheapestRealIndex = int(nextCheapest.id);\n            if(nextCheapest.amountToSell>=uint(vars.remainingToBuy)){\n                sellingInstances[uint(nextCheapestRealIndex)].amountToSell = sellingInstances[uint(nextCheapestRealIndex)].amountToSell -uint(vars.remainingToBuy);\n                //sellingInstances[uint(nextCheapestRealIndex)].seller.transfer((amount * nextCheapest.amountOfETH) / (10 ** 18));\n                amountToCancel = amountToCancel + uint(vars.remainingToBuy);\n                vars.remainingToBuy = 0;\n            }else{\n                //vars.price= (amount * firstCheapest.amountOfETH) / (10 ** 18);\n                //sellingInstances[uint(nextCheapestRealIndex)].seller.transfer(vars.price);\n                amountToCancel = amountToCancel + sellingInstances[uint(nextCheapestRealIndex)].amountToSell;\n                vars.remainingToBuy = vars.remainingToBuy - int(sellingInstances[uint(nextCheapestRealIndex)].amountToSell);\n                sellingInstances[uint(nextCheapestRealIndex)].amountToSell=0;\n                vars.nextCheapestIndex = getNextCheapestForSeller(tokenAddress,firstCheapest, sortedArray, msg.sender);\n            }\n        }\n        (vars.sent) = newToken.transfer(msg.sender, amountToCancel);\n        require(vars.sent, \"Failed to return token to seller\");\n        //maybe emit an event\n    }\n\n\n    /**\n    * @notice Allow the owner of the contract to withdraw ETH\n  */\n    function withdraw() public onlyOwner {\n        uint256 ownerBalance = address(this).balance;\n        require(ownerBalance > 0, \"Owner has not balance to withdraw\");\n\n        (bool sent,) = msg.sender.call{value : address(this).balance}(\"\");\n        require(sent, \"Failed to send user balance back to the owner\");\n    }\n}\n",
  "sourcePath": "/Users/Gloria/IdeaProjects/dstate-be/solidity/contracts/BuySell.sol",
  "compiler": {
    "name": "solc",
    "version": "0.8.13+commit.abaa5c0e.Emscripten.clang"
  },
  "schemaVersion": "3.4.7",
  "updatedAt": "2022-06-01T20:32:37.367Z",
  "devdoc": {
    "kind": "dev",
    "methods": {
      "owner()": {
        "details": "Returns the address of the current owner."
      },
      "renounceOwnership()": {
        "details": "Leaves the contract without owner. It will not be possible to call `onlyOwner` functions anymore. Can only be called by the current owner. NOTE: Renouncing ownership will leave the contract without an owner, thereby removing any functionality that is only available to the owner."
      },
      "transferOwnership(address)": {
        "details": "Transfers ownership of the contract to a new account (`newOwner`). Can only be called by the current owner."
      }
    },
    "version": 1
  },
  "userdoc": {
    "kind": "user",
    "methods": {
      "buyTokens(address,uint256,uint256)": {
        "notice": "Allow users to buy token for ETH"
      },
      "cancelSale(address,uint256)": {
        "notice": "Allow seller to cancel sale of tokens"
      },
      "withdraw()": {
        "notice": "Allow the owner of the contract to withdraw ETH"
      }
    },
    "version": 1
  }
}