{
  "contractName": "NewToken",
  "abi": [
    {
      "inputs": [
        {
          "internalType": "uint256",
          "name": "tokenNumber",
          "type": "uint256"
        },
        {
          "internalType": "string",
          "name": "name",
          "type": "string"
        },
        {
          "internalType": "string",
          "name": "symbol",
          "type": "string"
        },
        {
          "internalType": "uint256",
          "name": "_rentPrice",
          "type": "uint256"
        },
        {
          "internalType": "uint256",
          "name": "_depositPrice",
          "type": "uint256"
        },
        {
          "internalType": "uint256",
          "name": "_remainingMonths",
          "type": "uint256"
        },
        {
          "internalType": "uint256",
          "name": "_caretakerShare",
          "type": "uint256"
        },
        {
          "internalType": "address payable",
          "name": "_caretaker",
          "type": "address"
        },
        {
          "internalType": "address payable",
          "name": "_tenant",
          "type": "address"
        }
      ],
      "stateMutability": "nonpayable",
      "type": "constructor"
    },
    {
      "anonymous": false,
      "inputs": [
        {
          "indexed": true,
          "internalType": "address",
          "name": "owner",
          "type": "address"
        },
        {
          "indexed": true,
          "internalType": "address",
          "name": "spender",
          "type": "address"
        },
        {
          "indexed": false,
          "internalType": "uint256",
          "name": "value",
          "type": "uint256"
        }
      ],
      "name": "Approval",
      "type": "event"
    },
    {
      "anonymous": false,
      "inputs": [
        {
          "indexed": true,
          "internalType": "address",
          "name": "delegator",
          "type": "address"
        },
        {
          "indexed": true,
          "internalType": "address",
          "name": "fromDelegate",
          "type": "address"
        },
        {
          "indexed": true,
          "internalType": "address",
          "name": "toDelegate",
          "type": "address"
        }
      ],
      "name": "DelegateChanged",
      "type": "event"
    },
    {
      "anonymous": false,
      "inputs": [
        {
          "indexed": true,
          "internalType": "address",
          "name": "delegate",
          "type": "address"
        },
        {
          "indexed": false,
          "internalType": "uint256",
          "name": "previousBalance",
          "type": "uint256"
        },
        {
          "indexed": false,
          "internalType": "uint256",
          "name": "newBalance",
          "type": "uint256"
        }
      ],
      "name": "DelegateVotesChanged",
      "type": "event"
    },
    {
      "anonymous": false,
      "inputs": [
        {
          "indexed": true,
          "internalType": "address",
          "name": "from",
          "type": "address"
        },
        {
          "indexed": true,
          "internalType": "address",
          "name": "to",
          "type": "address"
        },
        {
          "indexed": false,
          "internalType": "uint256",
          "name": "value",
          "type": "uint256"
        }
      ],
      "name": "Transfer",
      "type": "event"
    },
    {
      "inputs": [],
      "name": "DOMAIN_SEPARATOR",
      "outputs": [
        {
          "internalType": "bytes32",
          "name": "",
          "type": "bytes32"
        }
      ],
      "stateMutability": "view",
      "type": "function"
    },
    {
      "inputs": [
        {
          "internalType": "address",
          "name": "owner",
          "type": "address"
        },
        {
          "internalType": "address",
          "name": "spender",
          "type": "address"
        }
      ],
      "name": "allowance",
      "outputs": [
        {
          "internalType": "uint256",
          "name": "",
          "type": "uint256"
        }
      ],
      "stateMutability": "view",
      "type": "function"
    },
    {
      "inputs": [
        {
          "internalType": "address",
          "name": "spender",
          "type": "address"
        },
        {
          "internalType": "uint256",
          "name": "amount",
          "type": "uint256"
        }
      ],
      "name": "approve",
      "outputs": [
        {
          "internalType": "bool",
          "name": "",
          "type": "bool"
        }
      ],
      "stateMutability": "nonpayable",
      "type": "function"
    },
    {
      "inputs": [
        {
          "internalType": "address",
          "name": "account",
          "type": "address"
        }
      ],
      "name": "balanceOf",
      "outputs": [
        {
          "internalType": "uint256",
          "name": "",
          "type": "uint256"
        }
      ],
      "stateMutability": "view",
      "type": "function"
    },
    {
      "inputs": [
        {
          "internalType": "address",
          "name": "account",
          "type": "address"
        },
        {
          "internalType": "uint32",
          "name": "pos",
          "type": "uint32"
        }
      ],
      "name": "checkpoints",
      "outputs": [
        {
          "components": [
            {
              "internalType": "uint32",
              "name": "fromBlock",
              "type": "uint32"
            },
            {
              "internalType": "uint224",
              "name": "votes",
              "type": "uint224"
            }
          ],
          "internalType": "struct ERC20Votes.Checkpoint",
          "name": "",
          "type": "tuple"
        }
      ],
      "stateMutability": "view",
      "type": "function"
    },
    {
      "inputs": [],
      "name": "decimals",
      "outputs": [
        {
          "internalType": "uint8",
          "name": "",
          "type": "uint8"
        }
      ],
      "stateMutability": "view",
      "type": "function"
    },
    {
      "inputs": [
        {
          "internalType": "address",
          "name": "spender",
          "type": "address"
        },
        {
          "internalType": "uint256",
          "name": "subtractedValue",
          "type": "uint256"
        }
      ],
      "name": "decreaseAllowance",
      "outputs": [
        {
          "internalType": "bool",
          "name": "",
          "type": "bool"
        }
      ],
      "stateMutability": "nonpayable",
      "type": "function"
    },
    {
      "inputs": [
        {
          "internalType": "address",
          "name": "delegatee",
          "type": "address"
        }
      ],
      "name": "delegate",
      "outputs": [],
      "stateMutability": "nonpayable",
      "type": "function"
    },
    {
      "inputs": [
        {
          "internalType": "address",
          "name": "delegatee",
          "type": "address"
        },
        {
          "internalType": "uint256",
          "name": "nonce",
          "type": "uint256"
        },
        {
          "internalType": "uint256",
          "name": "expiry",
          "type": "uint256"
        },
        {
          "internalType": "uint8",
          "name": "v",
          "type": "uint8"
        },
        {
          "internalType": "bytes32",
          "name": "r",
          "type": "bytes32"
        },
        {
          "internalType": "bytes32",
          "name": "s",
          "type": "bytes32"
        }
      ],
      "name": "delegateBySig",
      "outputs": [],
      "stateMutability": "nonpayable",
      "type": "function"
    },
    {
      "inputs": [
        {
          "internalType": "address",
          "name": "account",
          "type": "address"
        }
      ],
      "name": "delegates",
      "outputs": [
        {
          "internalType": "address",
          "name": "",
          "type": "address"
        }
      ],
      "stateMutability": "view",
      "type": "function"
    },
    {
      "inputs": [
        {
          "internalType": "uint256",
          "name": "blockNumber",
          "type": "uint256"
        }
      ],
      "name": "getPastTotalSupply",
      "outputs": [
        {
          "internalType": "uint256",
          "name": "",
          "type": "uint256"
        }
      ],
      "stateMutability": "view",
      "type": "function"
    },
    {
      "inputs": [
        {
          "internalType": "address",
          "name": "account",
          "type": "address"
        },
        {
          "internalType": "uint256",
          "name": "blockNumber",
          "type": "uint256"
        }
      ],
      "name": "getPastVotes",
      "outputs": [
        {
          "internalType": "uint256",
          "name": "",
          "type": "uint256"
        }
      ],
      "stateMutability": "view",
      "type": "function"
    },
    {
      "inputs": [
        {
          "internalType": "address",
          "name": "account",
          "type": "address"
        }
      ],
      "name": "getVotes",
      "outputs": [
        {
          "internalType": "uint256",
          "name": "",
          "type": "uint256"
        }
      ],
      "stateMutability": "view",
      "type": "function"
    },
    {
      "inputs": [
        {
          "internalType": "address",
          "name": "spender",
          "type": "address"
        },
        {
          "internalType": "uint256",
          "name": "addedValue",
          "type": "uint256"
        }
      ],
      "name": "increaseAllowance",
      "outputs": [
        {
          "internalType": "bool",
          "name": "",
          "type": "bool"
        }
      ],
      "stateMutability": "nonpayable",
      "type": "function"
    },
    {
      "inputs": [],
      "name": "name",
      "outputs": [
        {
          "internalType": "string",
          "name": "",
          "type": "string"
        }
      ],
      "stateMutability": "view",
      "type": "function"
    },
    {
      "inputs": [
        {
          "internalType": "address",
          "name": "owner",
          "type": "address"
        }
      ],
      "name": "nonces",
      "outputs": [
        {
          "internalType": "uint256",
          "name": "",
          "type": "uint256"
        }
      ],
      "stateMutability": "view",
      "type": "function"
    },
    {
      "inputs": [
        {
          "internalType": "address",
          "name": "account",
          "type": "address"
        }
      ],
      "name": "numCheckpoints",
      "outputs": [
        {
          "internalType": "uint32",
          "name": "",
          "type": "uint32"
        }
      ],
      "stateMutability": "view",
      "type": "function"
    },
    {
      "inputs": [
        {
          "internalType": "address",
          "name": "owner",
          "type": "address"
        },
        {
          "internalType": "address",
          "name": "spender",
          "type": "address"
        },
        {
          "internalType": "uint256",
          "name": "value",
          "type": "uint256"
        },
        {
          "internalType": "uint256",
          "name": "deadline",
          "type": "uint256"
        },
        {
          "internalType": "uint8",
          "name": "v",
          "type": "uint8"
        },
        {
          "internalType": "bytes32",
          "name": "r",
          "type": "bytes32"
        },
        {
          "internalType": "bytes32",
          "name": "s",
          "type": "bytes32"
        }
      ],
      "name": "permit",
      "outputs": [],
      "stateMutability": "nonpayable",
      "type": "function"
    },
    {
      "inputs": [],
      "name": "proposalNumber",
      "outputs": [
        {
          "internalType": "uint256",
          "name": "",
          "type": "uint256"
        }
      ],
      "stateMutability": "view",
      "type": "function"
    },
    {
      "inputs": [
        {
          "internalType": "uint256",
          "name": "",
          "type": "uint256"
        }
      ],
      "name": "proposals",
      "outputs": [
        {
          "internalType": "string",
          "name": "title",
          "type": "string"
        },
        {
          "internalType": "string",
          "name": "description",
          "type": "string"
        },
        {
          "internalType": "uint256",
          "name": "proposalType",
          "type": "uint256"
        },
        {
          "internalType": "uint256",
          "name": "id",
          "type": "uint256"
        },
        {
          "internalType": "uint256",
          "name": "blockNumber",
          "type": "uint256"
        },
        {
          "internalType": "uint256",
          "name": "uint0",
          "type": "uint256"
        },
        {
          "internalType": "uint256",
          "name": "uint1",
          "type": "uint256"
        },
        {
          "internalType": "uint256",
          "name": "uint2",
          "type": "uint256"
        },
        {
          "internalType": "address",
          "name": "address0",
          "type": "address"
        }
      ],
      "stateMutability": "view",
      "type": "function"
    },
    {
      "inputs": [],
      "name": "rent",
      "outputs": [
        {
          "internalType": "contract Rent",
          "name": "",
          "type": "address"
        }
      ],
      "stateMutability": "view",
      "type": "function"
    },
    {
      "inputs": [],
      "name": "symbol",
      "outputs": [
        {
          "internalType": "string",
          "name": "",
          "type": "string"
        }
      ],
      "stateMutability": "view",
      "type": "function"
    },
    {
      "inputs": [],
      "name": "totalSupply",
      "outputs": [
        {
          "internalType": "uint256",
          "name": "",
          "type": "uint256"
        }
      ],
      "stateMutability": "view",
      "type": "function"
    },
    {
      "inputs": [
        {
          "internalType": "address",
          "name": "to",
          "type": "address"
        },
        {
          "internalType": "uint256",
          "name": "amount",
          "type": "uint256"
        }
      ],
      "name": "transfer",
      "outputs": [
        {
          "internalType": "bool",
          "name": "",
          "type": "bool"
        }
      ],
      "stateMutability": "nonpayable",
      "type": "function"
    },
    {
      "inputs": [
        {
          "internalType": "address",
          "name": "from",
          "type": "address"
        },
        {
          "internalType": "address",
          "name": "to",
          "type": "address"
        },
        {
          "internalType": "uint256",
          "name": "amount",
          "type": "uint256"
        }
      ],
      "name": "transferFrom",
      "outputs": [
        {
          "internalType": "bool",
          "name": "",
          "type": "bool"
        }
      ],
      "stateMutability": "nonpayable",
      "type": "function"
    },
    {
      "inputs": [
        {
          "internalType": "uint256",
          "name": "",
          "type": "uint256"
        }
      ],
      "name": "votes",
      "outputs": [
        {
          "internalType": "uint256",
          "name": "",
          "type": "uint256"
        }
      ],
      "stateMutability": "view",
      "type": "function"
    },
    {
      "inputs": [
        {
          "internalType": "uint256",
          "name": "",
          "type": "uint256"
        }
      ],
      "name": "votingResult",
      "outputs": [
        {
          "internalType": "bool",
          "name": "",
          "type": "bool"
        }
      ],
      "stateMutability": "view",
      "type": "function"
    },
    {
      "inputs": [
        {
          "internalType": "string",
          "name": "_title",
          "type": "string"
        },
        {
          "internalType": "string",
          "name": "_description",
          "type": "string"
        },
        {
          "internalType": "uint256",
          "name": "_proposalType",
          "type": "uint256"
        },
        {
          "internalType": "uint256",
          "name": "_uint0",
          "type": "uint256"
        },
        {
          "internalType": "uint256",
          "name": "_uint1",
          "type": "uint256"
        },
        {
          "internalType": "uint256",
          "name": "_uint2",
          "type": "uint256"
        },
        {
          "internalType": "address",
          "name": "_address0",
          "type": "address"
        }
      ],
      "name": "createProposal",
      "outputs": [
        {
          "internalType": "uint256",
          "name": "_theId",
          "type": "uint256"
        }
      ],
      "stateMutability": "nonpayable",
      "type": "function"
    },
    {
      "inputs": [
        {
          "internalType": "uint256",
          "name": "_proposalId",
          "type": "uint256"
        }
      ],
      "name": "vote",
      "outputs": [
        {
          "internalType": "bool",
          "name": "_result",
          "type": "bool"
        }
      ],
      "stateMutability": "nonpayable",
      "type": "function"
    }
  ],
  "bytecode": "0x6101606040527f6e71edae12b1b97f4d1f60370fef10105fa2faae0126114a169c64845d6126c9610140908152506000600a553480156200003f57600080fd5b506040516200a5a03803806200a5a08339818101604052810190620000659190620010bf565b6040518060400160405280600a81526020017f476f7665726e616e636500000000000000000000000000000000000000000000815250806040518060400160405280600181526020017f31000000000000000000000000000000000000000000000000000000000000008152508a604051602001620000e5919062001279565b6040516020818303038152906040528a81600390805190602001906200010d92919062000dc4565b5080600490805190602001906200012692919062000dc4565b50505060008280519060200120905060008280519060200120905060007f8b73c3c69bb8fe3d512ecc4cf759cc79239f7b179b0ffacaa9a75d522b39400f90508260e081815250508161010081815250504660a0818152505062000192818484620002aa60201b60201c565b608081815250503073ffffffffffffffffffffffffffffffffffffffff1660c08173ffffffffffffffffffffffffffffffffffffffff16815250508061012081815250505050505050506200020333670de0b6b3a76400008b620001f79190620012ce565b620002e660201b60201c565b62000214336200030160201b60201c565b85858585858530306040516200022a9062000e55565b6200023d98979695949392919062001376565b604051809103906000f0801580156200025a573d6000803e3d6000fd5b50600960006101000a81548173ffffffffffffffffffffffffffffffffffffffff021916908373ffffffffffffffffffffffffffffffffffffffff1602179055505050505050505050506200183c565b60008383834630604051602001620002c79594939291906200141f565b6040516020818303038152906040528051906020012090509392505050565b620002fd82826200032560201b62001b341760201c565b5050565b6200032262000315620003e360201b60201c565b82620003eb60201b60201c565b50565b6200033c82826200051d60201b62001bc11760201c565b6200034c6200069560201b60201c565b7bffffffffffffffffffffffffffffffffffffffffffffffffffffffff166200037a620006b960201b60201c565b1115620003be576040517f08c379a0000000000000000000000000000000000000000000000000000000008152600401620003b59062001503565b60405180910390fd5b620003dd6008620006c360201b62001d201783620006db60201b60201c565b50505050565b600033905090565b6000620003fe836200098c60201b60201c565b905060006200041384620009f560201b60201c565b905082600660008673ffffffffffffffffffffffffffffffffffffffff1673ffffffffffffffffffffffffffffffffffffffff16815260200190815260200160002060006101000a81548173ffffffffffffffffffffffffffffffffffffffff021916908373ffffffffffffffffffffffffffffffffffffffff1602179055508273ffffffffffffffffffffffffffffffffffffffff168273ffffffffffffffffffffffffffffffffffffffff168573ffffffffffffffffffffffffffffffffffffffff167f3134e8a2e6d97e929a7e54011ea5485d7d196dd5f0ba4d4ef95803e8e3fc257f60405160405180910390a46200051782848362000a3d60201b60201c565b50505050565b600073ffffffffffffffffffffffffffffffffffffffff168273ffffffffffffffffffffffffffffffffffffffff16036200058f576040517f08c379a0000000000000000000000000000000000000000000000000000000008152600401620005869062001575565b60405180910390fd5b620005a36000838362000c6060201b60201c565b8060026000828254620005b7919062001597565b92505081905550806000808473ffffffffffffffffffffffffffffffffffffffff1673ffffffffffffffffffffffffffffffffffffffff16815260200190815260200160002060008282546200060e919062001597565b925050819055508173ffffffffffffffffffffffffffffffffffffffff16600073ffffffffffffffffffffffffffffffffffffffff167fddf252ad1be2c89b69c2b068fc378daa952ba7f163c4a11628f55a4df523b3ef83604051620006759190620015f4565b60405180910390a3620006916000838362000c6560201b60201c565b5050565b60007bffffffffffffffffffffffffffffffffffffffffffffffffffffffff905090565b6000600254905090565b60008183620006d3919062001597565b905092915050565b6000806000858054905090506000811462000750578560018262000700919062001611565b815481106200071457620007136200164c565b5b9060005260206000200160000160049054906101000a90047bffffffffffffffffffffffffffffffffffffffffffffffffffffffff1662000753565b60005b7bffffffffffffffffffffffffffffffffffffffffffffffffffffffff1692506200077f83858760201c565b9150600081118015620007d8575043866001836200079e919062001611565b81548110620007b257620007b16200164c565b5b9060005260206000200160000160009054906101000a900463ffffffff1663ffffffff16145b156200087957620007f48262000c9360201b62001d361760201c565b8660018362000804919062001611565b815481106200081857620008176200164c565b5b9060005260206000200160000160046101000a8154817bffffffffffffffffffffffffffffffffffffffffffffffffffffffff02191690837bffffffffffffffffffffffffffffffffffffffffffffffffffffffff16021790555062000983565b8560405180604001604052806200089b4362000d0160201b62001da11760201c565b63ffffffff168152602001620008bc8562000c9360201b62001d361760201c565b7bffffffffffffffffffffffffffffffffffffffffffffffffffffffff168152509080600181540180825580915050600190039060005260206000200160009091909190915060008201518160000160006101000a81548163ffffffff021916908363ffffffff16021790555060208201518160000160046101000a8154817bffffffffffffffffffffffffffffffffffffffffffffffffffffffff02191690837bffffffffffffffffffffffffffffffffffffffffffffffffffffffff16021790555050505b50935093915050565b6000600660008373ffffffffffffffffffffffffffffffffffffffff1673ffffffffffffffffffffffffffffffffffffffff16815260200190815260200160002060009054906101000a900473ffffffffffffffffffffffffffffffffffffffff169050919050565b60008060008373ffffffffffffffffffffffffffffffffffffffff1673ffffffffffffffffffffffffffffffffffffffff168152602001908152602001600020549050919050565b8173ffffffffffffffffffffffffffffffffffffffff168373ffffffffffffffffffffffffffffffffffffffff161415801562000a7a5750600081115b1562000c5b57600073ffffffffffffffffffffffffffffffffffffffff168373ffffffffffffffffffffffffffffffffffffffff161462000b6d5760008062000b14600760008773ffffffffffffffffffffffffffffffffffffffff1673ffffffffffffffffffffffffffffffffffffffff16815260200190815260200160002062000d5760201b62001df41785620006db60201b60201c565b915091508473ffffffffffffffffffffffffffffffffffffffff167fdec2bacdd2f05b59de34da9b523dff8be42e5e38e818c82fdb0bae774387a724838360405162000b629291906200167b565b60405180910390a250505b600073ffffffffffffffffffffffffffffffffffffffff168273ffffffffffffffffffffffffffffffffffffffff161462000c5a5760008062000c01600760008673ffffffffffffffffffffffffffffffffffffffff1673ffffffffffffffffffffffffffffffffffffffff168152602001908152602001600020620006c360201b62001d201785620006db60201b60201c565b915091508373ffffffffffffffffffffffffffffffffffffffff167fdec2bacdd2f05b59de34da9b523dff8be42e5e38e818c82fdb0bae774387a724838360405162000c4f9291906200167b565b60405180910390a250505b5b505050565b505050565b62000c7d83838362000d6f60201b62001e0a1760201c565b62000c8e826200030160201b60201c565b505050565b60007bffffffffffffffffffffffffffffffffffffffffffffffffffffffff801682111562000cf9576040517f08c379a000000000000000000000000000000000000000000000000000000000815260040162000cf0906200171e565b60405180910390fd5b819050919050565b600063ffffffff801682111562000d4f576040517f08c379a000000000000000000000000000000000000000000000000000000000815260040162000d4690620017b6565b60405180910390fd5b819050919050565b6000818362000d67919062001611565b905092915050565b62000d8783838362000dbf60201b62001e351760201c565b62000dba62000d9c846200098c60201b60201c565b62000dad846200098c60201b60201c565b8362000a3d60201b60201c565b505050565b505050565b82805462000dd29062001807565b90600052602060002090601f01602090048101928262000df6576000855562000e42565b82601f1062000e1157805160ff191683800117855562000e42565b8280016001018555821562000e42579182015b8281111562000e4157825182559160200191906001019062000e24565b5b50905062000e51919062000e63565b5090565b613da480620067fc83390190565b5b8082111562000e7e57600081600090555060010162000e64565b5090565b6000604051905090565b600080fd5b600080fd5b6000819050919050565b62000eab8162000e96565b811462000eb757600080fd5b50565b60008151905062000ecb8162000ea0565b92915050565b600080fd5b600080fd5b6000601f19601f8301169050919050565b7f4e487b7100000000000000000000000000000000000000000000000000000000600052604160045260246000fd5b62000f268262000edb565b810181811067ffffffffffffffff8211171562000f485762000f4762000eec565b5b80604052505050565b600062000f5d62000e82565b905062000f6b828262000f1b565b919050565b600067ffffffffffffffff82111562000f8e5762000f8d62000eec565b5b62000f998262000edb565b9050602081019050919050565b60005b8381101562000fc657808201518184015260208101905062000fa9565b8381111562000fd6576000848401525b50505050565b600062000ff362000fed8462000f70565b62000f51565b90508281526020810184848401111562001012576200101162000ed6565b5b6200101f84828562000fa6565b509392505050565b600082601f8301126200103f576200103e62000ed1565b5b81516200105184826020860162000fdc565b91505092915050565b600073ffffffffffffffffffffffffffffffffffffffff82169050919050565b600062001087826200105a565b9050919050565b62001099816200107a565b8114620010a557600080fd5b50565b600081519050620010b9816200108e565b92915050565b60008060008060008060008060006101208a8c031215620010e557620010e462000e8c565b5b6000620010f58c828d0162000eba565b99505060208a015167ffffffffffffffff81111562001119576200111862000e91565b5b620011278c828d0162001027565b98505060408a015167ffffffffffffffff8111156200114b576200114a62000e91565b5b620011598c828d0162001027565b97505060606200116c8c828d0162000eba565b96505060806200117f8c828d0162000eba565b95505060a0620011928c828d0162000eba565b94505060c0620011a58c828d0162000eba565b93505060e0620011b88c828d01620010a8565b925050610100620011cc8c828d01620010a8565b9150509295985092959850929598565b600081905092915050565b7f6473746174652d00000000000000000000000000000000000000000000000000600082015250565b60006200121f600783620011dc565b91506200122c82620011e7565b600782019050919050565b600081519050919050565b60006200124f8262001237565b6200125b8185620011dc565b93506200126d81856020860162000fa6565b80840191505092915050565b6000620012868262001210565b915062001294828462001242565b915081905092915050565b7f4e487b7100000000000000000000000000000000000000000000000000000000600052601160045260246000fd5b6000620012db8262000e96565b9150620012e88362000e96565b9250817fffffffffffffffffffffffffffffffffffffffffffffffffffffffffffffffff04831182151516156200132457620013236200129f565b5b828202905092915050565b6200133a8162000e96565b82525050565b6200134b816200107a565b82525050565b60006200135e826200105a565b9050919050565b620013708162001351565b82525050565b6000610100820190506200138e600083018b6200132f565b6200139d602083018a6200132f565b620013ac60408301896200132f565b620013bb60608301886200132f565b620013ca608083018762001340565b620013d960a083018662001340565b620013e860c083018562001365565b620013f760e083018462001365565b9998505050505050505050565b6000819050919050565b620014198162001404565b82525050565b600060a0820190506200143660008301886200140e565b6200144560208301876200140e565b6200145460408301866200140e565b6200146360608301856200132f565b62001472608083018462001365565b9695505050505050565b600082825260208201905092915050565b7f4552433230566f7465733a20746f74616c20737570706c79207269736b73206f60008201527f766572666c6f77696e6720766f74657300000000000000000000000000000000602082015250565b6000620014eb6030836200147c565b9150620014f8826200148d565b604082019050919050565b600060208201905081810360008301526200151e81620014dc565b9050919050565b7f45524332303a206d696e7420746f20746865207a65726f206164647265737300600082015250565b60006200155d601f836200147c565b91506200156a8262001525565b602082019050919050565b6000602082019050818103600083015262001590816200154e565b9050919050565b6000620015a48262000e96565b9150620015b18362000e96565b9250827fffffffffffffffffffffffffffffffffffffffffffffffffffffffffffffffff03821115620015e957620015e86200129f565b5b828201905092915050565b60006020820190506200160b60008301846200132f565b92915050565b60006200161e8262000e96565b91506200162b8362000e96565b9250828210156200164157620016406200129f565b5b828203905092915050565b7f4e487b7100000000000000000000000000000000000000000000000000000000600052603260045260246000fd5b60006040820190506200169260008301856200132f565b620016a160208301846200132f565b9392505050565b7f53616665436173743a2076616c756520646f65736e27742066697420696e203260008201527f3234206269747300000000000000000000000000000000000000000000000000602082015250565b6000620017066027836200147c565b91506200171382620016a8565b604082019050919050565b600060208201905081810360008301526200173981620016f7565b9050919050565b7f53616665436173743a2076616c756520646f65736e27742066697420696e203360008201527f3220626974730000000000000000000000000000000000000000000000000000602082015250565b60006200179e6026836200147c565b9150620017ab8262001740565b604082019050919050565b60006020820190508181036000830152620017d1816200178f565b9050919050565b7f4e487b7100000000000000000000000000000000000000000000000000000000600052602260045260246000fd5b600060028204905060018216806200182057607f821691505b602082108103620018365762001835620017d8565b5b50919050565b60805160a05160c05160e051610100516101205161014051614f656200189760003960006118a2015260006128520152600061289401526000612873015260006127a8015260006127fe015260006128270152614f656000f3fe608060405234801561001057600080fd5b50600436106101cf5760003560e01c80635df813301161010457806395d89b41116100a2578063c3cda52011610071578063c3cda520146105fa578063d505accf14610616578063dd62ed3e14610632578063f1127ed814610662576101cf565b806395d89b411461054c5780639ab24eb01461056a578063a457c2d71461059a578063a9059cbb146105ca576101cf565b806370a08231116100de57806370a082311461049e5780637ecebe00146104ce57806382996d9f146104fe5780638e539e8c1461051c576101cf565b80635df813301461040e57806361d140511461043e5780636fcfff451461046e576101cf565b8063313ce567116101715780633a46b1a81161014b5780633a46b1a814610374578063500ad6a4146103a4578063587cde1e146103c25780635c19a95c146103f2576101cf565b8063313ce567146103085780633644e515146103265780633950935114610344576101cf565b8063095ea7b3116101ad578063095ea7b31461025a57806318160ddd1461028a57806322e1ba97146102a857806323b872dd146102d8576101cf565b80630121b93f146101d4578063013cf08b1461020457806306fdde031461023c575b600080fd5b6101ee60048036038101906101e991906134f4565b610692565b6040516101fb919061353c565b60405180910390f35b61021e600480360381019061021991906134f4565b610c7c565b60405161023399989796959493929190613640565b60405180910390f35b610244610dfa565b60405161025191906136db565b60405180910390f35b610274600480360381019061026f9190613729565b610e8c565b604051610281919061353c565b60405180910390f35b610292610eaf565b60405161029f9190613769565b60405180910390f35b6102c260048036038101906102bd91906138b9565b610eb9565b6040516102cf9190613769565b60405180910390f35b6102f260048036038101906102ed9190613993565b6110ff565b6040516102ff919061353c565b60405180910390f35b61031061112e565b60405161031d9190613a02565b60405180910390f35b61032e611137565b60405161033b9190613a36565b60405180910390f35b61035e60048036038101906103599190613729565b611146565b60405161036b919061353c565b60405180910390f35b61038e60048036038101906103899190613729565b6111f0565b60405161039b9190613769565b60405180910390f35b6103ac611284565b6040516103b99190613769565b60405180910390f35b6103dc60048036038101906103d79190613a51565b61128a565b6040516103e99190613a7e565b60405180910390f35b61040c60048036038101906104079190613a51565b6112f3565b005b610428600480360381019061042391906134f4565b611307565b6040516104359190613769565b60405180910390f35b610458600480360381019061045391906134f4565b61131f565b604051610465919061353c565b60405180910390f35b61048860048036038101906104839190613a51565b61133f565b6040516104959190613ab8565b60405180910390f35b6104b860048036038101906104b39190613a51565b611393565b6040516104c59190613769565b60405180910390f35b6104e860048036038101906104e39190613a51565b6113db565b6040516104f59190613769565b60405180910390f35b61050661142b565b6040516105139190613b32565b60405180910390f35b610536600480360381019061053191906134f4565b611451565b6040516105439190613769565b60405180910390f35b6105546114a7565b60405161056191906136db565b60405180910390f35b610584600480360381019061057f9190613a51565b611539565b6040516105919190613769565b60405180910390f35b6105b460048036038101906105af9190613729565b61164a565b6040516105c1919061353c565b60405180910390f35b6105e460048036038101906105df9190613729565b611734565b6040516105f1919061353c565b60405180910390f35b610614600480360381019061060f9190613ba5565b611757565b005b610630600480360381019061062b9190613c32565b61185b565b005b61064c60048036038101906106479190613cd4565b61199d565b6040516106599190613769565b60405180910390f35b61067c60048036038101906106779190613d40565b611a24565b6040516106899190613df5565b60405180910390f35b6000600d600083815260200190815260200160002060009054906101000a900460ff16156106f5576040517f08c379a00000000000000000000000000000000000000000000000000000000081526004016106ec90613e5c565b60405180910390fd5b600e600083815260200190815260200160002060003373ffffffffffffffffffffffffffffffffffffffff1673ffffffffffffffffffffffffffffffffffffffff16815260200190815260200160002060009054906101000a900460ff1615610793576040517f08c379a000000000000000000000000000000000000000000000000000000000815260040161078a90613ec8565b60405180910390fd5b6000600b6000848152602001908152602001600020604051806101200160405290816000820180546107c490613f17565b80601f01602080910402602001604051908101604052809291908181526020018280546107f090613f17565b801561083d5780601f106108125761010080835404028352916020019161083d565b820191906000526020600020905b81548152906001019060200180831161082057829003601f168201915b5050505050815260200160018201805461085690613f17565b80601f016020809104026020016040519081016040528092919081815260200182805461088290613f17565b80156108cf5780601f106108a4576101008083540402835291602001916108cf565b820191906000526020600020905b8154815290600101906020018083116108b257829003601f168201915b505050505081526020016002820154815260200160038201548152602001600482015481526020016005820154815260200160068201548152602001600782015481526020016008820160009054906101000a900473ffffffffffffffffffffffffffffffffffffffff1673ffffffffffffffffffffffffffffffffffffffff1673ffffffffffffffffffffffffffffffffffffffff1681525050905060003090508073ffffffffffffffffffffffffffffffffffffffff16633a46b1a83384608001516040518363ffffffff1660e01b81526004016109b0929190613f48565b602060405180830381865afa1580156109cd573d6000803e3d6000fd5b505050506040513d601f19601f820116820180604052508101906109f19190613f86565b600c60008681526020019081526020016000206000828254610a139190613fe2565b925050819055506001600e600086815260200190815260200160002060003373ffffffffffffffffffffffffffffffffffffffff1673ffffffffffffffffffffffffffffffffffffffff16815260200190815260200160002060006101000a81548160ff02191690831515021790555060023073ffffffffffffffffffffffffffffffffffffffff166318160ddd6040518163ffffffff1660e01b8152600401602060405180830381865afa158015610ad0573d6000803e3d6000fd5b505050506040513d601f19601f82011682018060405250810190610af49190613f86565b610afe9190614067565b600c60008681526020019081526020016000205410610c70576001600d600086815260200190815260200160002060006101000a81548160ff0219169083151502179055506000826040015103610b5a57600192505050610c77565b6001826040015103610b7a57610b6f82611e3a565b600192505050610c77565b6002826040015103610b9a57610b8f82611ee0565b600192505050610c77565b6003826040015103610bba57610baf82611f86565b600192505050610c77565b6004826040015103610bda57610bcf8261202c565b600192505050610c77565b6005826040015103610bf957610bee6120d3565b600192505050610c77565b6006826040015103610c1957610c0e82612169565b600192505050610c77565b6007826040015103610c3957610c2e82612222565b600192505050610c77565b6000600d600086815260200190815260200160002060006101000a81548160ff021916908315150217905550600092505050610c77565b6000925050505b919050565b600b602052806000526040600020600091509050806000018054610c9f90613f17565b80601f0160208091040260200160405190810160405280929190818152602001828054610ccb90613f17565b8015610d185780601f10610ced57610100808354040283529160200191610d18565b820191906000526020600020905b815481529060010190602001808311610cfb57829003601f168201915b505050505090806001018054610d2d90613f17565b80601f0160208091040260200160405190810160405280929190818152602001828054610d5990613f17565b8015610da65780601f10610d7b57610100808354040283529160200191610da6565b820191906000526020600020905b815481529060010190602001808311610d8957829003601f168201915b5050505050908060020154908060030154908060040154908060050154908060060154908060070154908060080160009054906101000a900473ffffffffffffffffffffffffffffffffffffffff16905089565b606060038054610e0990613f17565b80601f0160208091040260200160405190810160405280929190818152602001828054610e3590613f17565b8015610e825780601f10610e5757610100808354040283529160200191610e82565b820191906000526020600020905b815481529060010190602001808311610e6557829003601f168201915b5050505050905090565b600080610e976122c8565b9050610ea48185856122d0565b600191505092915050565b6000600254905090565b60008030905060008173ffffffffffffffffffffffffffffffffffffffff16639ab24eb0336040518263ffffffff1660e01b8152600401610efa9190613a7e565b602060405180830381865afa158015610f17573d6000803e3d6000fd5b505050506040513d601f19601f82011682018060405250810190610f3b9190613f86565b11610f7b576040517f08c379a0000000000000000000000000000000000000000000000000000000008152600401610f729061410a565b60405180910390fd5b60006040518061012001604052808b81526020018a8152602001898152602001600a5481526020014381526020018881526020018781526020018681526020018573ffffffffffffffffffffffffffffffffffffffff16815250905080600b6000600a54815260200190815260200160002060008201518160000190805190602001906110099291906133c9565b5060208201518160010190805190602001906110269291906133c9565b5060408201518160020155606082015181600301556080820151816004015560a0820151816005015560c0820151816006015560e082015181600701556101008201518160080160006101000a81548173ffffffffffffffffffffffffffffffffffffffff021916908373ffffffffffffffffffffffffffffffffffffffff1602179055509050506000600c6000600a54815260200190815260200160002081905550600a60008154809291906110dc9061412a565b91905055506001600a546110f09190614172565b92505050979650505050505050565b60008061110a6122c8565b9050611117858285612499565b611122858585612525565b60019150509392505050565b60006012905090565b60006111416127a4565b905090565b6000806111516122c8565b90506111e5818585600160008673ffffffffffffffffffffffffffffffffffffffff1673ffffffffffffffffffffffffffffffffffffffff16815260200190815260200160002060008973ffffffffffffffffffffffffffffffffffffffff1673ffffffffffffffffffffffffffffffffffffffff168152602001908152602001600020546111e09190613fe2565b6122d0565b600191505092915050565b6000438210611234576040517f08c379a000000000000000000000000000000000000000000000000000000000815260040161122b906141f2565b60405180910390fd5b61127c600760008573ffffffffffffffffffffffffffffffffffffffff1673ffffffffffffffffffffffffffffffffffffffff168152602001908152602001600020836128be565b905092915050565b600a5481565b6000600660008373ffffffffffffffffffffffffffffffffffffffff1673ffffffffffffffffffffffffffffffffffffffff16815260200190815260200160002060009054906101000a900473ffffffffffffffffffffffffffffffffffffffff169050919050565b6113046112fe6122c8565b826129ca565b50565b600c6020528060005260406000206000915090505481565b600d6020528060005260406000206000915054906101000a900460ff1681565b600061138c600760008473ffffffffffffffffffffffffffffffffffffffff1673ffffffffffffffffffffffffffffffffffffffff16815260200190815260200160002080549050611da1565b9050919050565b60008060008373ffffffffffffffffffffffffffffffffffffffff1673ffffffffffffffffffffffffffffffffffffffff168152602001908152602001600020549050919050565b6000611424600560008473ffffffffffffffffffffffffffffffffffffffff1673ffffffffffffffffffffffffffffffffffffffff168152602001908152602001600020612ae4565b9050919050565b600960009054906101000a900473ffffffffffffffffffffffffffffffffffffffff1681565b6000438210611495576040517f08c379a000000000000000000000000000000000000000000000000000000000815260040161148c906141f2565b60405180910390fd5b6114a06008836128be565b9050919050565b6060600480546114b690613f17565b80601f01602080910402602001604051908101604052809291908181526020018280546114e290613f17565b801561152f5780601f106115045761010080835404028352916020019161152f565b820191906000526020600020905b81548152906001019060200180831161151257829003601f168201915b5050505050905090565b600080600760008473ffffffffffffffffffffffffffffffffffffffff1673ffffffffffffffffffffffffffffffffffffffff1681526020019081526020016000208054905090506000811461162157600760008473ffffffffffffffffffffffffffffffffffffffff1673ffffffffffffffffffffffffffffffffffffffff1681526020019081526020016000206001826115d59190614172565b815481106115e6576115e5614212565b5b9060005260206000200160000160049054906101000a90047bffffffffffffffffffffffffffffffffffffffffffffffffffffffff16611624565b60005b7bffffffffffffffffffffffffffffffffffffffffffffffffffffffff16915050919050565b6000806116556122c8565b90506000600160008373ffffffffffffffffffffffffffffffffffffffff1673ffffffffffffffffffffffffffffffffffffffff16815260200190815260200160002060008673ffffffffffffffffffffffffffffffffffffffff1673ffffffffffffffffffffffffffffffffffffffff1681526020019081526020016000205490508381101561171b576040517f08c379a0000000000000000000000000000000000000000000000000000000008152600401611712906142b3565b60405180910390fd5b61172882868684036122d0565b60019250505092915050565b60008061173f6122c8565b905061174c818585612525565b600191505092915050565b8342111561179a576040517f08c379a00000000000000000000000000000000000000000000000000000000081526004016117919061431f565b60405180910390fd5b60006117fc6117f47fe48329057bfd03d55e49b547132e39cffd9c1820ad7b9d4c5307691425d15adf8989896040516020016117d9949392919061433f565b60405160208183030381529060405280519060200120612af2565b858585612b0c565b905061180781612b37565b8614611848576040517f08c379a000000000000000000000000000000000000000000000000000000000815260040161183f906143d0565b60405180910390fd5b61185281886129ca565b50505050505050565b8342111561189e576040517f08c379a00000000000000000000000000000000000000000000000000000000081526004016118959061443c565b60405180910390fd5b60007f00000000000000000000000000000000000000000000000000000000000000008888886118cd8c612b37565b896040516020016118e39695949392919061445c565b604051602081830303815290604052805190602001209050600061190682612af2565b9050600061191682878787612b0c565b90508973ffffffffffffffffffffffffffffffffffffffff168173ffffffffffffffffffffffffffffffffffffffff1614611986576040517f08c379a000000000000000000000000000000000000000000000000000000000815260040161197d90614509565b60405180910390fd5b6119918a8a8a6122d0565b50505050505050505050565b6000600160008473ffffffffffffffffffffffffffffffffffffffff1673ffffffffffffffffffffffffffffffffffffffff16815260200190815260200160002060008373ffffffffffffffffffffffffffffffffffffffff1673ffffffffffffffffffffffffffffffffffffffff16815260200190815260200160002054905092915050565b611a2c61344f565b600760008473ffffffffffffffffffffffffffffffffffffffff1673ffffffffffffffffffffffffffffffffffffffff1681526020019081526020016000208263ffffffff1681548110611a8357611a82614212565b5b906000526020600020016040518060400160405290816000820160009054906101000a900463ffffffff1663ffffffff1663ffffffff1681526020016000820160049054906101000a90047bffffffffffffffffffffffffffffffffffffffffffffffffffffffff167bffffffffffffffffffffffffffffffffffffffffffffffffffffffff167bffffffffffffffffffffffffffffffffffffffffffffffffffffffff1681525050905092915050565b611b3e8282611bc1565b611b46612b95565b7bffffffffffffffffffffffffffffffffffffffffffffffffffffffff16611b6c610eaf565b1115611bad576040517f08c379a0000000000000000000000000000000000000000000000000000000008152600401611ba49061459b565b60405180910390fd5b611bbb6008611d2083612bb9565b50505050565b600073ffffffffffffffffffffffffffffffffffffffff168273ffffffffffffffffffffffffffffffffffffffff1603611c30576040517f08c379a0000000000000000000000000000000000000000000000000000000008152600401611c2790614607565b60405180910390fd5b611c3c60008383612e31565b8060026000828254611c4e9190613fe2565b92505081905550806000808473ffffffffffffffffffffffffffffffffffffffff1673ffffffffffffffffffffffffffffffffffffffff1681526020019081526020016000206000828254611ca39190613fe2565b925050819055508173ffffffffffffffffffffffffffffffffffffffff16600073ffffffffffffffffffffffffffffffffffffffff167fddf252ad1be2c89b69c2b068fc378daa952ba7f163c4a11628f55a4df523b3ef83604051611d089190613769565b60405180910390a3611d1c60008383612e36565b5050565b60008183611d2e9190613fe2565b905092915050565b60007bffffffffffffffffffffffffffffffffffffffffffffffffffffffff8016821115611d99576040517f08c379a0000000000000000000000000000000000000000000000000000000008152600401611d9090614699565b60405180910390fd5b819050919050565b600063ffffffff8016821115611dec576040517f08c379a0000000000000000000000000000000000000000000000000000000008152600401611de39061472b565b60405180910390fd5b819050919050565b60008183611e029190614172565b905092915050565b611e15838383611e35565b611e30611e218461128a565b611e2a8461128a565b83612e4f565b505050565b505050565b600960009054906101000a900473ffffffffffffffffffffffffffffffffffffffff1673ffffffffffffffffffffffffffffffffffffffff166363a54c8c8260a001516040518263ffffffff1660e01b8152600401611e999190613769565b6020604051808303816000875af1158015611eb8573d6000803e3d6000fd5b505050506040513d601f19601f82011682018060405250810190611edc9190613f86565b5050565b600960009054906101000a900473ffffffffffffffffffffffffffffffffffffffff1673ffffffffffffffffffffffffffffffffffffffff1663842159a28260a001516040518263ffffffff1660e01b8152600401611f3f9190613769565b6020604051808303816000875af1158015611f5e573d6000803e3d6000fd5b505050506040513d601f19601f82011682018060405250810190611f829190613f86565b5050565b600960009054906101000a900473ffffffffffffffffffffffffffffffffffffffff1673ffffffffffffffffffffffffffffffffffffffff1663d8beb8858260a001516040518263ffffffff1660e01b8152600401611fe59190613769565b6020604051808303816000875af1158015612004573d6000803e3d6000fd5b505050506040513d601f19601f820116820180604052508101906120289190613f86565b5050565b600960009054906101000a900473ffffffffffffffffffffffffffffffffffffffff1673ffffffffffffffffffffffffffffffffffffffff16635ac2bb138261010001516040518263ffffffff1660e01b815260040161208c919061476c565b6020604051808303816000875af11580156120ab573d6000803e3d6000fd5b505050506040513d601f19601f820116820180604052508101906120cf919061479c565b5050565b600960009054906101000a900473ffffffffffffffffffffffffffffffffffffffff1673ffffffffffffffffffffffffffffffffffffffff16632cfe6fcc6040518163ffffffff1660e01b81526004016020604051808303816000875af1158015612142573d6000803e3d6000fd5b505050506040513d601f19601f82011682018060405250810190612166919061479c565b50565b600960009054906101000a900473ffffffffffffffffffffffffffffffffffffffff1673ffffffffffffffffffffffffffffffffffffffff166335a083198261010001518360a001518460c001518560e001516040518563ffffffff1660e01b81526004016121db94939291906147c9565b60408051808303816000875af11580156121f9573d6000803e3d6000fd5b505050506040513d601f19601f8201168201806040525081019061221d919061480e565b505050565b600960009054906101000a900473ffffffffffffffffffffffffffffffffffffffff1673ffffffffffffffffffffffffffffffffffffffff1663d5252dcf8260a001516040518263ffffffff1660e01b81526004016122819190613769565b6020604051808303816000875af11580156122a0573d6000803e3d6000fd5b505050506040513d601f19601f820116820180604052508101906122c49190613f86565b5050565b600033905090565b600073ffffffffffffffffffffffffffffffffffffffff168373ffffffffffffffffffffffffffffffffffffffff160361233f576040517f08c379a0000000000000000000000000000000000000000000000000000000008152600401612336906148c0565b60405180910390fd5b600073ffffffffffffffffffffffffffffffffffffffff168273ffffffffffffffffffffffffffffffffffffffff16036123ae576040517f08c379a00000000000000000000000000000000000000000000000000000000081526004016123a590614952565b60405180910390fd5b80600160008573ffffffffffffffffffffffffffffffffffffffff1673ffffffffffffffffffffffffffffffffffffffff16815260200190815260200160002060008473ffffffffffffffffffffffffffffffffffffffff1673ffffffffffffffffffffffffffffffffffffffff168152602001908152602001600020819055508173ffffffffffffffffffffffffffffffffffffffff168373ffffffffffffffffffffffffffffffffffffffff167f8c5be1e5ebec7d5bd14f71427d1e84f3dd0314c0f7b2291e5b200ac8c7c3b9258360405161248c9190613769565b60405180910390a3505050565b60006124a5848461199d565b90507fffffffffffffffffffffffffffffffffffffffffffffffffffffffffffffffff811461251f5781811015612511576040517f08c379a0000000000000000000000000000000000000000000000000000000008152600401612508906149be565b60405180910390fd5b61251e84848484036122d0565b5b50505050565b600073ffffffffffffffffffffffffffffffffffffffff168373ffffffffffffffffffffffffffffffffffffffff1603612594576040517f08c379a000000000000000000000000000000000000000000000000000000000815260040161258b90614a50565b60405180910390fd5b600073ffffffffffffffffffffffffffffffffffffffff168273ffffffffffffffffffffffffffffffffffffffff1603612603576040517f08c379a00000000000000000000000000000000000000000000000000000000081526004016125fa90614ae2565b60405180910390fd5b61260e838383612e31565b60008060008573ffffffffffffffffffffffffffffffffffffffff1673ffffffffffffffffffffffffffffffffffffffff16815260200190815260200160002054905081811015612694576040517f08c379a000000000000000000000000000000000000000000000000000000000815260040161268b90614b74565b60405180910390fd5b8181036000808673ffffffffffffffffffffffffffffffffffffffff1673ffffffffffffffffffffffffffffffffffffffff16815260200190815260200160002081905550816000808573ffffffffffffffffffffffffffffffffffffffff1673ffffffffffffffffffffffffffffffffffffffff16815260200190815260200160002060008282546127279190613fe2565b925050819055508273ffffffffffffffffffffffffffffffffffffffff168473ffffffffffffffffffffffffffffffffffffffff167fddf252ad1be2c89b69c2b068fc378daa952ba7f163c4a11628f55a4df523b3ef8460405161278b9190613769565b60405180910390a361279e848484612e36565b50505050565b60007f000000000000000000000000000000000000000000000000000000000000000073ffffffffffffffffffffffffffffffffffffffff163073ffffffffffffffffffffffffffffffffffffffff1614801561282057507f000000000000000000000000000000000000000000000000000000000000000046145b1561284d577f000000000000000000000000000000000000000000000000000000000000000090506128bb565b6128b87f00000000000000000000000000000000000000000000000000000000000000007f00000000000000000000000000000000000000000000000000000000000000007f0000000000000000000000000000000000000000000000000000000000000000613048565b90505b90565b6000808380549050905060005b8181101561293d5760006128df8284613082565b9050848682815481106128f5576128f4614212565b5b9060005260206000200160000160009054906101000a900463ffffffff1663ffffffff16111561292757809250612937565b6001816129349190613fe2565b91505b506128cb565b6000821461299f57846001836129539190614172565b8154811061296457612963614212565b5b9060005260206000200160000160049054906101000a90047bffffffffffffffffffffffffffffffffffffffffffffffffffffffff166129a2565b60005b7bffffffffffffffffffffffffffffffffffffffffffffffffffffffff169250505092915050565b60006129d58361128a565b905060006129e284611393565b905082600660008673ffffffffffffffffffffffffffffffffffffffff1673ffffffffffffffffffffffffffffffffffffffff16815260200190815260200160002060006101000a81548173ffffffffffffffffffffffffffffffffffffffff021916908373ffffffffffffffffffffffffffffffffffffffff1602179055508273ffffffffffffffffffffffffffffffffffffffff168273ffffffffffffffffffffffffffffffffffffffff168573ffffffffffffffffffffffffffffffffffffffff167f3134e8a2e6d97e929a7e54011ea5485d7d196dd5f0ba4d4ef95803e8e3fc257f60405160405180910390a4612ade828483612e4f565b50505050565b600081600001549050919050565b6000612b05612aff6127a4565b836130a8565b9050919050565b6000806000612b1d878787876130db565b91509150612b2a816131e7565b8192505050949350505050565b600080600560008473ffffffffffffffffffffffffffffffffffffffff1673ffffffffffffffffffffffffffffffffffffffff1681526020019081526020016000209050612b8481612ae4565b9150612b8f816133b3565b50919050565b60007bffffffffffffffffffffffffffffffffffffffffffffffffffffffff905090565b60008060008580549050905060008114612c275785600182612bdb9190614172565b81548110612bec57612beb614212565b5b9060005260206000200160000160049054906101000a90047bffffffffffffffffffffffffffffffffffffffffffffffffffffffff16612c2a565b60005b7bffffffffffffffffffffffffffffffffffffffffffffffffffffffff169250612c5883858763ffffffff16565b9150600081118015612cab57504386600183612c749190614172565b81548110612c8557612c84614212565b5b9060005260206000200160000160009054906101000a900463ffffffff1663ffffffff16145b15612d3857612cb982611d36565b86600183612cc79190614172565b81548110612cd857612cd7614212565b5b9060005260206000200160000160046101000a8154817bffffffffffffffffffffffffffffffffffffffffffffffffffffffff02191690837bffffffffffffffffffffffffffffffffffffffffffffffffffffffff160217905550612e28565b856040518060400160405280612d4d43611da1565b63ffffffff168152602001612d6185611d36565b7bffffffffffffffffffffffffffffffffffffffffffffffffffffffff168152509080600181540180825580915050600190039060005260206000200160009091909190915060008201518160000160006101000a81548163ffffffff021916908363ffffffff16021790555060208201518160000160046101000a8154817bffffffffffffffffffffffffffffffffffffffffffffffffffffffff02191690837bffffffffffffffffffffffffffffffffffffffffffffffffffffffff16021790555050505b50935093915050565b505050565b612e41838383611e0a565b612e4a826112f3565b505050565b8173ffffffffffffffffffffffffffffffffffffffff168373ffffffffffffffffffffffffffffffffffffffff1614158015612e8b5750600081115b1561304357600073ffffffffffffffffffffffffffffffffffffffff168373ffffffffffffffffffffffffffffffffffffffff1614612f6957600080612f12600760008773ffffffffffffffffffffffffffffffffffffffff1673ffffffffffffffffffffffffffffffffffffffff168152602001908152602001600020611df485612bb9565b915091508473ffffffffffffffffffffffffffffffffffffffff167fdec2bacdd2f05b59de34da9b523dff8be42e5e38e818c82fdb0bae774387a7248383604051612f5e929190614b94565b60405180910390a250505b600073ffffffffffffffffffffffffffffffffffffffff168273ffffffffffffffffffffffffffffffffffffffff161461304257600080612feb600760008673ffffffffffffffffffffffffffffffffffffffff1673ffffffffffffffffffffffffffffffffffffffff168152602001908152602001600020611d2085612bb9565b915091508373ffffffffffffffffffffffffffffffffffffffff167fdec2bacdd2f05b59de34da9b523dff8be42e5e38e818c82fdb0bae774387a7248383604051613037929190614b94565b60405180910390a250505b5b505050565b60008383834630604051602001613063959493929190614bbd565b6040516020818303038152906040528051906020012090509392505050565b600060028284186130939190614067565b8284166130a09190613fe2565b905092915050565b600082826040516020016130bd929190614c88565b60405160208183030381529060405280519060200120905092915050565b6000807f7fffffffffffffffffffffffffffffff5d576e7357a4501ddfe92f46681b20a08360001c11156131165760006003915091506131de565b601b8560ff161415801561312e5750601c8560ff1614155b156131405760006004915091506131de565b6000600187878787604051600081526020016040526040516131659493929190614cbf565b6020604051602081039080840390855afa158015613187573d6000803e3d6000fd5b505050602060405103519050600073ffffffffffffffffffffffffffffffffffffffff168173ffffffffffffffffffffffffffffffffffffffff16036131d5576000600192509250506131de565b80600092509250505b94509492505050565b600060048111156131fb576131fa614d04565b5b81600481111561320e5761320d614d04565b5b03156133b0576001600481111561322857613227614d04565b5b81600481111561323b5761323a614d04565b5b0361327b576040517f08c379a000000000000000000000000000000000000000000000000000000000815260040161327290614d7f565b60405180910390fd5b6002600481111561328f5761328e614d04565b5b8160048111156132a2576132a1614d04565b5b036132e2576040517f08c379a00000000000000000000000000000000000000000000000000000000081526004016132d990614deb565b60405180910390fd5b600360048111156132f6576132f5614d04565b5b81600481111561330957613308614d04565b5b03613349576040517f08c379a000000000000000000000000000000000000000000000000000000000815260040161334090614e7d565b60405180910390fd5b60048081111561335c5761335b614d04565b5b81600481111561336f5761336e614d04565b5b036133af576040517f08c379a00000000000000000000000000000000000000000000000000000000081526004016133a690614f0f565b60405180910390fd5b5b50565b6001816000016000828254019250508190555050565b8280546133d590613f17565b90600052602060002090601f0160209004810192826133f7576000855561343e565b82601f1061341057805160ff191683800117855561343e565b8280016001018555821561343e579182015b8281111561343d578251825591602001919060010190613422565b5b50905061344b919061348d565b5090565b6040518060400160405280600063ffffffff16815260200160007bffffffffffffffffffffffffffffffffffffffffffffffffffffffff1681525090565b5b808211156134a657600081600090555060010161348e565b5090565b6000604051905090565b600080fd5b600080fd5b6000819050919050565b6134d1816134be565b81146134dc57600080fd5b50565b6000813590506134ee816134c8565b92915050565b60006020828403121561350a576135096134b4565b5b6000613518848285016134df565b91505092915050565b60008115159050919050565b61353681613521565b82525050565b6000602082019050613551600083018461352d565b92915050565b600081519050919050565b600082825260208201905092915050565b60005b83811015613591578082015181840152602081019050613576565b838111156135a0576000848401525b50505050565b6000601f19601f8301169050919050565b60006135c282613557565b6135cc8185613562565b93506135dc818560208601613573565b6135e5816135a6565b840191505092915050565b6135f9816134be565b82525050565b600073ffffffffffffffffffffffffffffffffffffffff82169050919050565b600061362a826135ff565b9050919050565b61363a8161361f565b82525050565b600061012082019050818103600083015261365b818c6135b7565b9050818103602083015261366f818b6135b7565b905061367e604083018a6135f0565b61368b60608301896135f0565b61369860808301886135f0565b6136a560a08301876135f0565b6136b260c08301866135f0565b6136bf60e08301856135f0565b6136cd610100830184613631565b9a9950505050505050505050565b600060208201905081810360008301526136f581846135b7565b905092915050565b6137068161361f565b811461371157600080fd5b50565b600081359050613723816136fd565b92915050565b600080604083850312156137405761373f6134b4565b5b600061374e85828601613714565b925050602061375f858286016134df565b9150509250929050565b600060208201905061377e60008301846135f0565b92915050565b600080fd5b600080fd5b7f4e487b7100000000000000000000000000000000000000000000000000000000600052604160045260246000fd5b6137c6826135a6565b810181811067ffffffffffffffff821117156137e5576137e461378e565b5b80604052505050565b60006137f86134aa565b905061380482826137bd565b919050565b600067ffffffffffffffff8211156138245761382361378e565b5b61382d826135a6565b9050602081019050919050565b82818337600083830152505050565b600061385c61385784613809565b6137ee565b90508281526020810184848401111561387857613877613789565b5b61388384828561383a565b509392505050565b600082601f8301126138a05761389f613784565b5b81356138b0848260208601613849565b91505092915050565b600080600080600080600060e0888a0312156138d8576138d76134b4565b5b600088013567ffffffffffffffff8111156138f6576138f56134b9565b5b6139028a828b0161388b565b975050602088013567ffffffffffffffff811115613923576139226134b9565b5b61392f8a828b0161388b565b96505060406139408a828b016134df565b95505060606139518a828b016134df565b94505060806139628a828b016134df565b93505060a06139738a828b016134df565b92505060c06139848a828b01613714565b91505092959891949750929550565b6000806000606084860312156139ac576139ab6134b4565b5b60006139ba86828701613714565b93505060206139cb86828701613714565b92505060406139dc868287016134df565b9150509250925092565b600060ff82169050919050565b6139fc816139e6565b82525050565b6000602082019050613a1760008301846139f3565b92915050565b6000819050919050565b613a3081613a1d565b82525050565b6000602082019050613a4b6000830184613a27565b92915050565b600060208284031215613a6757613a666134b4565b5b6000613a7584828501613714565b91505092915050565b6000602082019050613a936000830184613631565b92915050565b600063ffffffff82169050919050565b613ab281613a99565b82525050565b6000602082019050613acd6000830184613aa9565b92915050565b6000819050919050565b6000613af8613af3613aee846135ff565b613ad3565b6135ff565b9050919050565b6000613b0a82613add565b9050919050565b6000613b1c82613aff565b9050919050565b613b2c81613b11565b82525050565b6000602082019050613b476000830184613b23565b92915050565b613b56816139e6565b8114613b6157600080fd5b50565b600081359050613b7381613b4d565b92915050565b613b8281613a1d565b8114613b8d57600080fd5b50565b600081359050613b9f81613b79565b92915050565b60008060008060008060c08789031215613bc257613bc16134b4565b5b6000613bd089828a01613714565b9650506020613be189828a016134df565b9550506040613bf289828a016134df565b9450506060613c0389828a01613b64565b9350506080613c1489828a01613b90565b92505060a0613c2589828a01613b90565b9150509295509295509295565b600080600080600080600060e0888a031215613c5157613c506134b4565b5b6000613c5f8a828b01613714565b9750506020613c708a828b01613714565b9650506040613c818a828b016134df565b9550506060613c928a828b016134df565b9450506080613ca38a828b01613b64565b93505060a0613cb48a828b01613b90565b92505060c0613cc58a828b01613b90565b91505092959891949750929550565b60008060408385031215613ceb57613cea6134b4565b5b6000613cf985828601613714565b9250506020613d0a85828601613714565b9150509250929050565b613d1d81613a99565b8114613d2857600080fd5b50565b600081359050613d3a81613d14565b92915050565b60008060408385031215613d5757613d566134b4565b5b6000613d6585828601613714565b9250506020613d7685828601613d2b565b9150509250929050565b613d8981613a99565b82525050565b60007bffffffffffffffffffffffffffffffffffffffffffffffffffffffff82169050919050565b613dc081613d8f565b82525050565b604082016000820151613ddc6000850182613d80565b506020820151613def6020850182613db7565b50505050565b6000604082019050613e0a6000830184613dc6565b92915050565b7f566f74696e6720456e6465640000000000000000000000000000000000000000600082015250565b6000613e46600c83613562565b9150613e5182613e10565b602082019050919050565b60006020820190508181036000830152613e7581613e39565b9050919050565b7f416c726561647920566f74656400000000000000000000000000000000000000600082015250565b6000613eb2600d83613562565b9150613ebd82613e7c565b602082019050919050565b60006020820190508181036000830152613ee181613ea5565b9050919050565b7f4e487b7100000000000000000000000000000000000000000000000000000000600052602260045260246000fd5b60006002820490506001821680613f2f57607f821691505b602082108103613f4257613f41613ee8565b5b50919050565b6000604082019050613f5d6000830185613631565b613f6a60208301846135f0565b9392505050565b600081519050613f80816134c8565b92915050565b600060208284031215613f9c57613f9b6134b4565b5b6000613faa84828501613f71565b91505092915050565b7f4e487b7100000000000000000000000000000000000000000000000000000000600052601160045260246000fd5b6000613fed826134be565b9150613ff8836134be565b9250827fffffffffffffffffffffffffffffffffffffffffffffffffffffffffffffffff0382111561402d5761402c613fb3565b5b828201905092915050565b7f4e487b7100000000000000000000000000000000000000000000000000000000600052601260045260246000fd5b6000614072826134be565b915061407d836134be565b92508261408d5761408c614038565b5b828204905092915050565b7f596f75206d757374206f776e20736f6d6520746f6b656e7320746f206372656160008201527f746520612050726f706f73616c00000000000000000000000000000000000000602082015250565b60006140f4602d83613562565b91506140ff82614098565b604082019050919050565b60006020820190508181036000830152614123816140e7565b9050919050565b6000614135826134be565b91507fffffffffffffffffffffffffffffffffffffffffffffffffffffffffffffffff820361416757614166613fb3565b5b600182019050919050565b600061417d826134be565b9150614188836134be565b92508282101561419b5761419a613fb3565b5b828203905092915050565b7f4552433230566f7465733a20626c6f636b206e6f7420796574206d696e656400600082015250565b60006141dc601f83613562565b91506141e7826141a6565b602082019050919050565b6000602082019050818103600083015261420b816141cf565b9050919050565b7f4e487b7100000000000000000000000000000000000000000000000000000000600052603260045260246000fd5b7f45524332303a2064656372656173656420616c6c6f77616e63652062656c6f7760008201527f207a65726f000000000000000000000000000000000000000000000000000000602082015250565b600061429d602583613562565b91506142a882614241565b604082019050919050565b600060208201905081810360008301526142cc81614290565b9050919050565b7f4552433230566f7465733a207369676e61747572652065787069726564000000600082015250565b6000614309601d83613562565b9150614314826142d3565b602082019050919050565b60006020820190508181036000830152614338816142fc565b9050919050565b60006080820190506143546000830187613a27565b6143616020830186613631565b61436e60408301856135f0565b61437b60608301846135f0565b95945050505050565b7f4552433230566f7465733a20696e76616c6964206e6f6e636500000000000000600082015250565b60006143ba601983613562565b91506143c582614384565b602082019050919050565b600060208201905081810360008301526143e9816143ad565b9050919050565b7f45524332305065726d69743a206578706972656420646561646c696e65000000600082015250565b6000614426601d83613562565b9150614431826143f0565b602082019050919050565b6000602082019050818103600083015261445581614419565b9050919050565b600060c0820190506144716000830189613a27565b61447e6020830188613631565b61448b6040830187613631565b61449860608301866135f0565b6144a560808301856135f0565b6144b260a08301846135f0565b979650505050505050565b7f45524332305065726d69743a20696e76616c6964207369676e61747572650000600082015250565b60006144f3601e83613562565b91506144fe826144bd565b602082019050919050565b60006020820190508181036000830152614522816144e6565b9050919050565b7f4552433230566f7465733a20746f74616c20737570706c79207269736b73206f60008201527f766572666c6f77696e6720766f74657300000000000000000000000000000000602082015250565b6000614585603083613562565b915061459082614529565b604082019050919050565b600060208201905081810360008301526145b481614578565b9050919050565b7f45524332303a206d696e7420746f20746865207a65726f206164647265737300600082015250565b60006145f1601f83613562565b91506145fc826145bb565b602082019050919050565b60006020820190508181036000830152614620816145e4565b9050919050565b7f53616665436173743a2076616c756520646f65736e27742066697420696e203260008201527f3234206269747300000000000000000000000000000000000000000000000000602082015250565b6000614683602783613562565b915061468e82614627565b604082019050919050565b600060208201905081810360008301526146b281614676565b9050919050565b7f53616665436173743a2076616c756520646f65736e27742066697420696e203360008201527f3220626974730000000000000000000000000000000000000000000000000000602082015250565b6000614715602683613562565b9150614720826146b9565b604082019050919050565b6000602082019050818103600083015261474481614708565b9050919050565b6000614756826135ff565b9050919050565b6147668161474b565b82525050565b6000602082019050614781600083018461475d565b92915050565b600081519050614796816136fd565b92915050565b6000602082840312156147b2576147b16134b4565b5b60006147c084828501614787565b91505092915050565b60006080820190506147de600083018761475d565b6147eb60208301866135f0565b6147f860408301856135f0565b61480560608301846135f0565b95945050505050565b60008060408385031215614825576148246134b4565b5b600061483385828601614787565b925050602061484485828601613f71565b9150509250929050565b7f45524332303a20617070726f76652066726f6d20746865207a65726f2061646460008201527f7265737300000000000000000000000000000000000000000000000000000000602082015250565b60006148aa602483613562565b91506148b58261484e565b604082019050919050565b600060208201905081810360008301526148d98161489d565b9050919050565b7f45524332303a20617070726f766520746f20746865207a65726f20616464726560008201527f7373000000000000000000000000000000000000000000000000000000000000602082015250565b600061493c602283613562565b9150614947826148e0565b604082019050919050565b6000602082019050818103600083015261496b8161492f565b9050919050565b7f45524332303a20696e73756666696369656e7420616c6c6f77616e6365000000600082015250565b60006149a8601d83613562565b91506149b382614972565b602082019050919050565b600060208201905081810360008301526149d78161499b565b9050919050565b7f45524332303a207472616e736665722066726f6d20746865207a65726f20616460008201527f6472657373000000000000000000000000000000000000000000000000000000602082015250565b6000614a3a602583613562565b9150614a45826149de565b604082019050919050565b60006020820190508181036000830152614a6981614a2d565b9050919050565b7f45524332303a207472616e7366657220746f20746865207a65726f206164647260008201527f6573730000000000000000000000000000000000000000000000000000000000602082015250565b6000614acc602383613562565b9150614ad782614a70565b604082019050919050565b60006020820190508181036000830152614afb81614abf565b9050919050565b7f45524332303a207472616e7366657220616d6f756e742065786365656473206260008201527f616c616e63650000000000000000000000000000000000000000000000000000602082015250565b6000614b5e602683613562565b9150614b6982614b02565b604082019050919050565b60006020820190508181036000830152614b8d81614b51565b9050919050565b6000604082019050614ba960008301856135f0565b614bb660208301846135f0565b9392505050565b600060a082019050614bd26000830188613a27565b614bdf6020830187613a27565b614bec6040830186613a27565b614bf960608301856135f0565b614c066080830184613631565b9695505050505050565b600081905092915050565b7f1901000000000000000000000000000000000000000000000000000000000000600082015250565b6000614c51600283614c10565b9150614c5c82614c1b565b600282019050919050565b6000819050919050565b614c82614c7d82613a1d565b614c67565b82525050565b6000614c9382614c44565b9150614c9f8285614c71565b602082019150614caf8284614c71565b6020820191508190509392505050565b6000608082019050614cd46000830187613a27565b614ce160208301866139f3565b614cee6040830185613a27565b614cfb6060830184613a27565b95945050505050565b7f4e487b7100000000000000000000000000000000000000000000000000000000600052602160045260246000fd5b7f45434453413a20696e76616c6964207369676e61747572650000000000000000600082015250565b6000614d69601883613562565b9150614d7482614d33565b602082019050919050565b60006020820190508181036000830152614d9881614d5c565b9050919050565b7f45434453413a20696e76616c6964207369676e6174757265206c656e67746800600082015250565b6000614dd5601f83613562565b9150614de082614d9f565b602082019050919050565b60006020820190508181036000830152614e0481614dc8565b9050919050565b7f45434453413a20696e76616c6964207369676e6174757265202773272076616c60008201527f7565000000000000000000000000000000000000000000000000000000000000602082015250565b6000614e67602283613562565b9150614e7282614e0b565b604082019050919050565b60006020820190508181036000830152614e9681614e5a565b9050919050565b7f45434453413a20696e76616c6964207369676e6174757265202776272076616c60008201527f7565000000000000000000000000000000000000000000000000000000000000602082015250565b6000614ef9602283613562565b9150614f0482614e9d565b604082019050919050565b60006020820190508181036000830152614f2881614eec565b905091905056fea26469706673582212200bff745c67b452d5aa8da300315b4b72b490f943715860f80dc71ad27725556964736f6c634300080d003360806040526000601060006101000a81548173ffffffffffffffffffffffffffffffffffffffff021916908373ffffffffffffffffffffffffffffffffffffffff160217905550737176bd09199068e21be4137d1630fb8712633445601160006101000a81548173ffffffffffffffffffffffffffffffffffffffff021916908373ffffffffffffffffffffffffffffffffffffffff160217905550348015620000a857600080fd5b5060405162003da438038062003da48339818101604052810190620000ce9190620006bd565b620000ee620000e2620003c960201b60201c565b620003d160201b60201c565b80600160000160006101000a81548173ffffffffffffffffffffffffffffffffffffffff021916908373ffffffffffffffffffffffffffffffffffffffff16021790555087600180018190555086600160020181905550600060016003018190555084600160050181905550836001600c0160006101000a81548173ffffffffffffffffffffffffffffffffffffffff021916908373ffffffffffffffffffffffffffffffffffffffff160217905550436001600a01600080815260200190815260200160002081905550600060016006018190555060006001600b01600080815260200190815260200160002081905550826001600d0160006101000a81548173ffffffffffffffffffffffffffffffffffffffff021916908373ffffffffffffffffffffffffffffffffffffffff160217905550601060009054906101000a900473ffffffffffffffffffffffffffffffffffffffff166001600e0160006101000a81548173ffffffffffffffffffffffffffffffffffffffff021916908373ffffffffffffffffffffffffffffffffffffffff1602179055508560016007018190555060656001600401819055504260016008018190555080601260006101000a81548173ffffffffffffffffffffffffffffffffffffffff021916908373ffffffffffffffffffffffffffffffffffffffff160217905550601060009054906101000a900473ffffffffffffffffffffffffffffffffffffffff1673ffffffffffffffffffffffffffffffffffffffff166001600d0160009054906101000a900473ffffffffffffffffffffffffffffffffffffffff1673ffffffffffffffffffffffffffffffffffffffff16146200038a576002600160090160006101000a81548160ff021916908360ff160217905550620003aa565b6000600160090160006101000a81548160ff021916908360ff1602179055505b620003bb826200049560201b60201c565b5050505050505050620008a1565b600033905090565b60008060009054906101000a900473ffffffffffffffffffffffffffffffffffffffff169050816000806101000a81548173ffffffffffffffffffffffffffffffffffffffff021916908373ffffffffffffffffffffffffffffffffffffffff1602179055508173ffffffffffffffffffffffffffffffffffffffff168173ffffffffffffffffffffffffffffffffffffffff167f8be0079c531659141344cd1fd0a4f28419497f9722a3daafe3b4186f6b6457e060405160405180910390a35050565b620004a5620003c960201b60201c565b73ffffffffffffffffffffffffffffffffffffffff16620004cb620005aa60201b60201c565b73ffffffffffffffffffffffffffffffffffffffff161462000524576040517f08c379a00000000000000000000000000000000000000000000000000000000081526004016200051b90620007e7565b60405180910390fd5b600073ffffffffffffffffffffffffffffffffffffffff168173ffffffffffffffffffffffffffffffffffffffff160362000596576040517f08c379a00000000000000000000000000000000000000000000000000000000081526004016200058d906200087f565b60405180910390fd5b620005a781620003d160201b60201c565b50565b60008060009054906101000a900473ffffffffffffffffffffffffffffffffffffffff16905090565b600080fd5b6000819050919050565b620005ed81620005d8565b8114620005f957600080fd5b50565b6000815190506200060d81620005e2565b92915050565b600073ffffffffffffffffffffffffffffffffffffffff82169050919050565b6000620006408262000613565b9050919050565b620006528162000633565b81146200065e57600080fd5b50565b600081519050620006728162000647565b92915050565b6000620006858262000613565b9050919050565b620006978162000678565b8114620006a357600080fd5b50565b600081519050620006b7816200068c565b92915050565b600080600080600080600080610100898b031215620006e157620006e0620005d3565b5b6000620006f18b828c01620005fc565b9850506020620007048b828c01620005fc565b9750506040620007178b828c01620005fc565b96505060606200072a8b828c01620005fc565b95505060806200073d8b828c0162000661565b94505060a0620007508b828c0162000661565b93505060c0620007638b828c01620006a6565b92505060e0620007768b828c01620006a6565b9150509295985092959890939650565b600082825260208201905092915050565b7f4f776e61626c653a2063616c6c6572206973206e6f7420746865206f776e6572600082015250565b6000620007cf60208362000786565b9150620007dc8262000797565b602082019050919050565b600060208201905081810360008301526200080281620007c0565b9050919050565b7f4f776e61626c653a206e6577206f776e657220697320746865207a65726f206160008201527f6464726573730000000000000000000000000000000000000000000000000000602082015250565b60006200086760268362000786565b9150620008748262000809565b604082019050919050565b600060208201905081810360008301526200089a8162000858565b9050919050565b6134f380620008b16000396000f3fe60806040526004361061020f5760003560e01c80638da5cb5b11610118578063c1aee7f8116100a0578063d8beb8851161006f578063d8beb8851461078d578063e00e831c146107ca578063f016417114610807578063f26f0cd214610832578063f2fde38b1461086f5761020f565b8063c1aee7f8146106bd578063c5efe295146106e8578063cbc368fc14610713578063d5252dcf146107505761020f565b80639c7de69e116100e75780639c7de69e14610607578063a4f9e18e14610632578063a69f55e41461065d578063a709c4fe14610688578063ab4f7bac146106925761020f565b80638da5cb5b1461055b57806390230fb91461058657806396d83441146105b157806397d1e45d146105dc5761020f565b806363a54c8c1161019b5780637e4416e61161016a5780637e4416e6146104645780637ea1fcb81461048d5780638380adab146104b8578063842159a2146104e15780638c24f7dc1461051e5761020f565b806363a54c8c146103ba578063715018a6146103f757806377d487571461040e57806379dc52de146104395761020f565b806332079851116101e257806332079851146102ac57806335a08319146102e95780634e69d560146103275780635ac2bb13146103525780636322182e1461038f5761020f565b80630b3bb024146102145780631efec5241461023f5780632cfe6fcc146102565780632f93b5b314610281575b600080fd5b34801561022057600080fd5b50610229610898565b60405161023691906126cb565b60405180910390f35b34801561024b57600080fd5b506102546108c5565b005b34801561026257600080fd5b5061026b610961565b60405161027891906126cb565b60405180910390f35b34801561028d57600080fd5b50610296610b02565b6040516102a391906126ff565b60405180910390f35b3480156102b857600080fd5b506102d360048036038101906102ce919061274b565b610b0e565b6040516102e091906126ff565b60405180910390f35b3480156102f557600080fd5b50610310600480360381019061030b91906127b6565b610dfb565b60405161031e92919061281d565b60405180910390f35b34801561033357600080fd5b5061033c610f8b565b6040516103499190612862565b60405180910390f35b34801561035e57600080fd5b506103796004803603810190610374919061287d565b610fa5565b60405161038691906126cb565b60405180910390f35b34801561039b57600080fd5b506103a4611094565b6040516103b191906126ff565b60405180910390f35b3480156103c657600080fd5b506103e160048036038101906103dc919061274b565b611398565b6040516103ee91906126ff565b60405180910390f35b34801561040357600080fd5b5061040c61142b565b005b34801561041a57600080fd5b506104236114b3565b60405161043091906126ff565b60405180910390f35b34801561044557600080fd5b5061044e6114c0565b60405161045b91906126ff565b60405180910390f35b34801561047057600080fd5b5061048b600480360381019061048691906128e2565b6114cd565b005b34801561049957600080fd5b506104a26117c2565b6040516104af91906126ff565b60405180910390f35b3480156104c457600080fd5b506104df60048036038101906104da919061274b565b6117cf565b005b3480156104ed57600080fd5b506105086004803603810190610503919061274b565b611951565b60405161051591906126ff565b60405180910390f35b34801561052a57600080fd5b506105456004803603810190610540919061293b565b6119e6565b604051610552919061298a565b60405180910390f35b34801561056757600080fd5b50610570611a4e565b60405161057d91906126cb565b60405180910390f35b34801561059257600080fd5b5061059b611a77565b6040516105a891906126ff565b60405180910390f35b3480156105bd57600080fd5b506105c6611a84565b6040516105d391906126cb565b60405180910390f35b3480156105e857600080fd5b506105f1611ab1565b6040516105fe91906126cb565b60405180910390f35b34801561061357600080fd5b5061061c611bac565b60405161062991906126ff565b60405180910390f35b34801561063e57600080fd5b50610647611be1565b60405161065491906126ff565b60405180910390f35b34801561066957600080fd5b50610672611c04565b60405161067f91906126ff565b60405180910390f35b610690611c11565b005b34801561069e57600080fd5b506106a7612275565b6040516106b491906126ff565b60405180910390f35b3480156106c957600080fd5b506106d2612282565b6040516106df91906126cb565b60405180910390f35b3480156106f457600080fd5b506106fd6122af565b60405161070a91906126ff565b60405180910390f35b34801561071f57600080fd5b5061073a600480360381019061073591906129a5565b6122d2565b604051610747919061298a565b60405180910390f35b34801561075c57600080fd5b506107776004803603810190610772919061274b565b61233e565b60405161078491906126ff565b60405180910390f35b34801561079957600080fd5b506107b460048036038101906107af919061274b565b6123e5565b6040516107c191906126ff565b60405180910390f35b3480156107d657600080fd5b506107f160048036038101906107ec919061274b565b61247a565b6040516107fe91906126ff565b60405180910390f35b34801561081357600080fd5b5061081c61249a565b60405161082991906126ff565b60405180910390f35b34801561083e57600080fd5b506108596004803603810190610854919061274b565b6124a7565b60405161086691906126ff565b60405180910390f35b34801561087b57600080fd5b50610896600480360381019061089191906129a5565b6124c7565b005b60006001600d0160009054906101000a900473ffffffffffffffffffffffffffffffffffffffff16905090565b6228206f600160080154426108da9190612a01565b1161091a576040517f08c379a000000000000000000000000000000000000000000000000000000000815260040161091190612a92565b60405180910390fd5b4260016008018190555060018060060160008282546109399190612ab2565b925050819055506002600160090160006101000a81548160ff021916908360ff160217905550565b600061096b6125be565b73ffffffffffffffffffffffffffffffffffffffff16610989611a4e565b73ffffffffffffffffffffffffffffffffffffffff16146109df576040517f08c379a00000000000000000000000000000000000000000000000000000000081526004016109d690612b54565b60405180910390fd5b6001600d0160009054906101000a900473ffffffffffffffffffffffffffffffffffffffff166001600e0160006101000a81548173ffffffffffffffffffffffffffffffffffffffff021916908373ffffffffffffffffffffffffffffffffffffffff160217905550601060009054906101000a900473ffffffffffffffffffffffffffffffffffffffff166001600d0160006101000a81548173ffffffffffffffffffffffffffffffffffffffff021916908373ffffffffffffffffffffffffffffffffffffffff160217905550600060016007018190555060018060090160006101000a81548160ff021916908360ff1602179055506001600d0160009054906101000a900473ffffffffffffffffffffffffffffffffffffffff16905090565b60006001800154905090565b60006013600083815260200190815260200160002060003373ffffffffffffffffffffffffffffffffffffffff1673ffffffffffffffffffffffffffffffffffffffff16815260200190815260200160002060009054906101000a900460ff1615610bae576040517f08c379a0000000000000000000000000000000000000000000000000000000008152600401610ba590612bc0565b60405180910390fd5b60006001600b0160008481526020019081526020016000205411610c07576040517f08c379a0000000000000000000000000000000000000000000000000000000008152600401610bfe90612c2c565b60405180910390fd5b6000601260009054906101000a900473ffffffffffffffffffffffffffffffffffffffff16905060008173ffffffffffffffffffffffffffffffffffffffff16633a46b1a8336001600a016000888152602001908152602001600020546040518363ffffffff1660e01b8152600401610c8192919061281d565b602060405180830381865afa158015610c9e573d6000803e3d6000fd5b505050506040513d601f19601f82011682018060405250810190610cc29190612c61565b905060008103610d07576040517f08c379a0000000000000000000000000000000000000000000000000000000008152600401610cfe90612cda565b60405180910390fd5b6000670de0b6b3a7640000826001600b01600088815260200190815260200160002054610d349190612cfa565b610d3e9190612d83565b90503373ffffffffffffffffffffffffffffffffffffffff166108fc829081150290604051600060405180830381858888f19350505050158015610d86573d6000803e3d6000fd5b5060016013600087815260200190815260200160002060003373ffffffffffffffffffffffffffffffffffffffff1673ffffffffffffffffffffffffffffffffffffffff16815260200190815260200160002060006101000a81548160ff021916908315150217905550809350505050919050565b600080610e066125be565b73ffffffffffffffffffffffffffffffffffffffff16610e24611a4e565b73ffffffffffffffffffffffffffffffffffffffff1614610e7a576040517f08c379a0000000000000000000000000000000000000000000000000000000008152600401610e7190612b54565b60405180910390fd5b6002600160090160009054906101000a900460ff1660ff1610610ed2576040517f08c379a0000000000000000000000000000000000000000000000000000000008152600401610ec990612e26565b60405180910390fd5b856001600d0160006101000a81548173ffffffffffffffffffffffffffffffffffffffff021916908373ffffffffffffffffffffffffffffffffffffffff16021790555084600160070181905550836001800181905550826001600201819055506002600160090160006101000a81548160ff021916908360ff1602179055506001600d0160009054906101000a900473ffffffffffffffffffffffffffffffffffffffff166001600701549150915094509492505050565b6000600160090160009054906101000a900460ff16905090565b6000610faf6125be565b73ffffffffffffffffffffffffffffffffffffffff16610fcd611a4e565b73ffffffffffffffffffffffffffffffffffffffff1614611023576040517f08c379a000000000000000000000000000000000000000000000000000000000815260040161101a90612b54565b60405180910390fd5b816001600c0160006101000a81548173ffffffffffffffffffffffffffffffffffffffff021916908373ffffffffffffffffffffffffffffffffffffffff1602179055506001600c0160009054906101000a900473ffffffffffffffffffffffffffffffffffffffff169050919050565b600060136000600160060154815260200190815260200160002060003373ffffffffffffffffffffffffffffffffffffffff1673ffffffffffffffffffffffffffffffffffffffff16815260200190815260200160002060009054906101000a900460ff1615611139576040517f08c379a000000000000000000000000000000000000000000000000000000000815260040161113090612bc0565b60405180910390fd5b60006001600b01600060016006015481526020019081526020016000205411611197576040517f08c379a000000000000000000000000000000000000000000000000000000000815260040161118e90612c2c565b60405180910390fd5b6000601260009054906101000a900473ffffffffffffffffffffffffffffffffffffffff16905060008173ffffffffffffffffffffffffffffffffffffffff16633a46b1a8336001600a0160006001600601548152602001908152602001600020546040518363ffffffff1660e01b815260040161121692919061281d565b602060405180830381865afa158015611233573d6000803e3d6000fd5b505050506040513d601f19601f820116820180604052508101906112579190612c61565b90506000810361129c576040517f08c379a000000000000000000000000000000000000000000000000000000000815260040161129390612cda565b60405180910390fd5b6000670de0b6b3a7640000826001600b0160006001600601548152602001908152602001600020546112ce9190612cfa565b6112d89190612d83565b90503373ffffffffffffffffffffffffffffffffffffffff166108fc829081150290604051600060405180830381858888f19350505050158015611320573d6000803e3d6000fd5b50600160136000600160060154815260200190815260200160002060003373ffffffffffffffffffffffffffffffffffffffff1673ffffffffffffffffffffffffffffffffffffffff16815260200190815260200160002060006101000a81548160ff02191690831515021790555080935050505090565b60006113a26125be565b73ffffffffffffffffffffffffffffffffffffffff166113c0611a4e565b73ffffffffffffffffffffffffffffffffffffffff1614611416576040517f08c379a000000000000000000000000000000000000000000000000000000000815260040161140d90612b54565b60405180910390fd5b81600180018190555060018001549050919050565b6114336125be565b73ffffffffffffffffffffffffffffffffffffffff16611451611a4e565b73ffffffffffffffffffffffffffffffffffffffff16146114a7576040517f08c379a000000000000000000000000000000000000000000000000000000000815260040161149e90612b54565b60405180910390fd5b6114b160006125c6565b565b6000600160030154905090565b6000600160040154905090565b6001600e0160009054906101000a900473ffffffffffffffffffffffffffffffffffffffff1673ffffffffffffffffffffffffffffffffffffffff163373ffffffffffffffffffffffffffffffffffffffff1614611560576040517f08c379a000000000000000000000000000000000000000000000000000000000815260040161155790612eb8565b60405180910390fd5b6065600160040154036115a8576040517f08c379a000000000000000000000000000000000000000000000000000000000815260040161159f90612f4a565b60405180910390fd5b60006001600301549050600060016003018190555081156116e3576001600c0160009054906101000a900473ffffffffffffffffffffffffffffffffffffffff1673ffffffffffffffffffffffffffffffffffffffff166108fc6064600160040154846116159190612cfa565b61161f9190612d83565b9081150290604051600060405180830381858888f1935050505015801561164a573d6000803e3d6000fd5b506001600e0160009054906101000a900473ffffffffffffffffffffffffffffffffffffffff1673ffffffffffffffffffffffffffffffffffffffff166108fc60646001600401548461169d9190612cfa565b6116a79190612d83565b836116b29190612a01565b9081150290604051600060405180830381858888f193505050501580156116dd573d6000803e3d6000fd5b5061174d565b601160009054906101000a900473ffffffffffffffffffffffffffffffffffffffff1673ffffffffffffffffffffffffffffffffffffffff166108fc829081150290604051600060405180830381858888f1935050505015801561174b573d6000803e3d6000fd5b505b601060009054906101000a900473ffffffffffffffffffffffffffffffffffffffff166001600e0160006101000a81548173ffffffffffffffffffffffffffffffffffffffff021916908373ffffffffffffffffffffffffffffffffffffffff16021790555060656001600401819055505050565b6000600160050154905090565b60658110611812576040517f08c379a000000000000000000000000000000000000000000000000000000000815260040161180990612fdc565b60405180910390fd5b6001600c0160009054906101000a900473ffffffffffffffffffffffffffffffffffffffff1673ffffffffffffffffffffffffffffffffffffffff163373ffffffffffffffffffffffffffffffffffffffff16146118a5576040517f08c379a000000000000000000000000000000000000000000000000000000000815260040161189c9061306e565b60405180910390fd5b60018060090160009054906101000a900460ff1660ff16146118fc576040517f08c379a00000000000000000000000000000000000000000000000000000000081526004016118f3906130da565b60405180910390fd5b600060016003015411611944576040517f08c379a000000000000000000000000000000000000000000000000000000000815260040161193b9061316c565b60405180910390fd5b8060016004018190555050565b600061195b6125be565b73ffffffffffffffffffffffffffffffffffffffff16611979611a4e565b73ffffffffffffffffffffffffffffffffffffffff16146119cf576040517f08c379a00000000000000000000000000000000000000000000000000000000081526004016119c690612b54565b60405180910390fd5b816001600201819055506001600201549050919050565b60006013600083815260200190815260200160002060008473ffffffffffffffffffffffffffffffffffffffff1673ffffffffffffffffffffffffffffffffffffffff16815260200190815260200160002060009054906101000a900460ff16905092915050565b60008060009054906101000a900473ffffffffffffffffffffffffffffffffffffffff16905090565b6000600160020154905090565b60006001600e0160009054906101000a900473ffffffffffffffffffffffffffffffffffffffff16905090565b6000601160009054906101000a900473ffffffffffffffffffffffffffffffffffffffff1673ffffffffffffffffffffffffffffffffffffffff163373ffffffffffffffffffffffffffffffffffffffff1614611b43576040517f08c379a0000000000000000000000000000000000000000000000000000000008152600401611b3a906131fe565b60405180910390fd5b33601160006101000a81548173ffffffffffffffffffffffffffffffffffffffff021916908373ffffffffffffffffffffffffffffffffffffffff160217905550601160009054906101000a900473ffffffffffffffffffffffffffffffffffffffff16905090565b60008060016003015414611bc65760018001549050611bde565b6001600201546001800154611bdb9190612ab2565b90505b90565b60006001600b016000600160060154815260200190815260200160002054905090565b6000600160070154905090565b6002600160090160009054906101000a900460ff1660ff1614611c69576040517f08c379a0000000000000000000000000000000000000000000000000000000008152600401611c609061326a565b60405180910390fd5b600060016007015411611cb1576040517f08c379a0000000000000000000000000000000000000000000000000000000008152600401611ca8906132d6565b60405180910390fd5b600060016003015414611fe0576001800154341015611d05576040517f08c379a0000000000000000000000000000000000000000000000000000000008152600401611cfc90613342565b60405180910390fd5b436001600a0160006001600601548152602001908152602001600020819055506001600c0160009054906101000a900473ffffffffffffffffffffffffffffffffffffffff1673ffffffffffffffffffffffffffffffffffffffff166108fc606434600160050154611d779190612cfa565b611d819190612d83565b9081150290604051600060405180830381858888f19350505050158015611dac573d6000803e3d6000fd5b50670de0b6b3a7640000600160000160009054906101000a900473ffffffffffffffffffffffffffffffffffffffff1673ffffffffffffffffffffffffffffffffffffffff166318160ddd6040518163ffffffff1660e01b8152600401602060405180830381865afa158015611e26573d6000803e3d6000fd5b505050506040513d601f19601f82011682018060405250810190611e4a9190612c61565b611e549190612d83565b606434600160050154611e679190612cfa565b611e719190612d83565b34611e7c9190612a01565b611e869190612d83565b6001600b0160006001600601548152602001908152602001600020819055506001806007016000828254611eba9190612a01565b925050819055506003600160090160006101000a81548160ff021916908360ff160217905550600060016007015403611fdb576001600d0160009054906101000a900473ffffffffffffffffffffffffffffffffffffffff166001600e0160006101000a81548173ffffffffffffffffffffffffffffffffffffffff021916908373ffffffffffffffffffffffffffffffffffffffff160217905550601060009054906101000a900473ffffffffffffffffffffffffffffffffffffffff166001600d0160006101000a81548173ffffffffffffffffffffffffffffffffffffffff021916908373ffffffffffffffffffffffffffffffffffffffff16021790555060018060090160006101000a81548160ff021916908360ff1602179055505b612238565b6001600201546001800154611ff59190612ab2565b341015612037576040517f08c379a000000000000000000000000000000000000000000000000000000000815260040161202e906133d4565b60405180910390fd5b436001600a0160006001600601548152602001908152602001600020819055506001600c0160009054906101000a900473ffffffffffffffffffffffffffffffffffffffff1673ffffffffffffffffffffffffffffffffffffffff166108fc606460018001546001600501546120ad9190612cfa565b6120b79190612d83565b9081150290604051600060405180830381858888f193505050501580156120e2573d6000803e3d6000fd5b50670de0b6b3a7640000600160000160009054906101000a900473ffffffffffffffffffffffffffffffffffffffff1673ffffffffffffffffffffffffffffffffffffffff166318160ddd6040518163ffffffff1660e01b8152600401602060405180830381865afa15801561215c573d6000803e3d6000fd5b505050506040513d601f19601f820116820180604052508101906121809190612c61565b61218a9190612d83565b606460018001546001600501546121a19190612cfa565b6121ab9190612d83565b60018001546121ba9190612a01565b6121c49190612d83565b6001600b0160006001600601548152602001908152602001600020819055506001800154346121f39190612a01565b60016003018190555060018060070160008282546122119190612a01565b925050819055506003600160090160006101000a81548160ff021916908360ff1602179055505b7f33d9ffd7947b17c37c9905165c01183282058f1cb2252c9be395887d078572ad33344360405161226b939291906133f4565b60405180910390a1565b6000600160060154905090565b60006001600c0160009054906101000a900473ffffffffffffffffffffffffffffffffffffffff16905090565b60006001600a016000600160060154815260200190815260200160002054905090565b600060136000600160060154815260200190815260200160002060008373ffffffffffffffffffffffffffffffffffffffff1673ffffffffffffffffffffffffffffffffffffffff16815260200190815260200160002060009054906101000a900460ff169050919050565b60006123486125be565b73ffffffffffffffffffffffffffffffffffffffff16612366611a4e565b73ffffffffffffffffffffffffffffffffffffffff16146123bc576040517f08c379a00000000000000000000000000000000000000000000000000000000081526004016123b390612b54565b60405180910390fd5b81600160070160008282546123d19190612ab2565b925050819055506001600701549050919050565b60006123ef6125be565b73ffffffffffffffffffffffffffffffffffffffff1661240d611a4e565b73ffffffffffffffffffffffffffffffffffffffff1614612463576040517f08c379a000000000000000000000000000000000000000000000000000000000815260040161245a90612b54565b60405180910390fd5b816001600501819055506001600501549050919050565b60006001600a016000838152602001908152602001600020549050919050565b6000600160080154905090565b60006001600b016000838152602001908152602001600020549050919050565b6124cf6125be565b73ffffffffffffffffffffffffffffffffffffffff166124ed611a4e565b73ffffffffffffffffffffffffffffffffffffffff1614612543576040517f08c379a000000000000000000000000000000000000000000000000000000000815260040161253a90612b54565b60405180910390fd5b600073ffffffffffffffffffffffffffffffffffffffff168173ffffffffffffffffffffffffffffffffffffffff16036125b2576040517f08c379a00000000000000000000000000000000000000000000000000000000081526004016125a99061349d565b60405180910390fd5b6125bb816125c6565b50565b600033905090565b60008060009054906101000a900473ffffffffffffffffffffffffffffffffffffffff169050816000806101000a81548173ffffffffffffffffffffffffffffffffffffffff021916908373ffffffffffffffffffffffffffffffffffffffff1602179055508173ffffffffffffffffffffffffffffffffffffffff168173ffffffffffffffffffffffffffffffffffffffff167f8be0079c531659141344cd1fd0a4f28419497f9722a3daafe3b4186f6b6457e060405160405180910390a35050565b600073ffffffffffffffffffffffffffffffffffffffff82169050919050565b60006126b58261268a565b9050919050565b6126c5816126aa565b82525050565b60006020820190506126e060008301846126bc565b92915050565b6000819050919050565b6126f9816126e6565b82525050565b600060208201905061271460008301846126f0565b92915050565b600080fd5b612728816126e6565b811461273357600080fd5b50565b6000813590506127458161271f565b92915050565b6000602082840312156127615761276061271a565b5b600061276f84828501612736565b91505092915050565b60006127838261268a565b9050919050565b61279381612778565b811461279e57600080fd5b50565b6000813590506127b08161278a565b92915050565b600080600080608085870312156127d0576127cf61271a565b5b60006127de878288016127a1565b94505060206127ef87828801612736565b935050604061280087828801612736565b925050606061281187828801612736565b91505092959194509250565b600060408201905061283260008301856126bc565b61283f60208301846126f0565b9392505050565b600060ff82169050919050565b61285c81612846565b82525050565b60006020820190506128776000830184612853565b92915050565b6000602082840312156128935761289261271a565b5b60006128a1848285016127a1565b91505092915050565b60008115159050919050565b6128bf816128aa565b81146128ca57600080fd5b50565b6000813590506128dc816128b6565b92915050565b6000602082840312156128f8576128f761271a565b5b6000612906848285016128cd565b91505092915050565b612918816126aa565b811461292357600080fd5b50565b6000813590506129358161290f565b92915050565b600080604083850312156129525761295161271a565b5b600061296085828601612926565b925050602061297185828601612736565b9150509250929050565b612984816128aa565b82525050565b600060208201905061299f600083018461297b565b92915050565b6000602082840312156129bb576129ba61271a565b5b60006129c984828501612926565b91505092915050565b7f4e487b7100000000000000000000000000000000000000000000000000000000600052601160045260246000fd5b6000612a0c826126e6565b9150612a17836126e6565b925082821015612a2a57612a296129d2565b5b828203905092915050565b600082825260208201905092915050565b7f4f6e65206d6f6e746820686173206e6f7420676f6e6520627920796574000000600082015250565b6000612a7c601d83612a35565b9150612a8782612a46565b602082019050919050565b60006020820190508181036000830152612aab81612a6f565b9050919050565b6000612abd826126e6565b9150612ac8836126e6565b9250827fffffffffffffffffffffffffffffffffffffffffffffffffffffffffffffffff03821115612afd57612afc6129d2565b5b828201905092915050565b7f4f776e61626c653a2063616c6c6572206973206e6f7420746865206f776e6572600082015250565b6000612b3e602083612a35565b9150612b4982612b08565b602082019050919050565b60006020820190508181036000830152612b6d81612b31565b9050919050565b7f52656e7420616c726561647920636c61696d6564000000000000000000000000600082015250565b6000612baa601483612a35565b9150612bb582612b74565b602082019050919050565b60006020820190508181036000830152612bd981612b9d565b9050919050565b7f52656e74206e6f7420617661696c61626c652079657400000000000000000000600082015250565b6000612c16601683612a35565b9150612c2182612be0565b602082019050919050565b60006020820190508181036000830152612c4581612c09565b9050919050565b600081519050612c5b8161271f565b92915050565b600060208284031215612c7757612c7661271a565b5b6000612c8584828501612c4c565b91505092915050565b7f4e6f2064656c65676174656420766f7465730000000000000000000000000000600082015250565b6000612cc4601283612a35565b9150612ccf82612c8e565b602082019050919050565b60006020820190508181036000830152612cf381612cb7565b9050919050565b6000612d05826126e6565b9150612d10836126e6565b9250817fffffffffffffffffffffffffffffffffffffffffffffffffffffffffffffffff0483118215151615612d4957612d486129d2565b5b828202905092915050565b7f4e487b7100000000000000000000000000000000000000000000000000000000600052601260045260246000fd5b6000612d8e826126e6565b9150612d99836126e6565b925082612da957612da8612d54565b5b828204905092915050565b7f43757272656e742074656e616e74206d7573742062652072656d6f766564206660008201527f6972737400000000000000000000000000000000000000000000000000000000602082015250565b6000612e10602483612a35565b9150612e1b82612db4565b604082019050919050565b60006020820190508181036000830152612e3f81612e03565b9050919050565b7f4f6e6c79207468652070726576696f75732074656e616e742063616e2063616c60008201527f6c20746869732066756e6374696f6e0000000000000000000000000000000000602082015250565b6000612ea2602f83612a35565b9150612ead82612e46565b604082019050919050565b60006020820190508181036000830152612ed181612e95565b9050919050565b7f4e6f206465706f7369742070726f706f73616c20686173206265656e2063726560008201527f6174656420796574000000000000000000000000000000000000000000000000602082015250565b6000612f34602883612a35565b9150612f3f82612ed8565b604082019050919050565b60006020820190508181036000830152612f6381612f27565b9050919050565b7f506c6561736520656e74657220612076616c69642025206f662074686520646560008201527f706f736974000000000000000000000000000000000000000000000000000000602082015250565b6000612fc6602583612a35565b9150612fd182612f6a565b604082019050919050565b60006020820190508181036000830152612ff581612fb9565b9050919050565b7f4f6e6c7920746865206361726574616b65722063616e2063616c6c207468697360008201527f2066756e6374696f6e0000000000000000000000000000000000000000000000602082015250565b6000613058602983612a35565b915061306382612ffc565b604082019050919050565b600060208201905081810360008301526130878161304b565b9050919050565b7f52656e74616c20636f6e7472616374206973206e6f74206f7665720000000000600082015250565b60006130c4601b83612a35565b91506130cf8261308e565b602082019050919050565b600060208201905081810360008301526130f3816130b7565b9050919050565b7f4465706f7369742068617320616c7265616479206265656e207769746864726160008201527f776e000000000000000000000000000000000000000000000000000000000000602082015250565b6000613156602283612a35565b9150613161826130fa565b604082019050919050565b6000602082019050818103600083015261318581613149565b9050919050565b7f46756e6374696f6e206d7573742062652063616c6c65642066726f6d2063757260008201527f72656e7420646973707574654164647265737300000000000000000000000000602082015250565b60006131e8603383612a35565b91506131f38261318c565b604082019050919050565b60006020820190508181036000830152613217816131db565b9050919050565b7f52656e74206973206e6f74206475652079657400000000000000000000000000600082015250565b6000613254601383612a35565b915061325f8261321e565b602082019050919050565b6000602082019050818103600083015261328381613247565b9050919050565b7f52656e74616c20636f6e7472616374206973206f766572000000000000000000600082015250565b60006132c0601783612a35565b91506132cb8261328a565b602082019050919050565b600060208201905081810360008301526132ef816132b3565b9050919050565b7f4e6f7420656e6f7567682065746820746f20636f7665722072656e7400000000600082015250565b600061332c601c83612a35565b9150613337826132f6565b602082019050919050565b6000602082019050818103600083015261335b8161331f565b9050919050565b7f4e6f7420656e6f7567682065746820746f20636f7665722072656e742026206460008201527f65706f7369740000000000000000000000000000000000000000000000000000602082015250565b60006133be602683612a35565b91506133c982613362565b604082019050919050565b600060208201905081810360008301526133ed816133b1565b9050919050565b600060608201905061340960008301866126bc565b61341660208301856126f0565b61342360408301846126f0565b949350505050565b7f4f776e61626c653a206e6577206f776e657220697320746865207a65726f206160008201527f6464726573730000000000000000000000000000000000000000000000000000602082015250565b6000613487602683612a35565b91506134928261342b565b604082019050919050565b600060208201905081810360008301526134b68161347a565b905091905056fea26469706673582212206123f859936195c4702f0adeb8b09a73b64ae729b0ce9a1c9512dbac63831ca664736f6c634300080d0033",
  "immutableReferences": {
    "1538": [
      {
        "length": 32,
        "start": 6306
      }
    ],
    "2427": [
      {
        "length": 32,
        "start": 10279
      }
    ],
    "2429": [
      {
        "length": 32,
        "start": 10238
      }
    ],
    "2431": [
      {
        "length": 32,
        "start": 10152
      }
    ],
    "2433": [
      {
        "length": 32,
        "start": 10355
      }
    ],
    "2435": [
      {
        "length": 32,
        "start": 10388
      }
    ],
    "2437": [
      {
        "length": 32,
        "start": 10322
      }
    ]
  },
  "source": "//SPDX-License-Identifier: PENDING\r\n\r\npragma solidity ^0.8.0;\r\n\r\nimport \"./Rent.sol\";\r\nimport \"@openzeppelin/contracts/token/ERC20/ERC20.sol\";\r\nimport \"@openzeppelin/contracts/token/ERC20/extensions/ERC20Votes.sol\";\r\n\r\ncontract NewToken is ERC20, ERC20Votes {\r\n\r\n    Rent public rent;\r\n\r\n    struct proposal {\r\n        string title;\r\n        string description;\r\n        uint proposalType; //0-generic, 1-changeRentPrice, 2-changeDepositPrice, 3-changeCaretakerShare, 4-changeCaretaker, 5-removeTenant, 6-newTenant, 7-renewContract\r\n        uint id; //id for proposal in database\r\n        uint blockNumber;\r\n        uint uint0;\r\n        uint uint1;\r\n        uint uint2;\r\n        address address0;\r\n    }\r\n    uint public proposalNumber = 0;\r\n    mapping(uint => proposal) public proposals;\r\n    mapping(uint => uint) public votes;\r\n    mapping(uint => bool) public votingResult;\r\n    mapping(uint => mapping(address => bool)) voters; //true means voted for that id proposal already\r\n\r\n    constructor(uint tokenNumber, string memory name, string memory symbol, uint _rentPrice, uint _depositPrice, uint _remainingMonths, uint _caretakerShare, address payable _caretaker, address payable _tenant) ERC20(string(abi.encodePacked(\"dstate-\", name)), symbol) ERC20Permit(\"Governance\") {\r\n        _mint(msg.sender,tokenNumber*10**18);\r\n        delegate(msg.sender);\r\n\r\n        rent = new Rent(_rentPrice, _depositPrice, _remainingMonths, _caretakerShare, _caretaker, _tenant, address(this), address(this));\r\n\r\n    }\r\n    \r\n    function _afterTokenTransfer(address from, address to, uint256 amount) internal override (ERC20, ERC20Votes) {\r\n        super._afterTokenTransfer(from, to, amount);\r\n        delegate(to);\r\n    }\r\n\r\n    function _mint(address to, uint256 amount) internal override(ERC20, ERC20Votes) {\r\n        super._mint(to, amount);\r\n    }\r\n\r\n    function _burn(address account, uint256 amount) internal override(ERC20, ERC20Votes) {\r\n        super._burn(account, amount);\r\n\r\n    }\r\n    \r\n\r\n    function createProposal(string memory _title, string memory _description, uint _proposalType, uint _uint0, uint  _uint1, uint _uint2, address _address0) public returns(uint _theId){\r\n        ERC20Votes token = ERC20Votes(address(this));\r\n        require(token.getVotes(msg.sender) > 0, \"You must own some tokens to create a Proposal\");\r\n        proposal memory prop = proposal(_title, _description, _proposalType, proposalNumber, block.number, _uint0,  _uint1, _uint2, _address0);\r\n        proposals[proposalNumber] = prop;\r\n        votes[proposalNumber] = 0;\r\n        proposalNumber++;\r\n        return proposalNumber - 1;\r\n    }\r\n\r\n    function vote(uint _proposalId) public returns(bool _result) {\r\n        require(!votingResult[_proposalId], \"Voting Ended\");\r\n        require(!voters[_proposalId][msg.sender], \"Already Voted\");\r\n        proposal memory prop = proposals[_proposalId];\r\n        ERC20Votes token = ERC20Votes(address(this));\r\n        votes[_proposalId] += token.getPastVotes(msg.sender, prop.blockNumber);\r\n        voters[_proposalId][msg.sender] = true;\r\n\r\n        if(votes[_proposalId] >= (this.totalSupply() / 2)){\r\n            votingResult[_proposalId] = true;\r\n\r\n            if(prop.proposalType == 0){\r\n                //generic\r\n                return true;\r\n            }\r\n            else if(prop.proposalType == 1) {\r\n                _changeRentPrice(prop);\r\n                return true;\r\n            }\r\n            else if(prop.proposalType == 2) {\r\n                _changeDepositPrice(prop);\r\n                return true;\r\n            }\r\n            else if(prop.proposalType == 3) {\r\n                _changeCaretakerShare(prop);\r\n                return true;\r\n            }\r\n            else if(prop.proposalType == 4) {\r\n                _changeCaretaker(prop);\r\n                return true;\r\n            }\r\n            else if(prop.proposalType == 5) {\r\n                _removeTenant();\r\n                return true;\r\n            }\r\n            else if(prop.proposalType == 6) {\r\n                _newTenant(prop);\r\n                return true;\r\n            }\r\n            else if(prop.proposalType == 7) {\r\n                _renewContract(prop);\r\n                return true;\r\n            }\r\n            else{\r\n                votingResult[_proposalId] = false;\r\n                return false;\r\n            }\r\n        }\r\n        else { \r\n            return false;\r\n        }\r\n    }\r\n\r\n    function _changeRentPrice(proposal memory _prop) internal {\r\n        rent.changeRentPrice(_prop.uint0);\r\n    }\r\n    \r\n    function _changeDepositPrice(proposal memory _prop) internal {\r\n        rent.changeDepositPrice(_prop.uint0);\r\n    }\r\n\r\n    function _changeCaretakerShare(proposal memory _prop) internal {\r\n        rent.changeCaretakerShare(_prop.uint0);\r\n    }\r\n\r\n    function _changeCaretaker(proposal memory _prop) internal {\r\n        rent.changeCaretaker(payable(_prop.address0));\r\n    }\r\n\r\n    function _removeTenant() internal {\r\n        rent.removeTenant();\r\n    }\r\n\r\n    function _newTenant(proposal memory _prop) internal {\r\n        rent.newTenant(payable(_prop.address0), _prop.uint0, _prop.uint1, _prop.uint2);\r\n    }\r\n\r\n    function _renewContract(proposal memory _prop) internal {\r\n        rent.renewContract(_prop.uint0);\r\n    }\r\n\r\n}",
  "sourcePath": "/Users/Gloria/IdeaProjects/dstate-be/solidity/contracts/NewToken.sol",
  "compiler": {
    "name": "solc",
    "version": "0.8.13+commit.abaa5c0e.Emscripten.clang"
  },
  "schemaVersion": "3.4.7",
  "updatedAt": "2022-05-29T13:31:29.954Z",
  "devdoc": {
    "kind": "dev",
    "methods": {
      "DOMAIN_SEPARATOR()": {
        "details": "See {IERC20Permit-DOMAIN_SEPARATOR}."
      },
      "allowance(address,address)": {
        "details": "See {IERC20-allowance}."
      },
      "approve(address,uint256)": {
        "details": "See {IERC20-approve}. NOTE: If `amount` is the maximum `uint256`, the allowance is not updated on `transferFrom`. This is semantically equivalent to an infinite approval. Requirements: - `spender` cannot be the zero address."
      },
      "balanceOf(address)": {
        "details": "See {IERC20-balanceOf}."
      },
      "checkpoints(address,uint32)": {
        "details": "Get the `pos`-th checkpoint for `account`."
      },
      "decimals()": {
        "details": "Returns the number of decimals used to get its user representation. For example, if `decimals` equals `2`, a balance of `505` tokens should be displayed to a user as `5.05` (`505 / 10 ** 2`). Tokens usually opt for a value of 18, imitating the relationship between Ether and Wei. This is the value {ERC20} uses, unless this function is overridden; NOTE: This information is only used for _display_ purposes: it in no way affects any of the arithmetic of the contract, including {IERC20-balanceOf} and {IERC20-transfer}."
      },
      "decreaseAllowance(address,uint256)": {
        "details": "Atomically decreases the allowance granted to `spender` by the caller. This is an alternative to {approve} that can be used as a mitigation for problems described in {IERC20-approve}. Emits an {Approval} event indicating the updated allowance. Requirements: - `spender` cannot be the zero address. - `spender` must have allowance for the caller of at least `subtractedValue`."
      },
      "delegate(address)": {
        "details": "Delegate votes from the sender to `delegatee`."
      },
      "delegateBySig(address,uint256,uint256,uint8,bytes32,bytes32)": {
        "details": "Delegates votes from signer to `delegatee`"
      },
      "delegates(address)": {
        "details": "Get the address `account` is currently delegating to."
      },
      "getPastTotalSupply(uint256)": {
        "details": "Retrieve the `totalSupply` at the end of `blockNumber`. Note, this value is the sum of all balances. It is but NOT the sum of all the delegated votes! Requirements: - `blockNumber` must have been already mined"
      },
      "getPastVotes(address,uint256)": {
        "details": "Retrieve the number of votes for `account` at the end of `blockNumber`. Requirements: - `blockNumber` must have been already mined"
      },
      "getVotes(address)": {
        "details": "Gets the current votes balance for `account`"
      },
      "increaseAllowance(address,uint256)": {
        "details": "Atomically increases the allowance granted to `spender` by the caller. This is an alternative to {approve} that can be used as a mitigation for problems described in {IERC20-approve}. Emits an {Approval} event indicating the updated allowance. Requirements: - `spender` cannot be the zero address."
      },
      "name()": {
        "details": "Returns the name of the token."
      },
      "nonces(address)": {
        "details": "See {IERC20Permit-nonces}."
      },
      "numCheckpoints(address)": {
        "details": "Get number of checkpoints for `account`."
      },
      "permit(address,address,uint256,uint256,uint8,bytes32,bytes32)": {
        "details": "See {IERC20Permit-permit}."
      },
      "symbol()": {
        "details": "Returns the symbol of the token, usually a shorter version of the name."
      },
      "totalSupply()": {
        "details": "See {IERC20-totalSupply}."
      },
      "transfer(address,uint256)": {
        "details": "See {IERC20-transfer}. Requirements: - `to` cannot be the zero address. - the caller must have a balance of at least `amount`."
      },
      "transferFrom(address,address,uint256)": {
        "details": "See {IERC20-transferFrom}. Emits an {Approval} event indicating the updated allowance. This is not required by the EIP. See the note at the beginning of {ERC20}. NOTE: Does not update the allowance if the current allowance is the maximum `uint256`. Requirements: - `from` and `to` cannot be the zero address. - `from` must have a balance of at least `amount`. - the caller must have allowance for ``from``'s tokens of at least `amount`."
      }
    },
    "version": 1
  },
  "userdoc": {
    "kind": "user",
    "methods": {},
    "version": 1
  }
}