{
  "contractName": "Rent",
  "abi": [
    {
      "inputs": [
        {
          "internalType": "uint256",
          "name": "_rentPrice",
          "type": "uint256"
        },
        {
          "internalType": "uint256",
          "name": "_depositPrice",
          "type": "uint256"
        },
        {
          "internalType": "uint256",
          "name": "_remainingMonths",
          "type": "uint256"
        },
        {
          "internalType": "uint256",
          "name": "_caretakerShare",
          "type": "uint256"
        },
        {
          "internalType": "address payable",
          "name": "_caretaker",
          "type": "address"
        },
        {
          "internalType": "address payable",
          "name": "_tenant",
          "type": "address"
        },
        {
          "internalType": "address",
          "name": "_votingContract",
          "type": "address"
        },
        {
          "internalType": "address",
          "name": "_tokenAddress",
          "type": "address"
        }
      ],
      "stateMutability": "nonpayable",
      "type": "constructor"
    },
    {
      "anonymous": false,
      "inputs": [
        {
          "indexed": true,
          "internalType": "address",
          "name": "previousOwner",
          "type": "address"
        },
        {
          "indexed": true,
          "internalType": "address",
          "name": "newOwner",
          "type": "address"
        }
      ],
      "name": "OwnershipTransferred",
      "type": "event"
    },
    {
      "anonymous": false,
      "inputs": [
        {
          "indexed": false,
          "internalType": "address",
          "name": "tenant",
          "type": "address"
        },
        {
          "indexed": false,
          "internalType": "uint256",
          "name": "amountOfETH",
          "type": "uint256"
        },
        {
          "indexed": false,
          "internalType": "uint256",
          "name": "blockNumber",
          "type": "uint256"
        }
      ],
      "name": "RentPaid",
      "type": "event"
    },
    {
      "inputs": [],
      "name": "owner",
      "outputs": [
        {
          "internalType": "address",
          "name": "",
          "type": "address"
        }
      ],
      "stateMutability": "view",
      "type": "function"
    },
    {
      "inputs": [],
      "name": "renounceOwnership",
      "outputs": [],
      "stateMutability": "nonpayable",
      "type": "function"
    },
    {
      "inputs": [
        {
          "internalType": "address",
          "name": "newOwner",
          "type": "address"
        }
      ],
      "name": "transferOwnership",
      "outputs": [],
      "stateMutability": "nonpayable",
      "type": "function"
    },
    {
      "inputs": [],
      "name": "getRentPrice",
      "outputs": [
        {
          "internalType": "uint256",
          "name": "_rentPrice",
          "type": "uint256"
        }
      ],
      "stateMutability": "view",
      "type": "function"
    },
    {
      "inputs": [],
      "name": "getDepositPrice",
      "outputs": [
        {
          "internalType": "uint256",
          "name": "depositPrice",
          "type": "uint256"
        }
      ],
      "stateMutability": "view",
      "type": "function"
    },
    {
      "inputs": [],
      "name": "getCurrentDeposit",
      "outputs": [
        {
          "internalType": "uint256",
          "name": "_currentDeposit",
          "type": "uint256"
        }
      ],
      "stateMutability": "view",
      "type": "function"
    },
    {
      "inputs": [],
      "name": "getDepositProposal",
      "outputs": [
        {
          "internalType": "uint256",
          "name": "_depositProposal",
          "type": "uint256"
        }
      ],
      "stateMutability": "view",
      "type": "function"
    },
    {
      "inputs": [],
      "name": "getCaretakerShare",
      "outputs": [
        {
          "internalType": "uint256",
          "name": "_caretakerShare",
          "type": "uint256"
        }
      ],
      "stateMutability": "view",
      "type": "function"
    },
    {
      "inputs": [],
      "name": "getRentNumber",
      "outputs": [
        {
          "internalType": "uint256",
          "name": "_rentNumber",
          "type": "uint256"
        }
      ],
      "stateMutability": "view",
      "type": "function"
    },
    {
      "inputs": [],
      "name": "getRemainingMonths",
      "outputs": [
        {
          "internalType": "uint256",
          "name": "_remainingMonths",
          "type": "uint256"
        }
      ],
      "stateMutability": "view",
      "type": "function"
    },
    {
      "inputs": [],
      "name": "getRentBlockTime",
      "outputs": [
        {
          "internalType": "uint256",
          "name": "_rentBlockTime",
          "type": "uint256"
        }
      ],
      "stateMutability": "view",
      "type": "function"
    },
    {
      "inputs": [],
      "name": "getStatus",
      "outputs": [
        {
          "internalType": "uint8",
          "name": "_caretakerStatus",
          "type": "uint8"
        }
      ],
      "stateMutability": "view",
      "type": "function"
    },
    {
      "inputs": [],
      "name": "getRentBlock",
      "outputs": [
        {
          "internalType": "uint256",
          "name": "_rentBlock",
          "type": "uint256"
        }
      ],
      "stateMutability": "view",
      "type": "function"
    },
    {
      "inputs": [],
      "name": "getRentAmountPerToken",
      "outputs": [
        {
          "internalType": "uint256",
          "name": "_rentAmountPerToken",
          "type": "uint256"
        }
      ],
      "stateMutability": "view",
      "type": "function"
    },
    {
      "inputs": [
        {
          "internalType": "uint256",
          "name": "_rentNumber",
          "type": "uint256"
        }
      ],
      "name": "getPreviousRentBlock",
      "outputs": [
        {
          "internalType": "uint256",
          "name": "_rentBlock",
          "type": "uint256"
        }
      ],
      "stateMutability": "view",
      "type": "function"
    },
    {
      "inputs": [
        {
          "internalType": "uint256",
          "name": "_rentNumber",
          "type": "uint256"
        }
      ],
      "name": "getPreviousRentAmountPerToken",
      "outputs": [
        {
          "internalType": "uint256",
          "name": "_rentAmountPerToken",
          "type": "uint256"
        }
      ],
      "stateMutability": "view",
      "type": "function"
    },
    {
      "inputs": [],
      "name": "getCaretaker",
      "outputs": [
        {
          "internalType": "address",
          "name": "_caretaker",
          "type": "address"
        }
      ],
      "stateMutability": "view",
      "type": "function"
    },
    {
      "inputs": [],
      "name": "getTenant",
      "outputs": [
        {
          "internalType": "address",
          "name": "_tenant",
          "type": "address"
        }
      ],
      "stateMutability": "view",
      "type": "function"
    },
    {
      "inputs": [],
      "name": "getPreviousTenant",
      "outputs": [
        {
          "internalType": "address",
          "name": "_previousTenant",
          "type": "address"
        }
      ],
      "stateMutability": "view",
      "type": "function"
    },
    {
      "inputs": [
        {
          "internalType": "address",
          "name": "_claimer",
          "type": "address"
        }
      ],
      "name": "getRentClaimed",
      "outputs": [
        {
          "internalType": "bool",
          "name": "_rentClaimed",
          "type": "bool"
        }
      ],
      "stateMutability": "view",
      "type": "function"
    },
    {
      "inputs": [
        {
          "internalType": "address",
          "name": "_claimer",
          "type": "address"
        },
        {
          "internalType": "uint256",
          "name": "_rentNumber",
          "type": "uint256"
        }
      ],
      "name": "getPreviousRentClaimed",
      "outputs": [
        {
          "internalType": "bool",
          "name": "_rentClaimed",
          "type": "bool"
        }
      ],
      "stateMutability": "view",
      "type": "function"
    },
    {
      "inputs": [
        {
          "internalType": "uint256",
          "name": "_rentPrice",
          "type": "uint256"
        }
      ],
      "name": "changeRentPrice",
      "outputs": [
        {
          "internalType": "uint256",
          "name": "_newRentPrice",
          "type": "uint256"
        }
      ],
      "stateMutability": "nonpayable",
      "type": "function"
    },
    {
      "inputs": [
        {
          "internalType": "uint256",
          "name": "_depositPrice",
          "type": "uint256"
        }
      ],
      "name": "changeDepositPrice",
      "outputs": [
        {
          "internalType": "uint256",
          "name": "_newDepositPrice",
          "type": "uint256"
        }
      ],
      "stateMutability": "nonpayable",
      "type": "function"
    },
    {
      "inputs": [
        {
          "internalType": "uint256",
          "name": "_caretakerShare",
          "type": "uint256"
        }
      ],
      "name": "changeCaretakerShare",
      "outputs": [
        {
          "internalType": "uint256",
          "name": "_newCaretakerShare",
          "type": "uint256"
        }
      ],
      "stateMutability": "nonpayable",
      "type": "function"
    },
    {
      "inputs": [
        {
          "internalType": "address payable",
          "name": "_caretaker",
          "type": "address"
        }
      ],
      "name": "changeCaretaker",
      "outputs": [
        {
          "internalType": "address",
          "name": "_newCaretaker",
          "type": "address"
        }
      ],
      "stateMutability": "nonpayable",
      "type": "function"
    },
    {
      "inputs": [],
      "name": "removeTenant",
      "outputs": [
        {
          "internalType": "address",
          "name": "_newTenant",
          "type": "address"
        }
      ],
      "stateMutability": "nonpayable",
      "type": "function"
    },
    {
      "inputs": [
        {
          "internalType": "address payable",
          "name": "_tenant",
          "type": "address"
        },
        {
          "internalType": "uint256",
          "name": "_remainingMonths",
          "type": "uint256"
        },
        {
          "internalType": "uint256",
          "name": "_rentPrice",
          "type": "uint256"
        },
        {
          "internalType": "uint256",
          "name": "_depositPrice",
          "type": "uint256"
        }
      ],
      "name": "newTenant",
      "outputs": [
        {
          "internalType": "address",
          "name": "_newTenant",
          "type": "address"
        },
        {
          "internalType": "uint256",
          "name": "_newMonths",
          "type": "uint256"
        }
      ],
      "stateMutability": "nonpayable",
      "type": "function"
    },
    {
      "inputs": [
        {
          "internalType": "uint256",
          "name": "_additionalMonths",
          "type": "uint256"
        }
      ],
      "name": "renewContract",
      "outputs": [
        {
          "internalType": "uint256",
          "name": "_newMonths",
          "type": "uint256"
        }
      ],
      "stateMutability": "nonpayable",
      "type": "function"
    },
    {
      "inputs": [],
      "name": "changeDisputeAddress",
      "outputs": [
        {
          "internalType": "address",
          "name": "_newDisputeAddress",
          "type": "address"
        }
      ],
      "stateMutability": "nonpayable",
      "type": "function"
    },
    {
      "inputs": [],
      "name": "requestRent",
      "outputs": [],
      "stateMutability": "nonpayable",
      "type": "function"
    },
    {
      "inputs": [],
      "name": "payRent",
      "outputs": [],
      "stateMutability": "payable",
      "type": "function"
    },
    {
      "inputs": [],
      "name": "withdrawRent",
      "outputs": [
        {
          "internalType": "uint256",
          "name": "_rent",
          "type": "uint256"
        }
      ],
      "stateMutability": "nonpayable",
      "type": "function"
    },
    {
      "inputs": [
        {
          "internalType": "uint256",
          "name": "_rentNumber",
          "type": "uint256"
        }
      ],
      "name": "withdrawPreviousRent",
      "outputs": [
        {
          "internalType": "uint256",
          "name": "_rent",
          "type": "uint256"
        }
      ],
      "stateMutability": "nonpayable",
      "type": "function"
    },
    {
      "inputs": [
        {
          "internalType": "uint256",
          "name": "_depositProposal",
          "type": "uint256"
        }
      ],
      "name": "returnDepositProposal",
      "outputs": [],
      "stateMutability": "nonpayable",
      "type": "function"
    },
    {
      "inputs": [
        {
          "internalType": "bool",
          "name": "_depositAcceptance",
          "type": "bool"
        }
      ],
      "name": "returnDepositAcceptance",
      "outputs": [],
      "stateMutability": "nonpayable",
      "type": "function"
    }
  ],
  "bytecode": "0x60806040526000601060006101000a81548173ffffffffffffffffffffffffffffffffffffffff021916908373ffffffffffffffffffffffffffffffffffffffff160217905550737176bd09199068e21be4137d1630fb8712633445601160006101000a81548173ffffffffffffffffffffffffffffffffffffffff021916908373ffffffffffffffffffffffffffffffffffffffff160217905550348015620000a857600080fd5b5060405162003d3938038062003d398339818101604052810190620000ce9190620006bd565b620000ee620000e2620003c960201b60201c565b620003d160201b60201c565b80600160000160006101000a81548173ffffffffffffffffffffffffffffffffffffffff021916908373ffffffffffffffffffffffffffffffffffffffff16021790555087600180018190555086600160020181905550600060016003018190555084600160050181905550836001600c0160006101000a81548173ffffffffffffffffffffffffffffffffffffffff021916908373ffffffffffffffffffffffffffffffffffffffff160217905550436001600a01600080815260200190815260200160002081905550600060016006018190555060006001600b01600080815260200190815260200160002081905550826001600d0160006101000a81548173ffffffffffffffffffffffffffffffffffffffff021916908373ffffffffffffffffffffffffffffffffffffffff160217905550601060009054906101000a900473ffffffffffffffffffffffffffffffffffffffff166001600e0160006101000a81548173ffffffffffffffffffffffffffffffffffffffff021916908373ffffffffffffffffffffffffffffffffffffffff1602179055508560016007018190555060656001600401819055504260016008018190555080601260006101000a81548173ffffffffffffffffffffffffffffffffffffffff021916908373ffffffffffffffffffffffffffffffffffffffff160217905550601060009054906101000a900473ffffffffffffffffffffffffffffffffffffffff1673ffffffffffffffffffffffffffffffffffffffff166001600d0160009054906101000a900473ffffffffffffffffffffffffffffffffffffffff1673ffffffffffffffffffffffffffffffffffffffff16146200038a576002600160090160006101000a81548160ff021916908360ff160217905550620003aa565b6000600160090160006101000a81548160ff021916908360ff1602179055505b620003bb826200049560201b60201c565b5050505050505050620008a1565b600033905090565b60008060009054906101000a900473ffffffffffffffffffffffffffffffffffffffff169050816000806101000a81548173ffffffffffffffffffffffffffffffffffffffff021916908373ffffffffffffffffffffffffffffffffffffffff1602179055508173ffffffffffffffffffffffffffffffffffffffff168173ffffffffffffffffffffffffffffffffffffffff167f8be0079c531659141344cd1fd0a4f28419497f9722a3daafe3b4186f6b6457e060405160405180910390a35050565b620004a5620003c960201b60201c565b73ffffffffffffffffffffffffffffffffffffffff16620004cb620005aa60201b60201c565b73ffffffffffffffffffffffffffffffffffffffff161462000524576040517f08c379a00000000000000000000000000000000000000000000000000000000081526004016200051b90620007e7565b60405180910390fd5b600073ffffffffffffffffffffffffffffffffffffffff168173ffffffffffffffffffffffffffffffffffffffff160362000596576040517f08c379a00000000000000000000000000000000000000000000000000000000081526004016200058d906200087f565b60405180910390fd5b620005a781620003d160201b60201c565b50565b60008060009054906101000a900473ffffffffffffffffffffffffffffffffffffffff16905090565b600080fd5b6000819050919050565b620005ed81620005d8565b8114620005f957600080fd5b50565b6000815190506200060d81620005e2565b92915050565b600073ffffffffffffffffffffffffffffffffffffffff82169050919050565b6000620006408262000613565b9050919050565b620006528162000633565b81146200065e57600080fd5b50565b600081519050620006728162000647565b92915050565b6000620006858262000613565b9050919050565b620006978162000678565b8114620006a357600080fd5b50565b600081519050620006b7816200068c565b92915050565b600080600080600080600080610100898b031215620006e157620006e0620005d3565b5b6000620006f18b828c01620005fc565b9850506020620007048b828c01620005fc565b9750506040620007178b828c01620005fc565b96505060606200072a8b828c01620005fc565b95505060806200073d8b828c0162000661565b94505060a0620007508b828c0162000661565b93505060c0620007638b828c01620006a6565b92505060e0620007768b828c01620006a6565b9150509295985092959890939650565b600082825260208201905092915050565b7f4f776e61626c653a2063616c6c6572206973206e6f7420746865206f776e6572600082015250565b6000620007cf60208362000786565b9150620007dc8262000797565b602082019050919050565b600060208201905081810360008301526200080281620007c0565b9050919050565b7f4f776e61626c653a206e6577206f776e657220697320746865207a65726f206160008201527f6464726573730000000000000000000000000000000000000000000000000000602082015250565b60006200086760268362000786565b9150620008748262000809565b604082019050919050565b600060208201905081810360008301526200089a8162000858565b9050919050565b61348880620008b16000396000f3fe6080604052600436106102045760003560e01c80638c24f7dc11610118578063c1aee7f8116100a0578063d8beb8851161006f578063d8beb88514610757578063e00e831c14610794578063f0164171146107d1578063f26f0cd2146107fc578063f2fde38b1461083957610204565b8063c1aee7f814610687578063c5efe295146106b2578063cbc368fc146106dd578063d5252dcf1461071a57610204565b806397d1e45d116100e757806397d1e45d146105d1578063a4f9e18e146105fc578063a69f55e414610627578063a709c4fe14610652578063ab4f7bac1461065c57610204565b80638c24f7dc146105135780638da5cb5b1461055057806390230fb91461057b57806396d83441146105a657610204565b80636322182e1161019b57806379dc52de1161016a57806379dc52de1461042e5780637e4416e6146104595780637ea1fcb8146104825780638380adab146104ad578063842159a2146104d657610204565b80636322182e1461038457806363a54c8c146103af578063715018a6146103ec57806377d487571461040357610204565b806332079851116101d757806332079851146102a157806335a08319146102de5780634e69d5601461031c5780635ac2bb131461034757610204565b80630b3bb024146102095780631efec524146102345780632cfe6fcc1461024b5780632f93b5b314610276575b600080fd5b34801561021557600080fd5b5061021e610862565b60405161022b9190612660565b60405180910390f35b34801561024057600080fd5b5061024961088f565b005b34801561025757600080fd5b5061026061092b565b60405161026d9190612660565b60405180910390f35b34801561028257600080fd5b5061028b610acc565b6040516102989190612694565b60405180910390f35b3480156102ad57600080fd5b506102c860048036038101906102c391906126e0565b610ad8565b6040516102d59190612694565b60405180910390f35b3480156102ea57600080fd5b506103056004803603810190610300919061274b565b610dc5565b6040516103139291906127b2565b60405180910390f35b34801561032857600080fd5b50610331610f55565b60405161033e91906127f7565b60405180910390f35b34801561035357600080fd5b5061036e60048036038101906103699190612812565b610f6f565b60405161037b9190612660565b60405180910390f35b34801561039057600080fd5b5061039961105e565b6040516103a69190612694565b60405180910390f35b3480156103bb57600080fd5b506103d660048036038101906103d191906126e0565b611362565b6040516103e39190612694565b60405180910390f35b3480156103f857600080fd5b506104016113f5565b005b34801561040f57600080fd5b5061041861147d565b6040516104259190612694565b60405180910390f35b34801561043a57600080fd5b5061044361148a565b6040516104509190612694565b60405180910390f35b34801561046557600080fd5b50610480600480360381019061047b9190612877565b611497565b005b34801561048e57600080fd5b5061049761178c565b6040516104a49190612694565b60405180910390f35b3480156104b957600080fd5b506104d460048036038101906104cf91906126e0565b611799565b005b3480156104e257600080fd5b506104fd60048036038101906104f891906126e0565b61191b565b60405161050a9190612694565b60405180910390f35b34801561051f57600080fd5b5061053a600480360381019061053591906128d0565b6119b0565b604051610547919061291f565b60405180910390f35b34801561055c57600080fd5b50610565611a18565b6040516105729190612660565b60405180910390f35b34801561058757600080fd5b50610590611a41565b60405161059d9190612694565b60405180910390f35b3480156105b257600080fd5b506105bb611a4e565b6040516105c89190612660565b60405180910390f35b3480156105dd57600080fd5b506105e6611a7b565b6040516105f39190612660565b60405180910390f35b34801561060857600080fd5b50610611611b76565b60405161061e9190612694565b60405180910390f35b34801561063357600080fd5b5061063c611b99565b6040516106499190612694565b60405180910390f35b61065a611ba6565b005b34801561066857600080fd5b5061067161220a565b60405161067e9190612694565b60405180910390f35b34801561069357600080fd5b5061069c612217565b6040516106a99190612660565b60405180910390f35b3480156106be57600080fd5b506106c7612244565b6040516106d49190612694565b60405180910390f35b3480156106e957600080fd5b5061070460048036038101906106ff919061293a565b612267565b604051610711919061291f565b60405180910390f35b34801561072657600080fd5b50610741600480360381019061073c91906126e0565b6122d3565b60405161074e9190612694565b60405180910390f35b34801561076357600080fd5b5061077e600480360381019061077991906126e0565b61237a565b60405161078b9190612694565b60405180910390f35b3480156107a057600080fd5b506107bb60048036038101906107b691906126e0565b61240f565b6040516107c89190612694565b60405180910390f35b3480156107dd57600080fd5b506107e661242f565b6040516107f39190612694565b60405180910390f35b34801561080857600080fd5b50610823600480360381019061081e91906126e0565b61243c565b6040516108309190612694565b60405180910390f35b34801561084557600080fd5b50610860600480360381019061085b919061293a565b61245c565b005b60006001600d0160009054906101000a900473ffffffffffffffffffffffffffffffffffffffff16905090565b6228206f600160080154426108a49190612996565b116108e4576040517f08c379a00000000000000000000000000000000000000000000000000000000081526004016108db90612a27565b60405180910390fd5b4260016008018190555060018060060160008282546109039190612a47565b925050819055506002600160090160006101000a81548160ff021916908360ff160217905550565b6000610935612553565b73ffffffffffffffffffffffffffffffffffffffff16610953611a18565b73ffffffffffffffffffffffffffffffffffffffff16146109a9576040517f08c379a00000000000000000000000000000000000000000000000000000000081526004016109a090612ae9565b60405180910390fd5b6001600d0160009054906101000a900473ffffffffffffffffffffffffffffffffffffffff166001600e0160006101000a81548173ffffffffffffffffffffffffffffffffffffffff021916908373ffffffffffffffffffffffffffffffffffffffff160217905550601060009054906101000a900473ffffffffffffffffffffffffffffffffffffffff166001600d0160006101000a81548173ffffffffffffffffffffffffffffffffffffffff021916908373ffffffffffffffffffffffffffffffffffffffff160217905550600060016007018190555060018060090160006101000a81548160ff021916908360ff1602179055506001600d0160009054906101000a900473ffffffffffffffffffffffffffffffffffffffff16905090565b60006001800154905090565b60006013600083815260200190815260200160002060003373ffffffffffffffffffffffffffffffffffffffff1673ffffffffffffffffffffffffffffffffffffffff16815260200190815260200160002060009054906101000a900460ff1615610b78576040517f08c379a0000000000000000000000000000000000000000000000000000000008152600401610b6f90612b55565b60405180910390fd5b60006001600b0160008481526020019081526020016000205411610bd1576040517f08c379a0000000000000000000000000000000000000000000000000000000008152600401610bc890612bc1565b60405180910390fd5b6000601260009054906101000a900473ffffffffffffffffffffffffffffffffffffffff16905060008173ffffffffffffffffffffffffffffffffffffffff16633a46b1a8336001600a016000888152602001908152602001600020546040518363ffffffff1660e01b8152600401610c4b9291906127b2565b602060405180830381865afa158015610c68573d6000803e3d6000fd5b505050506040513d601f19601f82011682018060405250810190610c8c9190612bf6565b905060008103610cd1576040517f08c379a0000000000000000000000000000000000000000000000000000000008152600401610cc890612c6f565b60405180910390fd5b6000670de0b6b3a7640000826001600b01600088815260200190815260200160002054610cfe9190612c8f565b610d089190612d18565b90503373ffffffffffffffffffffffffffffffffffffffff166108fc829081150290604051600060405180830381858888f19350505050158015610d50573d6000803e3d6000fd5b5060016013600087815260200190815260200160002060003373ffffffffffffffffffffffffffffffffffffffff1673ffffffffffffffffffffffffffffffffffffffff16815260200190815260200160002060006101000a81548160ff021916908315150217905550809350505050919050565b600080610dd0612553565b73ffffffffffffffffffffffffffffffffffffffff16610dee611a18565b73ffffffffffffffffffffffffffffffffffffffff1614610e44576040517f08c379a0000000000000000000000000000000000000000000000000000000008152600401610e3b90612ae9565b60405180910390fd5b6002600160090160009054906101000a900460ff1660ff1610610e9c576040517f08c379a0000000000000000000000000000000000000000000000000000000008152600401610e9390612dbb565b60405180910390fd5b856001600d0160006101000a81548173ffffffffffffffffffffffffffffffffffffffff021916908373ffffffffffffffffffffffffffffffffffffffff16021790555084600160070181905550836001800181905550826001600201819055506002600160090160006101000a81548160ff021916908360ff1602179055506001600d0160009054906101000a900473ffffffffffffffffffffffffffffffffffffffff166001600701549150915094509492505050565b6000600160090160009054906101000a900460ff16905090565b6000610f79612553565b73ffffffffffffffffffffffffffffffffffffffff16610f97611a18565b73ffffffffffffffffffffffffffffffffffffffff1614610fed576040517f08c379a0000000000000000000000000000000000000000000000000000000008152600401610fe490612ae9565b60405180910390fd5b816001600c0160006101000a81548173ffffffffffffffffffffffffffffffffffffffff021916908373ffffffffffffffffffffffffffffffffffffffff1602179055506001600c0160009054906101000a900473ffffffffffffffffffffffffffffffffffffffff169050919050565b600060136000600160060154815260200190815260200160002060003373ffffffffffffffffffffffffffffffffffffffff1673ffffffffffffffffffffffffffffffffffffffff16815260200190815260200160002060009054906101000a900460ff1615611103576040517f08c379a00000000000000000000000000000000000000000000000000000000081526004016110fa90612b55565b60405180910390fd5b60006001600b01600060016006015481526020019081526020016000205411611161576040517f08c379a000000000000000000000000000000000000000000000000000000000815260040161115890612bc1565b60405180910390fd5b6000601260009054906101000a900473ffffffffffffffffffffffffffffffffffffffff16905060008173ffffffffffffffffffffffffffffffffffffffff16633a46b1a8336001600a0160006001600601548152602001908152602001600020546040518363ffffffff1660e01b81526004016111e09291906127b2565b602060405180830381865afa1580156111fd573d6000803e3d6000fd5b505050506040513d601f19601f820116820180604052508101906112219190612bf6565b905060008103611266576040517f08c379a000000000000000000000000000000000000000000000000000000000815260040161125d90612c6f565b60405180910390fd5b6000670de0b6b3a7640000826001600b0160006001600601548152602001908152602001600020546112989190612c8f565b6112a29190612d18565b90503373ffffffffffffffffffffffffffffffffffffffff166108fc829081150290604051600060405180830381858888f193505050501580156112ea573d6000803e3d6000fd5b50600160136000600160060154815260200190815260200160002060003373ffffffffffffffffffffffffffffffffffffffff1673ffffffffffffffffffffffffffffffffffffffff16815260200190815260200160002060006101000a81548160ff02191690831515021790555080935050505090565b600061136c612553565b73ffffffffffffffffffffffffffffffffffffffff1661138a611a18565b73ffffffffffffffffffffffffffffffffffffffff16146113e0576040517f08c379a00000000000000000000000000000000000000000000000000000000081526004016113d790612ae9565b60405180910390fd5b81600180018190555060018001549050919050565b6113fd612553565b73ffffffffffffffffffffffffffffffffffffffff1661141b611a18565b73ffffffffffffffffffffffffffffffffffffffff1614611471576040517f08c379a000000000000000000000000000000000000000000000000000000000815260040161146890612ae9565b60405180910390fd5b61147b600061255b565b565b6000600160030154905090565b6000600160040154905090565b6001600e0160009054906101000a900473ffffffffffffffffffffffffffffffffffffffff1673ffffffffffffffffffffffffffffffffffffffff163373ffffffffffffffffffffffffffffffffffffffff161461152a576040517f08c379a000000000000000000000000000000000000000000000000000000000815260040161152190612e4d565b60405180910390fd5b606560016004015403611572576040517f08c379a000000000000000000000000000000000000000000000000000000000815260040161156990612edf565b60405180910390fd5b60006001600301549050600060016003018190555081156116ad576001600c0160009054906101000a900473ffffffffffffffffffffffffffffffffffffffff1673ffffffffffffffffffffffffffffffffffffffff166108fc6064600160040154846115df9190612c8f565b6115e99190612d18565b9081150290604051600060405180830381858888f19350505050158015611614573d6000803e3d6000fd5b506001600e0160009054906101000a900473ffffffffffffffffffffffffffffffffffffffff1673ffffffffffffffffffffffffffffffffffffffff166108fc6064600160040154846116679190612c8f565b6116719190612d18565b8361167c9190612996565b9081150290604051600060405180830381858888f193505050501580156116a7573d6000803e3d6000fd5b50611717565b601160009054906101000a900473ffffffffffffffffffffffffffffffffffffffff1673ffffffffffffffffffffffffffffffffffffffff166108fc829081150290604051600060405180830381858888f19350505050158015611715573d6000803e3d6000fd5b505b601060009054906101000a900473ffffffffffffffffffffffffffffffffffffffff166001600e0160006101000a81548173ffffffffffffffffffffffffffffffffffffffff021916908373ffffffffffffffffffffffffffffffffffffffff16021790555060656001600401819055505050565b6000600160050154905090565b606581106117dc576040517f08c379a00000000000000000000000000000000000000000000000000000000081526004016117d390612f71565b60405180910390fd5b6001600c0160009054906101000a900473ffffffffffffffffffffffffffffffffffffffff1673ffffffffffffffffffffffffffffffffffffffff163373ffffffffffffffffffffffffffffffffffffffff161461186f576040517f08c379a000000000000000000000000000000000000000000000000000000000815260040161186690613003565b60405180910390fd5b60018060090160009054906101000a900460ff1660ff16146118c6576040517f08c379a00000000000000000000000000000000000000000000000000000000081526004016118bd9061306f565b60405180910390fd5b60006001600301541161190e576040517f08c379a000000000000000000000000000000000000000000000000000000000815260040161190590613101565b60405180910390fd5b8060016004018190555050565b6000611925612553565b73ffffffffffffffffffffffffffffffffffffffff16611943611a18565b73ffffffffffffffffffffffffffffffffffffffff1614611999576040517f08c379a000000000000000000000000000000000000000000000000000000000815260040161199090612ae9565b60405180910390fd5b816001600201819055506001600201549050919050565b60006013600083815260200190815260200160002060008473ffffffffffffffffffffffffffffffffffffffff1673ffffffffffffffffffffffffffffffffffffffff16815260200190815260200160002060009054906101000a900460ff16905092915050565b60008060009054906101000a900473ffffffffffffffffffffffffffffffffffffffff16905090565b6000600160020154905090565b60006001600e0160009054906101000a900473ffffffffffffffffffffffffffffffffffffffff16905090565b6000601160009054906101000a900473ffffffffffffffffffffffffffffffffffffffff1673ffffffffffffffffffffffffffffffffffffffff163373ffffffffffffffffffffffffffffffffffffffff1614611b0d576040517f08c379a0000000000000000000000000000000000000000000000000000000008152600401611b0490613193565b60405180910390fd5b33601160006101000a81548173ffffffffffffffffffffffffffffffffffffffff021916908373ffffffffffffffffffffffffffffffffffffffff160217905550601160009054906101000a900473ffffffffffffffffffffffffffffffffffffffff16905090565b60006001600b016000600160060154815260200190815260200160002054905090565b6000600160070154905090565b6002600160090160009054906101000a900460ff1660ff1614611bfe576040517f08c379a0000000000000000000000000000000000000000000000000000000008152600401611bf5906131ff565b60405180910390fd5b600060016007015411611c46576040517f08c379a0000000000000000000000000000000000000000000000000000000008152600401611c3d9061326b565b60405180910390fd5b600060016003015414611f75576001800154341015611c9a576040517f08c379a0000000000000000000000000000000000000000000000000000000008152600401611c91906132d7565b60405180910390fd5b436001600a0160006001600601548152602001908152602001600020819055506001600c0160009054906101000a900473ffffffffffffffffffffffffffffffffffffffff1673ffffffffffffffffffffffffffffffffffffffff166108fc606434600160050154611d0c9190612c8f565b611d169190612d18565b9081150290604051600060405180830381858888f19350505050158015611d41573d6000803e3d6000fd5b50670de0b6b3a7640000600160000160009054906101000a900473ffffffffffffffffffffffffffffffffffffffff1673ffffffffffffffffffffffffffffffffffffffff166318160ddd6040518163ffffffff1660e01b8152600401602060405180830381865afa158015611dbb573d6000803e3d6000fd5b505050506040513d601f19601f82011682018060405250810190611ddf9190612bf6565b611de99190612d18565b606434600160050154611dfc9190612c8f565b611e069190612d18565b34611e119190612996565b611e1b9190612d18565b6001600b0160006001600601548152602001908152602001600020819055506001806007016000828254611e4f9190612996565b925050819055506003600160090160006101000a81548160ff021916908360ff160217905550600060016007015403611f70576001600d0160009054906101000a900473ffffffffffffffffffffffffffffffffffffffff166001600e0160006101000a81548173ffffffffffffffffffffffffffffffffffffffff021916908373ffffffffffffffffffffffffffffffffffffffff160217905550601060009054906101000a900473ffffffffffffffffffffffffffffffffffffffff166001600d0160006101000a81548173ffffffffffffffffffffffffffffffffffffffff021916908373ffffffffffffffffffffffffffffffffffffffff16021790555060018060090160006101000a81548160ff021916908360ff1602179055505b6121cd565b6001600201546001800154611f8a9190612a47565b341015611fcc576040517f08c379a0000000000000000000000000000000000000000000000000000000008152600401611fc390613369565b60405180910390fd5b436001600a0160006001600601548152602001908152602001600020819055506001600c0160009054906101000a900473ffffffffffffffffffffffffffffffffffffffff1673ffffffffffffffffffffffffffffffffffffffff166108fc606460018001546001600501546120429190612c8f565b61204c9190612d18565b9081150290604051600060405180830381858888f19350505050158015612077573d6000803e3d6000fd5b50670de0b6b3a7640000600160000160009054906101000a900473ffffffffffffffffffffffffffffffffffffffff1673ffffffffffffffffffffffffffffffffffffffff166318160ddd6040518163ffffffff1660e01b8152600401602060405180830381865afa1580156120f1573d6000803e3d6000fd5b505050506040513d601f19601f820116820180604052508101906121159190612bf6565b61211f9190612d18565b606460018001546001600501546121369190612c8f565b6121409190612d18565b600180015461214f9190612996565b6121599190612d18565b6001600b0160006001600601548152602001908152602001600020819055506001800154346121889190612996565b60016003018190555060018060070160008282546121a69190612996565b925050819055506003600160090160006101000a81548160ff021916908360ff1602179055505b7f33d9ffd7947b17c37c9905165c01183282058f1cb2252c9be395887d078572ad33344360405161220093929190613389565b60405180910390a1565b6000600160060154905090565b60006001600c0160009054906101000a900473ffffffffffffffffffffffffffffffffffffffff16905090565b60006001600a016000600160060154815260200190815260200160002054905090565b600060136000600160060154815260200190815260200160002060008373ffffffffffffffffffffffffffffffffffffffff1673ffffffffffffffffffffffffffffffffffffffff16815260200190815260200160002060009054906101000a900460ff169050919050565b60006122dd612553565b73ffffffffffffffffffffffffffffffffffffffff166122fb611a18565b73ffffffffffffffffffffffffffffffffffffffff1614612351576040517f08c379a000000000000000000000000000000000000000000000000000000000815260040161234890612ae9565b60405180910390fd5b81600160070160008282546123669190612a47565b925050819055506001600701549050919050565b6000612384612553565b73ffffffffffffffffffffffffffffffffffffffff166123a2611a18565b73ffffffffffffffffffffffffffffffffffffffff16146123f8576040517f08c379a00000000000000000000000000000000000000000000000000000000081526004016123ef90612ae9565b60405180910390fd5b816001600501819055506001600501549050919050565b60006001600a016000838152602001908152602001600020549050919050565b6000600160080154905090565b60006001600b016000838152602001908152602001600020549050919050565b612464612553565b73ffffffffffffffffffffffffffffffffffffffff16612482611a18565b73ffffffffffffffffffffffffffffffffffffffff16146124d8576040517f08c379a00000000000000000000000000000000000000000000000000000000081526004016124cf90612ae9565b60405180910390fd5b600073ffffffffffffffffffffffffffffffffffffffff168173ffffffffffffffffffffffffffffffffffffffff1603612547576040517f08c379a000000000000000000000000000000000000000000000000000000000815260040161253e90613432565b60405180910390fd5b6125508161255b565b50565b600033905090565b60008060009054906101000a900473ffffffffffffffffffffffffffffffffffffffff169050816000806101000a81548173ffffffffffffffffffffffffffffffffffffffff021916908373ffffffffffffffffffffffffffffffffffffffff1602179055508173ffffffffffffffffffffffffffffffffffffffff168173ffffffffffffffffffffffffffffffffffffffff167f8be0079c531659141344cd1fd0a4f28419497f9722a3daafe3b4186f6b6457e060405160405180910390a35050565b600073ffffffffffffffffffffffffffffffffffffffff82169050919050565b600061264a8261261f565b9050919050565b61265a8161263f565b82525050565b60006020820190506126756000830184612651565b92915050565b6000819050919050565b61268e8161267b565b82525050565b60006020820190506126a96000830184612685565b92915050565b600080fd5b6126bd8161267b565b81146126c857600080fd5b50565b6000813590506126da816126b4565b92915050565b6000602082840312156126f6576126f56126af565b5b6000612704848285016126cb565b91505092915050565b60006127188261261f565b9050919050565b6127288161270d565b811461273357600080fd5b50565b6000813590506127458161271f565b92915050565b60008060008060808587031215612765576127646126af565b5b600061277387828801612736565b9450506020612784878288016126cb565b9350506040612795878288016126cb565b92505060606127a6878288016126cb565b91505092959194509250565b60006040820190506127c76000830185612651565b6127d46020830184612685565b9392505050565b600060ff82169050919050565b6127f1816127db565b82525050565b600060208201905061280c60008301846127e8565b92915050565b600060208284031215612828576128276126af565b5b600061283684828501612736565b91505092915050565b60008115159050919050565b6128548161283f565b811461285f57600080fd5b50565b6000813590506128718161284b565b92915050565b60006020828403121561288d5761288c6126af565b5b600061289b84828501612862565b91505092915050565b6128ad8161263f565b81146128b857600080fd5b50565b6000813590506128ca816128a4565b92915050565b600080604083850312156128e7576128e66126af565b5b60006128f5858286016128bb565b9250506020612906858286016126cb565b9150509250929050565b6129198161283f565b82525050565b60006020820190506129346000830184612910565b92915050565b6000602082840312156129505761294f6126af565b5b600061295e848285016128bb565b91505092915050565b7f4e487b7100000000000000000000000000000000000000000000000000000000600052601160045260246000fd5b60006129a18261267b565b91506129ac8361267b565b9250828210156129bf576129be612967565b5b828203905092915050565b600082825260208201905092915050565b7f4f6e65206d6f6e746820686173206e6f7420676f6e6520627920796574000000600082015250565b6000612a11601d836129ca565b9150612a1c826129db565b602082019050919050565b60006020820190508181036000830152612a4081612a04565b9050919050565b6000612a528261267b565b9150612a5d8361267b565b9250827fffffffffffffffffffffffffffffffffffffffffffffffffffffffffffffffff03821115612a9257612a91612967565b5b828201905092915050565b7f4f776e61626c653a2063616c6c6572206973206e6f7420746865206f776e6572600082015250565b6000612ad36020836129ca565b9150612ade82612a9d565b602082019050919050565b60006020820190508181036000830152612b0281612ac6565b9050919050565b7f52656e7420616c726561647920636c61696d6564000000000000000000000000600082015250565b6000612b3f6014836129ca565b9150612b4a82612b09565b602082019050919050565b60006020820190508181036000830152612b6e81612b32565b9050919050565b7f52656e74206e6f7420617661696c61626c652079657400000000000000000000600082015250565b6000612bab6016836129ca565b9150612bb682612b75565b602082019050919050565b60006020820190508181036000830152612bda81612b9e565b9050919050565b600081519050612bf0816126b4565b92915050565b600060208284031215612c0c57612c0b6126af565b5b6000612c1a84828501612be1565b91505092915050565b7f4e6f2064656c65676174656420766f7465730000000000000000000000000000600082015250565b6000612c596012836129ca565b9150612c6482612c23565b602082019050919050565b60006020820190508181036000830152612c8881612c4c565b9050919050565b6000612c9a8261267b565b9150612ca58361267b565b9250817fffffffffffffffffffffffffffffffffffffffffffffffffffffffffffffffff0483118215151615612cde57612cdd612967565b5b828202905092915050565b7f4e487b7100000000000000000000000000000000000000000000000000000000600052601260045260246000fd5b6000612d238261267b565b9150612d2e8361267b565b925082612d3e57612d3d612ce9565b5b828204905092915050565b7f43757272656e742074656e616e74206d7573742062652072656d6f766564206660008201527f6972737400000000000000000000000000000000000000000000000000000000602082015250565b6000612da56024836129ca565b9150612db082612d49565b604082019050919050565b60006020820190508181036000830152612dd481612d98565b9050919050565b7f4f6e6c79207468652070726576696f75732074656e616e742063616e2063616c60008201527f6c20746869732066756e6374696f6e0000000000000000000000000000000000602082015250565b6000612e37602f836129ca565b9150612e4282612ddb565b604082019050919050565b60006020820190508181036000830152612e6681612e2a565b9050919050565b7f4e6f206465706f7369742070726f706f73616c20686173206265656e2063726560008201527f6174656420796574000000000000000000000000000000000000000000000000602082015250565b6000612ec96028836129ca565b9150612ed482612e6d565b604082019050919050565b60006020820190508181036000830152612ef881612ebc565b9050919050565b7f506c6561736520656e74657220612076616c69642025206f662074686520646560008201527f706f736974000000000000000000000000000000000000000000000000000000602082015250565b6000612f5b6025836129ca565b9150612f6682612eff565b604082019050919050565b60006020820190508181036000830152612f8a81612f4e565b9050919050565b7f4f6e6c7920746865206361726574616b65722063616e2063616c6c207468697360008201527f2066756e6374696f6e0000000000000000000000000000000000000000000000602082015250565b6000612fed6029836129ca565b9150612ff882612f91565b604082019050919050565b6000602082019050818103600083015261301c81612fe0565b9050919050565b7f52656e74616c20636f6e7472616374206973206e6f74206f7665720000000000600082015250565b6000613059601b836129ca565b915061306482613023565b602082019050919050565b600060208201905081810360008301526130888161304c565b9050919050565b7f4465706f7369742068617320616c7265616479206265656e207769746864726160008201527f776e000000000000000000000000000000000000000000000000000000000000602082015250565b60006130eb6022836129ca565b91506130f68261308f565b604082019050919050565b6000602082019050818103600083015261311a816130de565b9050919050565b7f46756e6374696f6e206d7573742062652063616c6c65642066726f6d2063757260008201527f72656e7420646973707574654164647265737300000000000000000000000000602082015250565b600061317d6033836129ca565b915061318882613121565b604082019050919050565b600060208201905081810360008301526131ac81613170565b9050919050565b7f52656e74206973206e6f74206475652079657400000000000000000000000000600082015250565b60006131e96013836129ca565b91506131f4826131b3565b602082019050919050565b60006020820190508181036000830152613218816131dc565b9050919050565b7f52656e74616c20636f6e7472616374206973206f766572000000000000000000600082015250565b60006132556017836129ca565b91506132608261321f565b602082019050919050565b6000602082019050818103600083015261328481613248565b9050919050565b7f4e6f7420656e6f7567682065746820746f20636f7665722072656e7400000000600082015250565b60006132c1601c836129ca565b91506132cc8261328b565b602082019050919050565b600060208201905081810360008301526132f0816132b4565b9050919050565b7f4e6f7420656e6f7567682065746820746f20636f7665722072656e742026206460008201527f65706f7369740000000000000000000000000000000000000000000000000000602082015250565b60006133536026836129ca565b915061335e826132f7565b604082019050919050565b6000602082019050818103600083015261338281613346565b9050919050565b600060608201905061339e6000830186612651565b6133ab6020830185612685565b6133b86040830184612685565b949350505050565b7f4f776e61626c653a206e6577206f776e657220697320746865207a65726f206160008201527f6464726573730000000000000000000000000000000000000000000000000000602082015250565b600061341c6026836129ca565b9150613427826133c0565b604082019050919050565b6000602082019050818103600083015261344b8161340f565b905091905056fea264697066735822122011969f91602453cff6ba796be8487a743f34190d33a87c05b1799102adb687f164736f6c634300080d0033",
  "immutableReferences": {},
  "source": "//SPDX-License-Identifier: PENDING\r\n\r\npragma solidity ^0.8.4;\r\n\r\nimport \"./NewToken.sol\";\r\nimport \"@openzeppelin/contracts/access/Ownable.sol\";\r\nimport \"@openzeppelin/contracts/token/ERC20/ERC20.sol\";\r\nimport \"@openzeppelin/contracts/token/ERC20/extensions/ERC20Votes.sol\";\r\n\r\ncontract Rent is Ownable{\r\n\r\n    struct rent {\r\n        ERC20 token; //used for number of tokens that exist (not in 10**18)\r\n        uint rentPrice;\r\n        uint depositPrice;\r\n        uint currentDeposit;\r\n        uint depositProposal; //to keep for damages out of 100, 101 means no proposal\r\n        uint caretakerShare; //out of 100\r\n        uint rentNumber;\r\n        uint remainingMonths; //0 if not for rent or contract is over\r\n        uint rentBlockTime;\r\n        uint8 status; //0-Unlisted, 1-NotRented, 2-PaymentDue, 3-PaymentOk\r\n        mapping(uint => uint) rentBlock;\r\n        mapping(uint => uint) rentAmountPerToken;\r\n        address payable caretaker; //0x0 for no caretaker\r\n        address payable tenant; //0x0 for no tenant\r\n        address payable previousTenant; //0x0 for no previous tenant\r\n    }\r\n    rent rentInfo;\r\n    address payable nullAddress = payable(0x0000000000000000000000000000000000000000);\r\n    address payable disputeAddress = payable(0x7176bd09199068E21bE4137d1630fb8712633445);\r\n    address tokenAddress;\r\n    mapping( uint => mapping(address => bool)) tokenHolders; //true means rent has been claimed\r\n    \r\n\r\n    event RentPaid(address tenant, uint amountOfETH, uint blockNumber);\r\n\r\n    \r\n    constructor(uint _rentPrice, uint _depositPrice, uint _remainingMonths, uint _caretakerShare, address payable _caretaker, address payable _tenant, address _votingContract, address _tokenAddress) {\r\n        rentInfo.token = ERC20(_tokenAddress);\r\n        //rentInfo.tokenAmount = token.totalSupply() / (10**18);\r\n        rentInfo.rentPrice = _rentPrice;\r\n        rentInfo.depositPrice = _depositPrice;\r\n        rentInfo.currentDeposit = 0;\r\n        rentInfo.caretakerShare = _caretakerShare;\r\n        rentInfo.caretaker = _caretaker;\r\n        rentInfo.rentBlock[0] = block.number;\r\n        rentInfo.rentNumber = 0;\r\n        rentInfo.rentAmountPerToken[0] = 0;\r\n        rentInfo.tenant = _tenant;\r\n        rentInfo.previousTenant = nullAddress;\r\n        rentInfo.remainingMonths = _remainingMonths;\r\n        rentInfo.depositProposal = 101;\r\n        rentInfo.rentBlockTime = block.timestamp;\r\n        tokenAddress = _tokenAddress;\r\n        if(rentInfo.tenant != nullAddress) { rentInfo.status = 2; }\r\n        else { rentInfo.status = 0; }\r\n        transferOwnership(_votingContract);\r\n    }\r\n\r\n    function getRentPrice() public view returns(uint _rentPrice){\r\n        return rentInfo.rentPrice;\r\n    }\r\n\r\n    function getDepositPrice() public view returns(uint depositPrice){\r\n        return rentInfo.depositPrice;\r\n    }\r\n\r\n    function getCurrentDeposit() public view returns(uint _currentDeposit){\r\n        return rentInfo.currentDeposit;\r\n    }\r\n\r\n    function getDepositProposal() public view returns(uint _depositProposal){\r\n        return rentInfo.depositProposal;\r\n    }\r\n\r\n    function getCaretakerShare() public view returns(uint _caretakerShare){\r\n        return rentInfo.caretakerShare;\r\n    }\r\n\r\n    function getRentNumber() public view returns(uint _rentNumber){\r\n        return rentInfo.rentNumber;\r\n    }\r\n\r\n    function getRemainingMonths() public view returns(uint _remainingMonths){\r\n        return rentInfo.remainingMonths;\r\n    }\r\n\r\n    function getRentBlockTime() public view returns(uint _rentBlockTime){\r\n        return rentInfo.rentBlockTime;\r\n    }\r\n\r\n    function getStatus() public view returns(uint8 _caretakerStatus){\r\n        return rentInfo.status;\r\n    }\r\n\r\n    function getRentBlock() public view returns(uint _rentBlock){\r\n        return rentInfo.rentBlock[rentInfo.rentNumber];\r\n    }\r\n\r\n    function getRentAmountPerToken() public view returns(uint _rentAmountPerToken){\r\n        return rentInfo.rentAmountPerToken[rentInfo.rentNumber];\r\n    }\r\n\r\n    function getPreviousRentBlock(uint _rentNumber) public view returns(uint _rentBlock){\r\n        return rentInfo.rentBlock[_rentNumber];\r\n    }\r\n\r\n    function getPreviousRentAmountPerToken(uint _rentNumber) public view returns(uint _rentAmountPerToken){\r\n        return rentInfo.rentAmountPerToken[_rentNumber];\r\n    }\r\n\r\n    function getCaretaker() public view returns(address _caretaker){\r\n        return rentInfo.caretaker;\r\n    }\r\n\r\n    function getTenant() public view returns(address _tenant){\r\n        return rentInfo.tenant;\r\n    }\r\n\r\n    function getPreviousTenant() public view returns(address _previousTenant){\r\n        return rentInfo.previousTenant;\r\n    }\r\n\r\n    function getRentClaimed(address _claimer) public view returns(bool _rentClaimed){\r\n        return tokenHolders[rentInfo.rentNumber][_claimer];\r\n    }\r\n\r\n    function getPreviousRentClaimed(address _claimer, uint _rentNumber) public view returns(bool _rentClaimed){\r\n        return tokenHolders[_rentNumber][_claimer];\r\n    }\r\n\r\n    \r\n    function changeRentPrice(uint _rentPrice) public onlyOwner returns(uint _newRentPrice){\r\n        rentInfo.rentPrice = _rentPrice;\r\n        return rentInfo.rentPrice;\r\n    }\r\n\r\n    function changeDepositPrice(uint _depositPrice) public onlyOwner returns(uint _newDepositPrice){\r\n        rentInfo.depositPrice = _depositPrice;\r\n        return rentInfo.depositPrice;\r\n    }\r\n\r\n    function changeCaretakerShare(uint _caretakerShare) public onlyOwner returns(uint _newCaretakerShare){\r\n        rentInfo.caretakerShare = _caretakerShare;\r\n        return rentInfo.caretakerShare;\r\n    }\r\n\r\n    function changeCaretaker(address payable _caretaker) public onlyOwner returns(address _newCaretaker){\r\n        rentInfo.caretaker = _caretaker;\r\n        return rentInfo.caretaker;\r\n    }\r\n\r\n    function removeTenant() public onlyOwner returns(address _newTenant) {\r\n        rentInfo.previousTenant = rentInfo.tenant;\r\n        rentInfo.tenant = nullAddress;\r\n        rentInfo.remainingMonths = 0;\r\n        rentInfo.status = 1;\r\n        return rentInfo.tenant;\r\n    }\r\n\r\n    function newTenant(address payable _tenant, uint _remainingMonths, uint _rentPrice, uint _depositPrice) public onlyOwner returns(address _newTenant, uint _newMonths) {\r\n        require(rentInfo.status < 2, \"Current tenant must be removed first\");\r\n        rentInfo.tenant = _tenant;\r\n        rentInfo.remainingMonths = _remainingMonths;\r\n        rentInfo.rentPrice = _rentPrice;\r\n        rentInfo.depositPrice = _depositPrice;\r\n        rentInfo.status = 2;\r\n        return (rentInfo.tenant, rentInfo.remainingMonths);\r\n    }\r\n\r\n    function renewContract(uint _additionalMonths) public onlyOwner returns(uint _newMonths) {\r\n        rentInfo.remainingMonths += _additionalMonths;\r\n        return rentInfo.remainingMonths;\r\n    }\r\n\r\n    function changeDisputeAddress() public returns(address _newDisputeAddress) {\r\n        require(msg.sender == disputeAddress, \"Function must be called from current disputeAddress\");\r\n        disputeAddress = payable(msg.sender);\r\n        return disputeAddress;\r\n    }\r\n\r\n    function requestRent() public {\r\n        require(block.timestamp - rentInfo.rentBlockTime > 2629743, \"One month has not gone by yet\");\r\n\r\n        rentInfo.rentBlockTime = block.timestamp;\r\n        rentInfo.rentNumber += 1;\r\n        rentInfo.status = 2; \r\n    }\r\n\r\n    function payRent() public payable {\r\n        require(rentInfo.status == 2, \"Rent is not due yet\");\r\n        require(rentInfo.remainingMonths > 0, \"Rental contract is over\");\r\n        if(rentInfo.currentDeposit != 0){\r\n            require(msg.value >= rentInfo.rentPrice, \"Not enough eth to cover rent\");\r\n            rentInfo.rentBlock[rentInfo.rentNumber] = block.number;\r\n            rentInfo.caretaker.transfer((rentInfo.caretakerShare * msg.value) / 100);\r\n            rentInfo.rentAmountPerToken[rentInfo.rentNumber] = (msg.value - ((rentInfo.caretakerShare * msg.value) / 100)) / (rentInfo.token.totalSupply() / (10**18));\r\n            rentInfo.remainingMonths -= 1; \r\n            rentInfo.status = 3;\r\n            if(rentInfo.remainingMonths == 0) {\r\n                rentInfo.previousTenant = rentInfo.tenant;\r\n                rentInfo.tenant = nullAddress;\r\n                rentInfo.status = 1;\r\n            }\r\n        }\r\n        else {\r\n            require(msg.value >= rentInfo.rentPrice + rentInfo.depositPrice, \"Not enough eth to cover rent & deposit\");\r\n            rentInfo.rentBlock[rentInfo.rentNumber] = block.number;\r\n            rentInfo.caretaker.transfer((rentInfo.caretakerShare * rentInfo.rentPrice) / 100);\r\n            rentInfo.rentAmountPerToken[rentInfo.rentNumber] = (rentInfo.rentPrice - ((rentInfo.caretakerShare * rentInfo.rentPrice) / 100)) / (rentInfo.token.totalSupply() / (10**18));\r\n            rentInfo.currentDeposit = msg.value - rentInfo.rentPrice;\r\n            rentInfo.remainingMonths -= 1; \r\n            rentInfo.status = 3;\r\n        }\r\n\r\n        emit RentPaid(msg.sender, msg.value, block.number);\r\n    }\r\n\r\n    \r\n    function withdrawRent() public returns(uint _rent) {\r\n\r\n        require(!tokenHolders[rentInfo.rentNumber][msg.sender], \"Rent already claimed\"); \r\n        require(rentInfo.rentAmountPerToken[rentInfo.rentNumber] > 0, \"Rent not available yet\");\r\n        ERC20Votes token = ERC20Votes(tokenAddress);\r\n        uint votes = token.getPastVotes(msg.sender, rentInfo.rentBlock[rentInfo.rentNumber]);\r\n        require(votes != 0, \"No delegated votes\");\r\n        uint rentPayment = (rentInfo.rentAmountPerToken[rentInfo.rentNumber] * votes) / (10 ** 18);\r\n        payable(msg.sender).transfer(rentPayment); \r\n        tokenHolders[rentInfo.rentNumber][msg.sender] = true;\r\n        return rentPayment;\r\n    }\r\n\r\n    function withdrawPreviousRent(uint _rentNumber) public returns(uint _rent) {\r\n\r\n        require(!tokenHolders[_rentNumber][msg.sender], \"Rent already claimed\"); \r\n        require(rentInfo.rentAmountPerToken[_rentNumber] > 0, \"Rent not available yet\");\r\n        ERC20Votes token = ERC20Votes(tokenAddress);\r\n        uint votes = token.getPastVotes(msg.sender, rentInfo.rentBlock[_rentNumber]);\r\n        require(votes != 0, \"No delegated votes\");\r\n        uint rentPayment = (rentInfo.rentAmountPerToken[_rentNumber] * votes) / (10 ** 18);\r\n        payable(msg.sender).transfer(rentPayment); \r\n        tokenHolders[_rentNumber][msg.sender] = true;\r\n        return rentPayment;\r\n    }\r\n\r\n    function returnDepositProposal(uint _depositProposal) public {\r\n        //function to suggest how much of the deposit should be returned, only called by caretaker, it should be less than the current deposit\r\n        require(_depositProposal < 101, \"Please enter a valid % of the deposit\");\r\n        require(msg.sender == rentInfo.caretaker, \"Only the caretaker can call this function\");\r\n        require(rentInfo.status == 1, \"Rental contract is not over\");\r\n        require(rentInfo.currentDeposit > 0, \"Deposit has already been withdrawn\");\r\n\r\n        rentInfo.depositProposal = _depositProposal; //something\r\n\r\n    }\r\n    \r\n    function returnDepositAcceptance(bool _depositAcceptance) public {\r\n        //function to accept or decline the depositProposal. If accepted it is split in the agreed manner, if not it all gets sent to the disputeAddress\r\n        require(msg.sender == rentInfo.previousTenant, \"Only the previous tenant can call this function\");\r\n        require(rentInfo.depositProposal != 101, \"No deposit proposal has been created yet\");\r\n        uint deposit = rentInfo.currentDeposit;\r\n        rentInfo.currentDeposit = 0;\r\n        if(_depositAcceptance) {\r\n            rentInfo.caretaker.transfer((deposit * rentInfo.depositProposal) / 100 ); //should work sending 0 transfer\r\n            rentInfo.previousTenant.transfer(deposit - ((deposit * rentInfo.depositProposal) / 100 ));\r\n        }\r\n        else{\r\n            disputeAddress.transfer(deposit);\r\n        }\r\n        rentInfo.previousTenant = nullAddress;\r\n        rentInfo.depositProposal = 101;\r\n    }\r\n}",
  "sourcePath": "/Users/Gloria/IdeaProjects/dstate-be/solidity/contracts/Rent.sol",
  "compiler": {
    "name": "solc",
    "version": "0.8.13+commit.abaa5c0e.Emscripten.clang"
  },
  "schemaVersion": "3.4.7",
  "updatedAt": "2022-05-27T17:14:12.047Z",
  "devdoc": {
    "kind": "dev",
    "methods": {
      "owner()": {
        "details": "Returns the address of the current owner."
      },
      "renounceOwnership()": {
        "details": "Leaves the contract without owner. It will not be possible to call `onlyOwner` functions anymore. Can only be called by the current owner. NOTE: Renouncing ownership will leave the contract without an owner, thereby removing any functionality that is only available to the owner."
      },
      "transferOwnership(address)": {
        "details": "Transfers ownership of the contract to a new account (`newOwner`). Can only be called by the current owner."
      }
    },
    "version": 1
  },
  "userdoc": {
    "kind": "user",
    "methods": {},
    "version": 1
  }
}