{
  "contractName": "Rent",
  "abi": [
    {
      "inputs": [
        {
          "internalType": "uint256",
          "name": "_rentPrice",
          "type": "uint256"
        },
        {
          "internalType": "uint256",
          "name": "_depositPrice",
          "type": "uint256"
        },
        {
          "internalType": "uint256",
          "name": "_remainingMonths",
          "type": "uint256"
        },
        {
          "internalType": "uint256",
          "name": "_caretakerShare",
          "type": "uint256"
        },
        {
          "internalType": "address payable",
          "name": "_caretaker",
          "type": "address"
        },
        {
          "internalType": "address payable",
          "name": "_tenant",
          "type": "address"
        },
        {
          "internalType": "address",
          "name": "_votingContract",
          "type": "address"
        },
        {
          "internalType": "address",
          "name": "_tokenAddress",
          "type": "address"
        }
      ],
      "stateMutability": "nonpayable",
      "type": "constructor"
    },
    {
      "anonymous": false,
      "inputs": [
        {
          "indexed": true,
          "internalType": "address",
          "name": "previousOwner",
          "type": "address"
        },
        {
          "indexed": true,
          "internalType": "address",
          "name": "newOwner",
          "type": "address"
        }
      ],
      "name": "OwnershipTransferred",
      "type": "event"
    },
    {
      "anonymous": false,
      "inputs": [
        {
          "indexed": false,
          "internalType": "address",
          "name": "tenant",
          "type": "address"
        },
        {
          "indexed": false,
          "internalType": "uint256",
          "name": "amountOfETH",
          "type": "uint256"
        },
        {
          "indexed": false,
          "internalType": "uint256",
          "name": "blockNumber",
          "type": "uint256"
        }
      ],
      "name": "RentPaid",
      "type": "event"
    },
    {
      "inputs": [],
      "name": "owner",
      "outputs": [
        {
          "internalType": "address",
          "name": "",
          "type": "address"
        }
      ],
      "stateMutability": "view",
      "type": "function"
    },
    {
      "inputs": [],
      "name": "renounceOwnership",
      "outputs": [],
      "stateMutability": "nonpayable",
      "type": "function"
    },
    {
      "inputs": [
        {
          "internalType": "address",
          "name": "newOwner",
          "type": "address"
        }
      ],
      "name": "transferOwnership",
      "outputs": [],
      "stateMutability": "nonpayable",
      "type": "function"
    },
    {
      "inputs": [],
      "name": "getRentPrice",
      "outputs": [
        {
          "internalType": "uint256",
          "name": "_rentPrice",
          "type": "uint256"
        }
      ],
      "stateMutability": "view",
      "type": "function"
    },
    {
      "inputs": [],
      "name": "getDepositPrice",
      "outputs": [
        {
          "internalType": "uint256",
          "name": "depositPrice",
          "type": "uint256"
        }
      ],
      "stateMutability": "view",
      "type": "function"
    },
    {
      "inputs": [],
      "name": "getRentAndDepositPrice",
      "outputs": [
        {
          "internalType": "uint256",
          "name": "_price",
          "type": "uint256"
        }
      ],
      "stateMutability": "view",
      "type": "function"
    },
    {
      "inputs": [],
      "name": "getCurrentDeposit",
      "outputs": [
        {
          "internalType": "uint256",
          "name": "_currentDeposit",
          "type": "uint256"
        }
      ],
      "stateMutability": "view",
      "type": "function"
    },
    {
      "inputs": [],
      "name": "getDepositProposal",
      "outputs": [
        {
          "internalType": "uint256",
          "name": "_depositProposal",
          "type": "uint256"
        }
      ],
      "stateMutability": "view",
      "type": "function"
    },
    {
      "inputs": [],
      "name": "getCaretakerShare",
      "outputs": [
        {
          "internalType": "uint256",
          "name": "_caretakerShare",
          "type": "uint256"
        }
      ],
      "stateMutability": "view",
      "type": "function"
    },
    {
      "inputs": [],
      "name": "getRentNumber",
      "outputs": [
        {
          "internalType": "uint256",
          "name": "_rentNumber",
          "type": "uint256"
        }
      ],
      "stateMutability": "view",
      "type": "function"
    },
    {
      "inputs": [],
      "name": "getRemainingMonths",
      "outputs": [
        {
          "internalType": "uint256",
          "name": "_remainingMonths",
          "type": "uint256"
        }
      ],
      "stateMutability": "view",
      "type": "function"
    },
    {
      "inputs": [],
      "name": "getRentBlockTime",
      "outputs": [
        {
          "internalType": "uint256",
          "name": "_rentBlockTime",
          "type": "uint256"
        }
      ],
      "stateMutability": "view",
      "type": "function"
    },
    {
      "inputs": [],
      "name": "getStatus",
      "outputs": [
        {
          "internalType": "uint8",
          "name": "_caretakerStatus",
          "type": "uint8"
        }
      ],
      "stateMutability": "view",
      "type": "function"
    },
    {
      "inputs": [],
      "name": "getRentBlock",
      "outputs": [
        {
          "internalType": "uint256",
          "name": "_rentBlock",
          "type": "uint256"
        }
      ],
      "stateMutability": "view",
      "type": "function"
    },
    {
      "inputs": [],
      "name": "getRentAmountPerToken",
      "outputs": [
        {
          "internalType": "uint256",
          "name": "_rentAmountPerToken",
          "type": "uint256"
        }
      ],
      "stateMutability": "view",
      "type": "function"
    },
    {
      "inputs": [
        {
          "internalType": "uint256",
          "name": "_rentNumber",
          "type": "uint256"
        }
      ],
      "name": "getPreviousRentBlock",
      "outputs": [
        {
          "internalType": "uint256",
          "name": "_rentBlock",
          "type": "uint256"
        }
      ],
      "stateMutability": "view",
      "type": "function"
    },
    {
      "inputs": [
        {
          "internalType": "uint256",
          "name": "_rentNumber",
          "type": "uint256"
        }
      ],
      "name": "getPreviousRentAmountPerToken",
      "outputs": [
        {
          "internalType": "uint256",
          "name": "_rentAmountPerToken",
          "type": "uint256"
        }
      ],
      "stateMutability": "view",
      "type": "function"
    },
    {
      "inputs": [],
      "name": "getCaretaker",
      "outputs": [
        {
          "internalType": "address",
          "name": "_caretaker",
          "type": "address"
        }
      ],
      "stateMutability": "view",
      "type": "function"
    },
    {
      "inputs": [],
      "name": "getTenant",
      "outputs": [
        {
          "internalType": "address",
          "name": "_tenant",
          "type": "address"
        }
      ],
      "stateMutability": "view",
      "type": "function"
    },
    {
      "inputs": [],
      "name": "getPreviousTenant",
      "outputs": [
        {
          "internalType": "address",
          "name": "_previousTenant",
          "type": "address"
        }
      ],
      "stateMutability": "view",
      "type": "function"
    },
    {
      "inputs": [
        {
          "internalType": "address",
          "name": "_claimer",
          "type": "address"
        }
      ],
      "name": "getRentClaimed",
      "outputs": [
        {
          "internalType": "bool",
          "name": "_rentClaimed",
          "type": "bool"
        }
      ],
      "stateMutability": "view",
      "type": "function"
    },
    {
      "inputs": [
        {
          "internalType": "address",
          "name": "_claimer",
          "type": "address"
        },
        {
          "internalType": "uint256",
          "name": "_rentNumber",
          "type": "uint256"
        }
      ],
      "name": "getPreviousRentClaimed",
      "outputs": [
        {
          "internalType": "bool",
          "name": "_rentClaimed",
          "type": "bool"
        }
      ],
      "stateMutability": "view",
      "type": "function"
    },
    {
      "inputs": [
        {
          "internalType": "uint256",
          "name": "_rentPrice",
          "type": "uint256"
        }
      ],
      "name": "changeRentPrice",
      "outputs": [
        {
          "internalType": "uint256",
          "name": "_newRentPrice",
          "type": "uint256"
        }
      ],
      "stateMutability": "nonpayable",
      "type": "function"
    },
    {
      "inputs": [
        {
          "internalType": "uint256",
          "name": "_depositPrice",
          "type": "uint256"
        }
      ],
      "name": "changeDepositPrice",
      "outputs": [
        {
          "internalType": "uint256",
          "name": "_newDepositPrice",
          "type": "uint256"
        }
      ],
      "stateMutability": "nonpayable",
      "type": "function"
    },
    {
      "inputs": [
        {
          "internalType": "uint256",
          "name": "_caretakerShare",
          "type": "uint256"
        }
      ],
      "name": "changeCaretakerShare",
      "outputs": [
        {
          "internalType": "uint256",
          "name": "_newCaretakerShare",
          "type": "uint256"
        }
      ],
      "stateMutability": "nonpayable",
      "type": "function"
    },
    {
      "inputs": [
        {
          "internalType": "address payable",
          "name": "_caretaker",
          "type": "address"
        }
      ],
      "name": "changeCaretaker",
      "outputs": [
        {
          "internalType": "address",
          "name": "_newCaretaker",
          "type": "address"
        }
      ],
      "stateMutability": "nonpayable",
      "type": "function"
    },
    {
      "inputs": [],
      "name": "removeTenant",
      "outputs": [
        {
          "internalType": "address",
          "name": "_newTenant",
          "type": "address"
        }
      ],
      "stateMutability": "nonpayable",
      "type": "function"
    },
    {
      "inputs": [
        {
          "internalType": "address payable",
          "name": "_tenant",
          "type": "address"
        },
        {
          "internalType": "uint256",
          "name": "_remainingMonths",
          "type": "uint256"
        },
        {
          "internalType": "uint256",
          "name": "_rentPrice",
          "type": "uint256"
        },
        {
          "internalType": "uint256",
          "name": "_depositPrice",
          "type": "uint256"
        }
      ],
      "name": "newTenant",
      "outputs": [
        {
          "internalType": "address",
          "name": "_newTenant",
          "type": "address"
        },
        {
          "internalType": "uint256",
          "name": "_newMonths",
          "type": "uint256"
        }
      ],
      "stateMutability": "nonpayable",
      "type": "function"
    },
    {
      "inputs": [
        {
          "internalType": "uint256",
          "name": "_additionalMonths",
          "type": "uint256"
        }
      ],
      "name": "renewContract",
      "outputs": [
        {
          "internalType": "uint256",
          "name": "_newMonths",
          "type": "uint256"
        }
      ],
      "stateMutability": "nonpayable",
      "type": "function"
    },
    {
      "inputs": [],
      "name": "changeDisputeAddress",
      "outputs": [
        {
          "internalType": "address",
          "name": "_newDisputeAddress",
          "type": "address"
        }
      ],
      "stateMutability": "nonpayable",
      "type": "function"
    },
    {
      "inputs": [],
      "name": "requestRent",
      "outputs": [],
      "stateMutability": "nonpayable",
      "type": "function"
    },
    {
      "inputs": [],
      "name": "payRent",
      "outputs": [],
      "stateMutability": "payable",
      "type": "function"
    },
    {
      "inputs": [],
      "name": "withdrawRent",
      "outputs": [
        {
          "internalType": "uint256",
          "name": "_rent",
          "type": "uint256"
        }
      ],
      "stateMutability": "nonpayable",
      "type": "function"
    },
    {
      "inputs": [
        {
          "internalType": "uint256",
          "name": "_rentNumber",
          "type": "uint256"
        }
      ],
      "name": "withdrawPreviousRent",
      "outputs": [
        {
          "internalType": "uint256",
          "name": "_rent",
          "type": "uint256"
        }
      ],
      "stateMutability": "nonpayable",
      "type": "function"
    },
    {
      "inputs": [
        {
          "internalType": "uint256",
          "name": "_depositProposal",
          "type": "uint256"
        }
      ],
      "name": "returnDepositProposal",
      "outputs": [],
      "stateMutability": "nonpayable",
      "type": "function"
    },
    {
      "inputs": [
        {
          "internalType": "bool",
          "name": "_depositAcceptance",
          "type": "bool"
        }
      ],
      "name": "returnDepositAcceptance",
      "outputs": [],
      "stateMutability": "nonpayable",
      "type": "function"
    }
  ],
  "bytecode": "0x60806040526000601060006101000a81548173ffffffffffffffffffffffffffffffffffffffff021916908373ffffffffffffffffffffffffffffffffffffffff160217905550737176bd09199068e21be4137d1630fb8712633445601160006101000a81548173ffffffffffffffffffffffffffffffffffffffff021916908373ffffffffffffffffffffffffffffffffffffffff160217905550348015620000a857600080fd5b5060405162003da438038062003da48339818101604052810190620000ce9190620006bd565b620000ee620000e2620003c960201b60201c565b620003d160201b60201c565b80600160000160006101000a81548173ffffffffffffffffffffffffffffffffffffffff021916908373ffffffffffffffffffffffffffffffffffffffff16021790555087600180018190555086600160020181905550600060016003018190555084600160050181905550836001600c0160006101000a81548173ffffffffffffffffffffffffffffffffffffffff021916908373ffffffffffffffffffffffffffffffffffffffff160217905550436001600a01600080815260200190815260200160002081905550600060016006018190555060006001600b01600080815260200190815260200160002081905550826001600d0160006101000a81548173ffffffffffffffffffffffffffffffffffffffff021916908373ffffffffffffffffffffffffffffffffffffffff160217905550601060009054906101000a900473ffffffffffffffffffffffffffffffffffffffff166001600e0160006101000a81548173ffffffffffffffffffffffffffffffffffffffff021916908373ffffffffffffffffffffffffffffffffffffffff1602179055508560016007018190555060656001600401819055504260016008018190555080601260006101000a81548173ffffffffffffffffffffffffffffffffffffffff021916908373ffffffffffffffffffffffffffffffffffffffff160217905550601060009054906101000a900473ffffffffffffffffffffffffffffffffffffffff1673ffffffffffffffffffffffffffffffffffffffff166001600d0160009054906101000a900473ffffffffffffffffffffffffffffffffffffffff1673ffffffffffffffffffffffffffffffffffffffff16146200038a576002600160090160006101000a81548160ff021916908360ff160217905550620003aa565b6000600160090160006101000a81548160ff021916908360ff1602179055505b620003bb826200049560201b60201c565b5050505050505050620008a1565b600033905090565b60008060009054906101000a900473ffffffffffffffffffffffffffffffffffffffff169050816000806101000a81548173ffffffffffffffffffffffffffffffffffffffff021916908373ffffffffffffffffffffffffffffffffffffffff1602179055508173ffffffffffffffffffffffffffffffffffffffff168173ffffffffffffffffffffffffffffffffffffffff167f8be0079c531659141344cd1fd0a4f28419497f9722a3daafe3b4186f6b6457e060405160405180910390a35050565b620004a5620003c960201b60201c565b73ffffffffffffffffffffffffffffffffffffffff16620004cb620005aa60201b60201c565b73ffffffffffffffffffffffffffffffffffffffff161462000524576040517f08c379a00000000000000000000000000000000000000000000000000000000081526004016200051b90620007e7565b60405180910390fd5b600073ffffffffffffffffffffffffffffffffffffffff168173ffffffffffffffffffffffffffffffffffffffff160362000596576040517f08c379a00000000000000000000000000000000000000000000000000000000081526004016200058d906200087f565b60405180910390fd5b620005a781620003d160201b60201c565b50565b60008060009054906101000a900473ffffffffffffffffffffffffffffffffffffffff16905090565b600080fd5b6000819050919050565b620005ed81620005d8565b8114620005f957600080fd5b50565b6000815190506200060d81620005e2565b92915050565b600073ffffffffffffffffffffffffffffffffffffffff82169050919050565b6000620006408262000613565b9050919050565b620006528162000633565b81146200065e57600080fd5b50565b600081519050620006728162000647565b92915050565b6000620006858262000613565b9050919050565b620006978162000678565b8114620006a357600080fd5b50565b600081519050620006b7816200068c565b92915050565b600080600080600080600080610100898b031215620006e157620006e0620005d3565b5b6000620006f18b828c01620005fc565b9850506020620007048b828c01620005fc565b9750506040620007178b828c01620005fc565b96505060606200072a8b828c01620005fc565b95505060806200073d8b828c0162000661565b94505060a0620007508b828c0162000661565b93505060c0620007638b828c01620006a6565b92505060e0620007768b828c01620006a6565b9150509295985092959890939650565b600082825260208201905092915050565b7f4f776e61626c653a2063616c6c6572206973206e6f7420746865206f776e6572600082015250565b6000620007cf60208362000786565b9150620007dc8262000797565b602082019050919050565b600060208201905081810360008301526200080281620007c0565b9050919050565b7f4f776e61626c653a206e6577206f776e657220697320746865207a65726f206160008201527f6464726573730000000000000000000000000000000000000000000000000000602082015250565b60006200086760268362000786565b9150620008748262000809565b604082019050919050565b600060208201905081810360008301526200089a8162000858565b9050919050565b6134f380620008b16000396000f3fe60806040526004361061020f5760003560e01c80638da5cb5b11610118578063c1aee7f8116100a0578063d8beb8851161006f578063d8beb8851461078d578063e00e831c146107ca578063f016417114610807578063f26f0cd214610832578063f2fde38b1461086f5761020f565b8063c1aee7f8146106bd578063c5efe295146106e8578063cbc368fc14610713578063d5252dcf146107505761020f565b80639c7de69e116100e75780639c7de69e14610607578063a4f9e18e14610632578063a69f55e41461065d578063a709c4fe14610688578063ab4f7bac146106925761020f565b80638da5cb5b1461055b57806390230fb91461058657806396d83441146105b157806397d1e45d146105dc5761020f565b806363a54c8c1161019b5780637e4416e61161016a5780637e4416e6146104645780637ea1fcb81461048d5780638380adab146104b8578063842159a2146104e15780638c24f7dc1461051e5761020f565b806363a54c8c146103ba578063715018a6146103f757806377d487571461040e57806379dc52de146104395761020f565b806332079851116101e257806332079851146102ac57806335a08319146102e95780634e69d560146103275780635ac2bb13146103525780636322182e1461038f5761020f565b80630b3bb024146102145780631efec5241461023f5780632cfe6fcc146102565780632f93b5b314610281575b600080fd5b34801561022057600080fd5b50610229610898565b60405161023691906126cb565b60405180910390f35b34801561024b57600080fd5b506102546108c5565b005b34801561026257600080fd5b5061026b610961565b60405161027891906126cb565b60405180910390f35b34801561028d57600080fd5b50610296610b02565b6040516102a391906126ff565b60405180910390f35b3480156102b857600080fd5b506102d360048036038101906102ce919061274b565b610b0e565b6040516102e091906126ff565b60405180910390f35b3480156102f557600080fd5b50610310600480360381019061030b91906127b6565b610dfb565b60405161031e92919061281d565b60405180910390f35b34801561033357600080fd5b5061033c610f8b565b6040516103499190612862565b60405180910390f35b34801561035e57600080fd5b506103796004803603810190610374919061287d565b610fa5565b60405161038691906126cb565b60405180910390f35b34801561039b57600080fd5b506103a4611094565b6040516103b191906126ff565b60405180910390f35b3480156103c657600080fd5b506103e160048036038101906103dc919061274b565b611398565b6040516103ee91906126ff565b60405180910390f35b34801561040357600080fd5b5061040c61142b565b005b34801561041a57600080fd5b506104236114b3565b60405161043091906126ff565b60405180910390f35b34801561044557600080fd5b5061044e6114c0565b60405161045b91906126ff565b60405180910390f35b34801561047057600080fd5b5061048b600480360381019061048691906128e2565b6114cd565b005b34801561049957600080fd5b506104a26117c2565b6040516104af91906126ff565b60405180910390f35b3480156104c457600080fd5b506104df60048036038101906104da919061274b565b6117cf565b005b3480156104ed57600080fd5b506105086004803603810190610503919061274b565b611951565b60405161051591906126ff565b60405180910390f35b34801561052a57600080fd5b506105456004803603810190610540919061293b565b6119e6565b604051610552919061298a565b60405180910390f35b34801561056757600080fd5b50610570611a4e565b60405161057d91906126cb565b60405180910390f35b34801561059257600080fd5b5061059b611a77565b6040516105a891906126ff565b60405180910390f35b3480156105bd57600080fd5b506105c6611a84565b6040516105d391906126cb565b60405180910390f35b3480156105e857600080fd5b506105f1611ab1565b6040516105fe91906126cb565b60405180910390f35b34801561061357600080fd5b5061061c611bac565b60405161062991906126ff565b60405180910390f35b34801561063e57600080fd5b50610647611be1565b60405161065491906126ff565b60405180910390f35b34801561066957600080fd5b50610672611c04565b60405161067f91906126ff565b60405180910390f35b610690611c11565b005b34801561069e57600080fd5b506106a7612275565b6040516106b491906126ff565b60405180910390f35b3480156106c957600080fd5b506106d2612282565b6040516106df91906126cb565b60405180910390f35b3480156106f457600080fd5b506106fd6122af565b60405161070a91906126ff565b60405180910390f35b34801561071f57600080fd5b5061073a600480360381019061073591906129a5565b6122d2565b604051610747919061298a565b60405180910390f35b34801561075c57600080fd5b506107776004803603810190610772919061274b565b61233e565b60405161078491906126ff565b60405180910390f35b34801561079957600080fd5b506107b460048036038101906107af919061274b565b6123e5565b6040516107c191906126ff565b60405180910390f35b3480156107d657600080fd5b506107f160048036038101906107ec919061274b565b61247a565b6040516107fe91906126ff565b60405180910390f35b34801561081357600080fd5b5061081c61249a565b60405161082991906126ff565b60405180910390f35b34801561083e57600080fd5b506108596004803603810190610854919061274b565b6124a7565b60405161086691906126ff565b60405180910390f35b34801561087b57600080fd5b50610896600480360381019061089191906129a5565b6124c7565b005b60006001600d0160009054906101000a900473ffffffffffffffffffffffffffffffffffffffff16905090565b6228206f600160080154426108da9190612a01565b1161091a576040517f08c379a000000000000000000000000000000000000000000000000000000000815260040161091190612a92565b60405180910390fd5b4260016008018190555060018060060160008282546109399190612ab2565b925050819055506002600160090160006101000a81548160ff021916908360ff160217905550565b600061096b6125be565b73ffffffffffffffffffffffffffffffffffffffff16610989611a4e565b73ffffffffffffffffffffffffffffffffffffffff16146109df576040517f08c379a00000000000000000000000000000000000000000000000000000000081526004016109d690612b54565b60405180910390fd5b6001600d0160009054906101000a900473ffffffffffffffffffffffffffffffffffffffff166001600e0160006101000a81548173ffffffffffffffffffffffffffffffffffffffff021916908373ffffffffffffffffffffffffffffffffffffffff160217905550601060009054906101000a900473ffffffffffffffffffffffffffffffffffffffff166001600d0160006101000a81548173ffffffffffffffffffffffffffffffffffffffff021916908373ffffffffffffffffffffffffffffffffffffffff160217905550600060016007018190555060018060090160006101000a81548160ff021916908360ff1602179055506001600d0160009054906101000a900473ffffffffffffffffffffffffffffffffffffffff16905090565b60006001800154905090565b60006013600083815260200190815260200160002060003373ffffffffffffffffffffffffffffffffffffffff1673ffffffffffffffffffffffffffffffffffffffff16815260200190815260200160002060009054906101000a900460ff1615610bae576040517f08c379a0000000000000000000000000000000000000000000000000000000008152600401610ba590612bc0565b60405180910390fd5b60006001600b0160008481526020019081526020016000205411610c07576040517f08c379a0000000000000000000000000000000000000000000000000000000008152600401610bfe90612c2c565b60405180910390fd5b6000601260009054906101000a900473ffffffffffffffffffffffffffffffffffffffff16905060008173ffffffffffffffffffffffffffffffffffffffff16633a46b1a8336001600a016000888152602001908152602001600020546040518363ffffffff1660e01b8152600401610c8192919061281d565b602060405180830381865afa158015610c9e573d6000803e3d6000fd5b505050506040513d601f19601f82011682018060405250810190610cc29190612c61565b905060008103610d07576040517f08c379a0000000000000000000000000000000000000000000000000000000008152600401610cfe90612cda565b60405180910390fd5b6000670de0b6b3a7640000826001600b01600088815260200190815260200160002054610d349190612cfa565b610d3e9190612d83565b90503373ffffffffffffffffffffffffffffffffffffffff166108fc829081150290604051600060405180830381858888f19350505050158015610d86573d6000803e3d6000fd5b5060016013600087815260200190815260200160002060003373ffffffffffffffffffffffffffffffffffffffff1673ffffffffffffffffffffffffffffffffffffffff16815260200190815260200160002060006101000a81548160ff021916908315150217905550809350505050919050565b600080610e066125be565b73ffffffffffffffffffffffffffffffffffffffff16610e24611a4e565b73ffffffffffffffffffffffffffffffffffffffff1614610e7a576040517f08c379a0000000000000000000000000000000000000000000000000000000008152600401610e7190612b54565b60405180910390fd5b6002600160090160009054906101000a900460ff1660ff1610610ed2576040517f08c379a0000000000000000000000000000000000000000000000000000000008152600401610ec990612e26565b60405180910390fd5b856001600d0160006101000a81548173ffffffffffffffffffffffffffffffffffffffff021916908373ffffffffffffffffffffffffffffffffffffffff16021790555084600160070181905550836001800181905550826001600201819055506002600160090160006101000a81548160ff021916908360ff1602179055506001600d0160009054906101000a900473ffffffffffffffffffffffffffffffffffffffff166001600701549150915094509492505050565b6000600160090160009054906101000a900460ff16905090565b6000610faf6125be565b73ffffffffffffffffffffffffffffffffffffffff16610fcd611a4e565b73ffffffffffffffffffffffffffffffffffffffff1614611023576040517f08c379a000000000000000000000000000000000000000000000000000000000815260040161101a90612b54565b60405180910390fd5b816001600c0160006101000a81548173ffffffffffffffffffffffffffffffffffffffff021916908373ffffffffffffffffffffffffffffffffffffffff1602179055506001600c0160009054906101000a900473ffffffffffffffffffffffffffffffffffffffff169050919050565b600060136000600160060154815260200190815260200160002060003373ffffffffffffffffffffffffffffffffffffffff1673ffffffffffffffffffffffffffffffffffffffff16815260200190815260200160002060009054906101000a900460ff1615611139576040517f08c379a000000000000000000000000000000000000000000000000000000000815260040161113090612bc0565b60405180910390fd5b60006001600b01600060016006015481526020019081526020016000205411611197576040517f08c379a000000000000000000000000000000000000000000000000000000000815260040161118e90612c2c565b60405180910390fd5b6000601260009054906101000a900473ffffffffffffffffffffffffffffffffffffffff16905060008173ffffffffffffffffffffffffffffffffffffffff16633a46b1a8336001600a0160006001600601548152602001908152602001600020546040518363ffffffff1660e01b815260040161121692919061281d565b602060405180830381865afa158015611233573d6000803e3d6000fd5b505050506040513d601f19601f820116820180604052508101906112579190612c61565b90506000810361129c576040517f08c379a000000000000000000000000000000000000000000000000000000000815260040161129390612cda565b60405180910390fd5b6000670de0b6b3a7640000826001600b0160006001600601548152602001908152602001600020546112ce9190612cfa565b6112d89190612d83565b90503373ffffffffffffffffffffffffffffffffffffffff166108fc829081150290604051600060405180830381858888f19350505050158015611320573d6000803e3d6000fd5b50600160136000600160060154815260200190815260200160002060003373ffffffffffffffffffffffffffffffffffffffff1673ffffffffffffffffffffffffffffffffffffffff16815260200190815260200160002060006101000a81548160ff02191690831515021790555080935050505090565b60006113a26125be565b73ffffffffffffffffffffffffffffffffffffffff166113c0611a4e565b73ffffffffffffffffffffffffffffffffffffffff1614611416576040517f08c379a000000000000000000000000000000000000000000000000000000000815260040161140d90612b54565b60405180910390fd5b81600180018190555060018001549050919050565b6114336125be565b73ffffffffffffffffffffffffffffffffffffffff16611451611a4e565b73ffffffffffffffffffffffffffffffffffffffff16146114a7576040517f08c379a000000000000000000000000000000000000000000000000000000000815260040161149e90612b54565b60405180910390fd5b6114b160006125c6565b565b6000600160030154905090565b6000600160040154905090565b6001600e0160009054906101000a900473ffffffffffffffffffffffffffffffffffffffff1673ffffffffffffffffffffffffffffffffffffffff163373ffffffffffffffffffffffffffffffffffffffff1614611560576040517f08c379a000000000000000000000000000000000000000000000000000000000815260040161155790612eb8565b60405180910390fd5b6065600160040154036115a8576040517f08c379a000000000000000000000000000000000000000000000000000000000815260040161159f90612f4a565b60405180910390fd5b60006001600301549050600060016003018190555081156116e3576001600c0160009054906101000a900473ffffffffffffffffffffffffffffffffffffffff1673ffffffffffffffffffffffffffffffffffffffff166108fc6064600160040154846116159190612cfa565b61161f9190612d83565b9081150290604051600060405180830381858888f1935050505015801561164a573d6000803e3d6000fd5b506001600e0160009054906101000a900473ffffffffffffffffffffffffffffffffffffffff1673ffffffffffffffffffffffffffffffffffffffff166108fc60646001600401548461169d9190612cfa565b6116a79190612d83565b836116b29190612a01565b9081150290604051600060405180830381858888f193505050501580156116dd573d6000803e3d6000fd5b5061174d565b601160009054906101000a900473ffffffffffffffffffffffffffffffffffffffff1673ffffffffffffffffffffffffffffffffffffffff166108fc829081150290604051600060405180830381858888f1935050505015801561174b573d6000803e3d6000fd5b505b601060009054906101000a900473ffffffffffffffffffffffffffffffffffffffff166001600e0160006101000a81548173ffffffffffffffffffffffffffffffffffffffff021916908373ffffffffffffffffffffffffffffffffffffffff16021790555060656001600401819055505050565b6000600160050154905090565b60658110611812576040517f08c379a000000000000000000000000000000000000000000000000000000000815260040161180990612fdc565b60405180910390fd5b6001600c0160009054906101000a900473ffffffffffffffffffffffffffffffffffffffff1673ffffffffffffffffffffffffffffffffffffffff163373ffffffffffffffffffffffffffffffffffffffff16146118a5576040517f08c379a000000000000000000000000000000000000000000000000000000000815260040161189c9061306e565b60405180910390fd5b60018060090160009054906101000a900460ff1660ff16146118fc576040517f08c379a00000000000000000000000000000000000000000000000000000000081526004016118f3906130da565b60405180910390fd5b600060016003015411611944576040517f08c379a000000000000000000000000000000000000000000000000000000000815260040161193b9061316c565b60405180910390fd5b8060016004018190555050565b600061195b6125be565b73ffffffffffffffffffffffffffffffffffffffff16611979611a4e565b73ffffffffffffffffffffffffffffffffffffffff16146119cf576040517f08c379a00000000000000000000000000000000000000000000000000000000081526004016119c690612b54565b60405180910390fd5b816001600201819055506001600201549050919050565b60006013600083815260200190815260200160002060008473ffffffffffffffffffffffffffffffffffffffff1673ffffffffffffffffffffffffffffffffffffffff16815260200190815260200160002060009054906101000a900460ff16905092915050565b60008060009054906101000a900473ffffffffffffffffffffffffffffffffffffffff16905090565b6000600160020154905090565b60006001600e0160009054906101000a900473ffffffffffffffffffffffffffffffffffffffff16905090565b6000601160009054906101000a900473ffffffffffffffffffffffffffffffffffffffff1673ffffffffffffffffffffffffffffffffffffffff163373ffffffffffffffffffffffffffffffffffffffff1614611b43576040517f08c379a0000000000000000000000000000000000000000000000000000000008152600401611b3a906131fe565b60405180910390fd5b33601160006101000a81548173ffffffffffffffffffffffffffffffffffffffff021916908373ffffffffffffffffffffffffffffffffffffffff160217905550601160009054906101000a900473ffffffffffffffffffffffffffffffffffffffff16905090565b60008060016003015414611bc65760018001549050611bde565b6001600201546001800154611bdb9190612ab2565b90505b90565b60006001600b016000600160060154815260200190815260200160002054905090565b6000600160070154905090565b6002600160090160009054906101000a900460ff1660ff1614611c69576040517f08c379a0000000000000000000000000000000000000000000000000000000008152600401611c609061326a565b60405180910390fd5b600060016007015411611cb1576040517f08c379a0000000000000000000000000000000000000000000000000000000008152600401611ca8906132d6565b60405180910390fd5b600060016003015414611fe0576001800154341015611d05576040517f08c379a0000000000000000000000000000000000000000000000000000000008152600401611cfc90613342565b60405180910390fd5b436001600a0160006001600601548152602001908152602001600020819055506001600c0160009054906101000a900473ffffffffffffffffffffffffffffffffffffffff1673ffffffffffffffffffffffffffffffffffffffff166108fc606434600160050154611d779190612cfa565b611d819190612d83565b9081150290604051600060405180830381858888f19350505050158015611dac573d6000803e3d6000fd5b50670de0b6b3a7640000600160000160009054906101000a900473ffffffffffffffffffffffffffffffffffffffff1673ffffffffffffffffffffffffffffffffffffffff166318160ddd6040518163ffffffff1660e01b8152600401602060405180830381865afa158015611e26573d6000803e3d6000fd5b505050506040513d601f19601f82011682018060405250810190611e4a9190612c61565b611e549190612d83565b606434600160050154611e679190612cfa565b611e719190612d83565b34611e7c9190612a01565b611e869190612d83565b6001600b0160006001600601548152602001908152602001600020819055506001806007016000828254611eba9190612a01565b925050819055506003600160090160006101000a81548160ff021916908360ff160217905550600060016007015403611fdb576001600d0160009054906101000a900473ffffffffffffffffffffffffffffffffffffffff166001600e0160006101000a81548173ffffffffffffffffffffffffffffffffffffffff021916908373ffffffffffffffffffffffffffffffffffffffff160217905550601060009054906101000a900473ffffffffffffffffffffffffffffffffffffffff166001600d0160006101000a81548173ffffffffffffffffffffffffffffffffffffffff021916908373ffffffffffffffffffffffffffffffffffffffff16021790555060018060090160006101000a81548160ff021916908360ff1602179055505b612238565b6001600201546001800154611ff59190612ab2565b341015612037576040517f08c379a000000000000000000000000000000000000000000000000000000000815260040161202e906133d4565b60405180910390fd5b436001600a0160006001600601548152602001908152602001600020819055506001600c0160009054906101000a900473ffffffffffffffffffffffffffffffffffffffff1673ffffffffffffffffffffffffffffffffffffffff166108fc606460018001546001600501546120ad9190612cfa565b6120b79190612d83565b9081150290604051600060405180830381858888f193505050501580156120e2573d6000803e3d6000fd5b50670de0b6b3a7640000600160000160009054906101000a900473ffffffffffffffffffffffffffffffffffffffff1673ffffffffffffffffffffffffffffffffffffffff166318160ddd6040518163ffffffff1660e01b8152600401602060405180830381865afa15801561215c573d6000803e3d6000fd5b505050506040513d601f19601f820116820180604052508101906121809190612c61565b61218a9190612d83565b606460018001546001600501546121a19190612cfa565b6121ab9190612d83565b60018001546121ba9190612a01565b6121c49190612d83565b6001600b0160006001600601548152602001908152602001600020819055506001800154346121f39190612a01565b60016003018190555060018060070160008282546122119190612a01565b925050819055506003600160090160006101000a81548160ff021916908360ff1602179055505b7f33d9ffd7947b17c37c9905165c01183282058f1cb2252c9be395887d078572ad33344360405161226b939291906133f4565b60405180910390a1565b6000600160060154905090565b60006001600c0160009054906101000a900473ffffffffffffffffffffffffffffffffffffffff16905090565b60006001600a016000600160060154815260200190815260200160002054905090565b600060136000600160060154815260200190815260200160002060008373ffffffffffffffffffffffffffffffffffffffff1673ffffffffffffffffffffffffffffffffffffffff16815260200190815260200160002060009054906101000a900460ff169050919050565b60006123486125be565b73ffffffffffffffffffffffffffffffffffffffff16612366611a4e565b73ffffffffffffffffffffffffffffffffffffffff16146123bc576040517f08c379a00000000000000000000000000000000000000000000000000000000081526004016123b390612b54565b60405180910390fd5b81600160070160008282546123d19190612ab2565b925050819055506001600701549050919050565b60006123ef6125be565b73ffffffffffffffffffffffffffffffffffffffff1661240d611a4e565b73ffffffffffffffffffffffffffffffffffffffff1614612463576040517f08c379a000000000000000000000000000000000000000000000000000000000815260040161245a90612b54565b60405180910390fd5b816001600501819055506001600501549050919050565b60006001600a016000838152602001908152602001600020549050919050565b6000600160080154905090565b60006001600b016000838152602001908152602001600020549050919050565b6124cf6125be565b73ffffffffffffffffffffffffffffffffffffffff166124ed611a4e565b73ffffffffffffffffffffffffffffffffffffffff1614612543576040517f08c379a000000000000000000000000000000000000000000000000000000000815260040161253a90612b54565b60405180910390fd5b600073ffffffffffffffffffffffffffffffffffffffff168173ffffffffffffffffffffffffffffffffffffffff16036125b2576040517f08c379a00000000000000000000000000000000000000000000000000000000081526004016125a99061349d565b60405180910390fd5b6125bb816125c6565b50565b600033905090565b60008060009054906101000a900473ffffffffffffffffffffffffffffffffffffffff169050816000806101000a81548173ffffffffffffffffffffffffffffffffffffffff021916908373ffffffffffffffffffffffffffffffffffffffff1602179055508173ffffffffffffffffffffffffffffffffffffffff168173ffffffffffffffffffffffffffffffffffffffff167f8be0079c531659141344cd1fd0a4f28419497f9722a3daafe3b4186f6b6457e060405160405180910390a35050565b600073ffffffffffffffffffffffffffffffffffffffff82169050919050565b60006126b58261268a565b9050919050565b6126c5816126aa565b82525050565b60006020820190506126e060008301846126bc565b92915050565b6000819050919050565b6126f9816126e6565b82525050565b600060208201905061271460008301846126f0565b92915050565b600080fd5b612728816126e6565b811461273357600080fd5b50565b6000813590506127458161271f565b92915050565b6000602082840312156127615761276061271a565b5b600061276f84828501612736565b91505092915050565b60006127838261268a565b9050919050565b61279381612778565b811461279e57600080fd5b50565b6000813590506127b08161278a565b92915050565b600080600080608085870312156127d0576127cf61271a565b5b60006127de878288016127a1565b94505060206127ef87828801612736565b935050604061280087828801612736565b925050606061281187828801612736565b91505092959194509250565b600060408201905061283260008301856126bc565b61283f60208301846126f0565b9392505050565b600060ff82169050919050565b61285c81612846565b82525050565b60006020820190506128776000830184612853565b92915050565b6000602082840312156128935761289261271a565b5b60006128a1848285016127a1565b91505092915050565b60008115159050919050565b6128bf816128aa565b81146128ca57600080fd5b50565b6000813590506128dc816128b6565b92915050565b6000602082840312156128f8576128f761271a565b5b6000612906848285016128cd565b91505092915050565b612918816126aa565b811461292357600080fd5b50565b6000813590506129358161290f565b92915050565b600080604083850312156129525761295161271a565b5b600061296085828601612926565b925050602061297185828601612736565b9150509250929050565b612984816128aa565b82525050565b600060208201905061299f600083018461297b565b92915050565b6000602082840312156129bb576129ba61271a565b5b60006129c984828501612926565b91505092915050565b7f4e487b7100000000000000000000000000000000000000000000000000000000600052601160045260246000fd5b6000612a0c826126e6565b9150612a17836126e6565b925082821015612a2a57612a296129d2565b5b828203905092915050565b600082825260208201905092915050565b7f4f6e65206d6f6e746820686173206e6f7420676f6e6520627920796574000000600082015250565b6000612a7c601d83612a35565b9150612a8782612a46565b602082019050919050565b60006020820190508181036000830152612aab81612a6f565b9050919050565b6000612abd826126e6565b9150612ac8836126e6565b9250827fffffffffffffffffffffffffffffffffffffffffffffffffffffffffffffffff03821115612afd57612afc6129d2565b5b828201905092915050565b7f4f776e61626c653a2063616c6c6572206973206e6f7420746865206f776e6572600082015250565b6000612b3e602083612a35565b9150612b4982612b08565b602082019050919050565b60006020820190508181036000830152612b6d81612b31565b9050919050565b7f52656e7420616c726561647920636c61696d6564000000000000000000000000600082015250565b6000612baa601483612a35565b9150612bb582612b74565b602082019050919050565b60006020820190508181036000830152612bd981612b9d565b9050919050565b7f52656e74206e6f7420617661696c61626c652079657400000000000000000000600082015250565b6000612c16601683612a35565b9150612c2182612be0565b602082019050919050565b60006020820190508181036000830152612c4581612c09565b9050919050565b600081519050612c5b8161271f565b92915050565b600060208284031215612c7757612c7661271a565b5b6000612c8584828501612c4c565b91505092915050565b7f4e6f2064656c65676174656420766f7465730000000000000000000000000000600082015250565b6000612cc4601283612a35565b9150612ccf82612c8e565b602082019050919050565b60006020820190508181036000830152612cf381612cb7565b9050919050565b6000612d05826126e6565b9150612d10836126e6565b9250817fffffffffffffffffffffffffffffffffffffffffffffffffffffffffffffffff0483118215151615612d4957612d486129d2565b5b828202905092915050565b7f4e487b7100000000000000000000000000000000000000000000000000000000600052601260045260246000fd5b6000612d8e826126e6565b9150612d99836126e6565b925082612da957612da8612d54565b5b828204905092915050565b7f43757272656e742074656e616e74206d7573742062652072656d6f766564206660008201527f6972737400000000000000000000000000000000000000000000000000000000602082015250565b6000612e10602483612a35565b9150612e1b82612db4565b604082019050919050565b60006020820190508181036000830152612e3f81612e03565b9050919050565b7f4f6e6c79207468652070726576696f75732074656e616e742063616e2063616c60008201527f6c20746869732066756e6374696f6e0000000000000000000000000000000000602082015250565b6000612ea2602f83612a35565b9150612ead82612e46565b604082019050919050565b60006020820190508181036000830152612ed181612e95565b9050919050565b7f4e6f206465706f7369742070726f706f73616c20686173206265656e2063726560008201527f6174656420796574000000000000000000000000000000000000000000000000602082015250565b6000612f34602883612a35565b9150612f3f82612ed8565b604082019050919050565b60006020820190508181036000830152612f6381612f27565b9050919050565b7f506c6561736520656e74657220612076616c69642025206f662074686520646560008201527f706f736974000000000000000000000000000000000000000000000000000000602082015250565b6000612fc6602583612a35565b9150612fd182612f6a565b604082019050919050565b60006020820190508181036000830152612ff581612fb9565b9050919050565b7f4f6e6c7920746865206361726574616b65722063616e2063616c6c207468697360008201527f2066756e6374696f6e0000000000000000000000000000000000000000000000602082015250565b6000613058602983612a35565b915061306382612ffc565b604082019050919050565b600060208201905081810360008301526130878161304b565b9050919050565b7f52656e74616c20636f6e7472616374206973206e6f74206f7665720000000000600082015250565b60006130c4601b83612a35565b91506130cf8261308e565b602082019050919050565b600060208201905081810360008301526130f3816130b7565b9050919050565b7f4465706f7369742068617320616c7265616479206265656e207769746864726160008201527f776e000000000000000000000000000000000000000000000000000000000000602082015250565b6000613156602283612a35565b9150613161826130fa565b604082019050919050565b6000602082019050818103600083015261318581613149565b9050919050565b7f46756e6374696f6e206d7573742062652063616c6c65642066726f6d2063757260008201527f72656e7420646973707574654164647265737300000000000000000000000000602082015250565b60006131e8603383612a35565b91506131f38261318c565b604082019050919050565b60006020820190508181036000830152613217816131db565b9050919050565b7f52656e74206973206e6f74206475652079657400000000000000000000000000600082015250565b6000613254601383612a35565b915061325f8261321e565b602082019050919050565b6000602082019050818103600083015261328381613247565b9050919050565b7f52656e74616c20636f6e7472616374206973206f766572000000000000000000600082015250565b60006132c0601783612a35565b91506132cb8261328a565b602082019050919050565b600060208201905081810360008301526132ef816132b3565b9050919050565b7f4e6f7420656e6f7567682065746820746f20636f7665722072656e7400000000600082015250565b600061332c601c83612a35565b9150613337826132f6565b602082019050919050565b6000602082019050818103600083015261335b8161331f565b9050919050565b7f4e6f7420656e6f7567682065746820746f20636f7665722072656e742026206460008201527f65706f7369740000000000000000000000000000000000000000000000000000602082015250565b60006133be602683612a35565b91506133c982613362565b604082019050919050565b600060208201905081810360008301526133ed816133b1565b9050919050565b600060608201905061340960008301866126bc565b61341660208301856126f0565b61342360408301846126f0565b949350505050565b7f4f776e61626c653a206e6577206f776e657220697320746865207a65726f206160008201527f6464726573730000000000000000000000000000000000000000000000000000602082015250565b6000613487602683612a35565b91506134928261342b565b604082019050919050565b600060208201905081810360008301526134b68161347a565b905091905056fea26469706673582212206123f859936195c4702f0adeb8b09a73b64ae729b0ce9a1c9512dbac63831ca664736f6c634300080d0033",
  "immutableReferences": {},
  "source": "//SPDX-License-Identifier: PENDING\r\n\r\npragma solidity ^0.8.4;\r\n\r\nimport \"./NewToken.sol\";\r\nimport \"@openzeppelin/contracts/access/Ownable.sol\";\r\nimport \"@openzeppelin/contracts/token/ERC20/ERC20.sol\";\r\nimport \"@openzeppelin/contracts/token/ERC20/extensions/ERC20Votes.sol\";\r\n\r\ncontract Rent is Ownable{\r\n\r\n    struct rent {\r\n        ERC20 token; //used for number of tokens that exist (not in 10**18)\r\n        uint rentPrice;\r\n        uint depositPrice;\r\n        uint currentDeposit;\r\n        uint depositProposal; //to keep for damages out of 100, 101 means no proposal\r\n        uint caretakerShare; //out of 100\r\n        uint rentNumber;\r\n        uint remainingMonths; //0 if not for rent or contract is over\r\n        uint rentBlockTime;\r\n        uint8 status; //0-Unlisted, 1-NotRented, 2-PaymentDue, 3-PaymentOk\r\n        mapping(uint => uint) rentBlock;\r\n        mapping(uint => uint) rentAmountPerToken;\r\n        address payable caretaker; //0x0 for no caretaker\r\n        address payable tenant; //0x0 for no tenant\r\n        address payable previousTenant; //0x0 for no previous tenant\r\n    }\r\n    rent rentInfo;\r\n    address payable nullAddress = payable(0x0000000000000000000000000000000000000000);\r\n    address payable disputeAddress = payable(0x7176bd09199068E21bE4137d1630fb8712633445);\r\n    address tokenAddress;\r\n    mapping( uint => mapping(address => bool)) tokenHolders; //true means rent has been claimed\r\n    \r\n\r\n    event RentPaid(address tenant, uint amountOfETH, uint blockNumber);\r\n\r\n    \r\n    constructor(uint _rentPrice, uint _depositPrice, uint _remainingMonths, uint _caretakerShare, address payable _caretaker, address payable _tenant, address _votingContract, address _tokenAddress) {\r\n        rentInfo.token = ERC20(_tokenAddress);\r\n        //rentInfo.tokenAmount = token.totalSupply() / (10**18);\r\n        rentInfo.rentPrice = _rentPrice;\r\n        rentInfo.depositPrice = _depositPrice;\r\n        rentInfo.currentDeposit = 0;\r\n        rentInfo.caretakerShare = _caretakerShare;\r\n        rentInfo.caretaker = _caretaker;\r\n        rentInfo.rentBlock[0] = block.number;\r\n        rentInfo.rentNumber = 0;\r\n        rentInfo.rentAmountPerToken[0] = 0;\r\n        rentInfo.tenant = _tenant;\r\n        rentInfo.previousTenant = nullAddress;\r\n        rentInfo.remainingMonths = _remainingMonths;\r\n        rentInfo.depositProposal = 101;\r\n        rentInfo.rentBlockTime = block.timestamp;\r\n        tokenAddress = _tokenAddress;\r\n        if(rentInfo.tenant != nullAddress) { rentInfo.status = 2; }\r\n        else { rentInfo.status = 0; }\r\n        transferOwnership(_votingContract);\r\n    }\r\n\r\n    function getRentPrice() public view returns(uint _rentPrice){\r\n        return rentInfo.rentPrice;\r\n    }\r\n\r\n    function getDepositPrice() public view returns(uint depositPrice){\r\n        return rentInfo.depositPrice;\r\n    }\r\n\r\n    function getRentAndDepositPrice() public view returns(uint _price) {\r\n        if(rentInfo.currentDeposit != 0){\r\n            return rentInfo.rentPrice;\r\n        }\r\n        else {\r\n            return (rentInfo.rentPrice + rentInfo.depositPrice);\r\n        }\r\n    }\r\n\r\n    function getCurrentDeposit() public view returns(uint _currentDeposit){\r\n        return rentInfo.currentDeposit;\r\n    }\r\n\r\n    function getDepositProposal() public view returns(uint _depositProposal){\r\n        return rentInfo.depositProposal;\r\n    }\r\n\r\n    function getCaretakerShare() public view returns(uint _caretakerShare){\r\n        return rentInfo.caretakerShare;\r\n    }\r\n\r\n    function getRentNumber() public view returns(uint _rentNumber){\r\n        return rentInfo.rentNumber;\r\n    }\r\n\r\n    function getRemainingMonths() public view returns(uint _remainingMonths){\r\n        return rentInfo.remainingMonths;\r\n    }\r\n\r\n    function getRentBlockTime() public view returns(uint _rentBlockTime){\r\n        return rentInfo.rentBlockTime;\r\n    }\r\n\r\n    function getStatus() public view returns(uint8 _caretakerStatus){\r\n        return rentInfo.status;\r\n    }\r\n\r\n    function getRentBlock() public view returns(uint _rentBlock){\r\n        return rentInfo.rentBlock[rentInfo.rentNumber];\r\n    }\r\n\r\n    function getRentAmountPerToken() public view returns(uint _rentAmountPerToken){\r\n        return rentInfo.rentAmountPerToken[rentInfo.rentNumber];\r\n    }\r\n\r\n    function getPreviousRentBlock(uint _rentNumber) public view returns(uint _rentBlock){\r\n        return rentInfo.rentBlock[_rentNumber];\r\n    }\r\n\r\n    function getPreviousRentAmountPerToken(uint _rentNumber) public view returns(uint _rentAmountPerToken){\r\n        return rentInfo.rentAmountPerToken[_rentNumber];\r\n    }\r\n\r\n    function getCaretaker() public view returns(address _caretaker){\r\n        return rentInfo.caretaker;\r\n    }\r\n\r\n    function getTenant() public view returns(address _tenant){\r\n        return rentInfo.tenant;\r\n    }\r\n\r\n    function getPreviousTenant() public view returns(address _previousTenant){\r\n        return rentInfo.previousTenant;\r\n    }\r\n\r\n    function getRentClaimed(address _claimer) public view returns(bool _rentClaimed){\r\n        return tokenHolders[rentInfo.rentNumber][_claimer];\r\n    }\r\n\r\n    function getPreviousRentClaimed(address _claimer, uint _rentNumber) public view returns(bool _rentClaimed){\r\n        return tokenHolders[_rentNumber][_claimer];\r\n    }\r\n\r\n    \r\n    function changeRentPrice(uint _rentPrice) public onlyOwner returns(uint _newRentPrice){\r\n        rentInfo.rentPrice = _rentPrice;\r\n        return rentInfo.rentPrice;\r\n    }\r\n\r\n    function changeDepositPrice(uint _depositPrice) public onlyOwner returns(uint _newDepositPrice){\r\n        rentInfo.depositPrice = _depositPrice;\r\n        return rentInfo.depositPrice;\r\n    }\r\n\r\n    function changeCaretakerShare(uint _caretakerShare) public onlyOwner returns(uint _newCaretakerShare){\r\n        rentInfo.caretakerShare = _caretakerShare;\r\n        return rentInfo.caretakerShare;\r\n    }\r\n\r\n    function changeCaretaker(address payable _caretaker) public onlyOwner returns(address _newCaretaker){\r\n        rentInfo.caretaker = _caretaker;\r\n        return rentInfo.caretaker;\r\n    }\r\n\r\n    function removeTenant() public onlyOwner returns(address _newTenant) {\r\n        rentInfo.previousTenant = rentInfo.tenant;\r\n        rentInfo.tenant = nullAddress;\r\n        rentInfo.remainingMonths = 0;\r\n        rentInfo.status = 1;\r\n        return rentInfo.tenant;\r\n    }\r\n\r\n    function newTenant(address payable _tenant, uint _remainingMonths, uint _rentPrice, uint _depositPrice) public onlyOwner returns(address _newTenant, uint _newMonths) {\r\n        require(rentInfo.status < 2, \"Current tenant must be removed first\");\r\n        rentInfo.tenant = _tenant;\r\n        rentInfo.remainingMonths = _remainingMonths;\r\n        rentInfo.rentPrice = _rentPrice;\r\n        rentInfo.depositPrice = _depositPrice;\r\n        rentInfo.status = 2;\r\n        return (rentInfo.tenant, rentInfo.remainingMonths);\r\n    }\r\n\r\n    function renewContract(uint _additionalMonths) public onlyOwner returns(uint _newMonths) {\r\n        rentInfo.remainingMonths += _additionalMonths;\r\n        return rentInfo.remainingMonths;\r\n    }\r\n\r\n    function changeDisputeAddress() public returns(address _newDisputeAddress) {\r\n        require(msg.sender == disputeAddress, \"Function must be called from current disputeAddress\");\r\n        disputeAddress = payable(msg.sender);\r\n        return disputeAddress;\r\n    }\r\n\r\n    function requestRent() public {\r\n        require(block.timestamp - rentInfo.rentBlockTime > 2629743, \"One month has not gone by yet\");\r\n\r\n        rentInfo.rentBlockTime = block.timestamp;\r\n        rentInfo.rentNumber += 1;\r\n        rentInfo.status = 2; \r\n    }\r\n\r\n    function payRent() public payable {\r\n        require(rentInfo.status == 2, \"Rent is not due yet\");\r\n        require(rentInfo.remainingMonths > 0, \"Rental contract is over\");\r\n        if(rentInfo.currentDeposit != 0){\r\n            require(msg.value >= rentInfo.rentPrice, \"Not enough eth to cover rent\");\r\n            rentInfo.rentBlock[rentInfo.rentNumber] = block.number;\r\n            rentInfo.caretaker.transfer((rentInfo.caretakerShare * msg.value) / 100);\r\n            rentInfo.rentAmountPerToken[rentInfo.rentNumber] = (msg.value - ((rentInfo.caretakerShare * msg.value) / 100)) / (rentInfo.token.totalSupply() / (10**18));\r\n            rentInfo.remainingMonths -= 1; \r\n            rentInfo.status = 3;\r\n            if(rentInfo.remainingMonths == 0) {\r\n                rentInfo.previousTenant = rentInfo.tenant;\r\n                rentInfo.tenant = nullAddress;\r\n                rentInfo.status = 1;\r\n            }\r\n        }\r\n        else {\r\n            require(msg.value >= rentInfo.rentPrice + rentInfo.depositPrice, \"Not enough eth to cover rent & deposit\");\r\n            rentInfo.rentBlock[rentInfo.rentNumber] = block.number;\r\n            rentInfo.caretaker.transfer((rentInfo.caretakerShare * rentInfo.rentPrice) / 100);\r\n            rentInfo.rentAmountPerToken[rentInfo.rentNumber] = (rentInfo.rentPrice - ((rentInfo.caretakerShare * rentInfo.rentPrice) / 100)) / (rentInfo.token.totalSupply() / (10**18));\r\n            rentInfo.currentDeposit = msg.value - rentInfo.rentPrice;\r\n            rentInfo.remainingMonths -= 1; \r\n            rentInfo.status = 3;\r\n        }\r\n\r\n        emit RentPaid(msg.sender, msg.value, block.number);\r\n    }\r\n\r\n    \r\n    function withdrawRent() public returns(uint _rent) {\r\n\r\n        require(!tokenHolders[rentInfo.rentNumber][msg.sender], \"Rent already claimed\"); \r\n        require(rentInfo.rentAmountPerToken[rentInfo.rentNumber] > 0, \"Rent not available yet\");\r\n        ERC20Votes token = ERC20Votes(tokenAddress);\r\n        uint votes = token.getPastVotes(msg.sender, rentInfo.rentBlock[rentInfo.rentNumber]);\r\n        require(votes != 0, \"No delegated votes\");\r\n        uint rentPayment = (rentInfo.rentAmountPerToken[rentInfo.rentNumber] * votes) / (10 ** 18);\r\n        payable(msg.sender).transfer(rentPayment); \r\n        tokenHolders[rentInfo.rentNumber][msg.sender] = true;\r\n        return rentPayment;\r\n    }\r\n\r\n    function withdrawPreviousRent(uint _rentNumber) public returns(uint _rent) {\r\n\r\n        require(!tokenHolders[_rentNumber][msg.sender], \"Rent already claimed\"); \r\n        require(rentInfo.rentAmountPerToken[_rentNumber] > 0, \"Rent not available yet\");\r\n        ERC20Votes token = ERC20Votes(tokenAddress);\r\n        uint votes = token.getPastVotes(msg.sender, rentInfo.rentBlock[_rentNumber]);\r\n        require(votes != 0, \"No delegated votes\");\r\n        uint rentPayment = (rentInfo.rentAmountPerToken[_rentNumber] * votes) / (10 ** 18);\r\n        payable(msg.sender).transfer(rentPayment); \r\n        tokenHolders[_rentNumber][msg.sender] = true;\r\n        return rentPayment;\r\n    }\r\n\r\n    function returnDepositProposal(uint _depositProposal) public {\r\n        //function to suggest how much of the deposit should be returned, only called by caretaker, it should be less than the current deposit\r\n        require(_depositProposal < 101, \"Please enter a valid % of the deposit\");\r\n        require(msg.sender == rentInfo.caretaker, \"Only the caretaker can call this function\");\r\n        require(rentInfo.status == 1, \"Rental contract is not over\");\r\n        require(rentInfo.currentDeposit > 0, \"Deposit has already been withdrawn\");\r\n\r\n        rentInfo.depositProposal = _depositProposal; //something\r\n\r\n    }\r\n    \r\n    function returnDepositAcceptance(bool _depositAcceptance) public {\r\n        //function to accept or decline the depositProposal. If accepted it is split in the agreed manner, if not it all gets sent to the disputeAddress\r\n        require(msg.sender == rentInfo.previousTenant, \"Only the previous tenant can call this function\");\r\n        require(rentInfo.depositProposal != 101, \"No deposit proposal has been created yet\");\r\n        uint deposit = rentInfo.currentDeposit;\r\n        rentInfo.currentDeposit = 0;\r\n        if(_depositAcceptance) {\r\n            rentInfo.caretaker.transfer((deposit * rentInfo.depositProposal) / 100 ); //should work sending 0 transfer\r\n            rentInfo.previousTenant.transfer(deposit - ((deposit * rentInfo.depositProposal) / 100 ));\r\n        }\r\n        else{\r\n            disputeAddress.transfer(deposit);\r\n        }\r\n        rentInfo.previousTenant = nullAddress;\r\n        rentInfo.depositProposal = 101;\r\n    }\r\n}",
  "sourcePath": "/Users/Gloria/IdeaProjects/dstate-be/solidity/contracts/Rent.sol",
  "compiler": {
    "name": "solc",
    "version": "0.8.13+commit.abaa5c0e.Emscripten.clang"
  },
  "schemaVersion": "3.4.7",
  "updatedAt": "2022-06-01T20:32:37.400Z",
  "devdoc": {
    "kind": "dev",
    "methods": {
      "owner()": {
        "details": "Returns the address of the current owner."
      },
      "renounceOwnership()": {
        "details": "Leaves the contract without owner. It will not be possible to call `onlyOwner` functions anymore. Can only be called by the current owner. NOTE: Renouncing ownership will leave the contract without an owner, thereby removing any functionality that is only available to the owner."
      },
      "transferOwnership(address)": {
        "details": "Transfers ownership of the contract to a new account (`newOwner`). Can only be called by the current owner."
      }
    },
    "version": 1
  },
  "userdoc": {
    "kind": "user",
    "methods": {},
    "version": 1
  }
}